{
  "contractName": "WBC_NFT",
  "abi": [
    {
      "inputs": [
        {
          "internalType": "bytes32",
          "name": "_MerkleRoot",
          "type": "bytes32"
        }
      ],
      "stateMutability": "nonpayable",
      "type": "constructor"
    },
    {
      "anonymous": false,
      "inputs": [
        {
          "indexed": true,
          "internalType": "address",
          "name": "owner",
          "type": "address"
        },
        {
          "indexed": true,
          "internalType": "address",
          "name": "approved",
          "type": "address"
        },
        {
          "indexed": true,
          "internalType": "uint256",
          "name": "tokenId",
          "type": "uint256"
        }
      ],
      "name": "Approval",
      "type": "event"
    },
    {
      "anonymous": false,
      "inputs": [
        {
          "indexed": true,
          "internalType": "address",
          "name": "owner",
          "type": "address"
        },
        {
          "indexed": true,
          "internalType": "address",
          "name": "operator",
          "type": "address"
        },
        {
          "indexed": false,
          "internalType": "bool",
          "name": "approved",
          "type": "bool"
        }
      ],
      "name": "ApprovalForAll",
      "type": "event"
    },
    {
      "anonymous": false,
      "inputs": [
        {
          "indexed": true,
          "internalType": "contract IERC20",
          "name": "token",
          "type": "address"
        },
        {
          "indexed": false,
          "internalType": "address",
          "name": "to",
          "type": "address"
        },
        {
          "indexed": false,
          "internalType": "uint256",
          "name": "amount",
          "type": "uint256"
        }
      ],
      "name": "ERC20PaymentReleased",
      "type": "event"
    },
    {
      "anonymous": false,
      "inputs": [
        {
          "indexed": true,
          "internalType": "address",
          "name": "to",
          "type": "address"
        },
        {
          "indexed": true,
          "internalType": "uint256",
          "name": "tokenId",
          "type": "uint256"
        }
      ],
      "name": "NFTMinted",
      "type": "event"
    },
    {
      "anonymous": false,
      "inputs": [
        {
          "indexed": true,
          "internalType": "address",
          "name": "previousOwner",
          "type": "address"
        },
        {
          "indexed": true,
          "internalType": "address",
          "name": "newOwner",
          "type": "address"
        }
      ],
      "name": "OwnershipTransferred",
      "type": "event"
    },
    {
      "anonymous": false,
      "inputs": [
        {
          "indexed": false,
          "internalType": "address",
          "name": "account",
          "type": "address"
        },
        {
          "indexed": false,
          "internalType": "uint256",
          "name": "shares",
          "type": "uint256"
        }
      ],
      "name": "PayeeAdded",
      "type": "event"
    },
    {
      "anonymous": false,
      "inputs": [
        {
          "indexed": false,
          "internalType": "address",
          "name": "from",
          "type": "address"
        },
        {
          "indexed": false,
          "internalType": "uint256",
          "name": "amount",
          "type": "uint256"
        }
      ],
      "name": "PaymentReceived",
      "type": "event"
    },
    {
      "anonymous": false,
      "inputs": [
        {
          "indexed": false,
          "internalType": "address",
          "name": "to",
          "type": "address"
        },
        {
          "indexed": false,
          "internalType": "uint256",
          "name": "amount",
          "type": "uint256"
        }
      ],
      "name": "PaymentReleased",
      "type": "event"
    },
    {
      "anonymous": false,
      "inputs": [
        {
          "indexed": true,
          "internalType": "address",
          "name": "from",
          "type": "address"
        },
        {
          "indexed": true,
          "internalType": "address",
          "name": "to",
          "type": "address"
        },
        {
          "indexed": true,
          "internalType": "uint256",
          "name": "tokenId",
          "type": "uint256"
        }
      ],
      "name": "Transfer",
      "type": "event"
    },
    {
      "inputs": [],
      "name": "MAX_NFTS_PER_ADDRESS",
      "outputs": [
        {
          "internalType": "uint256",
          "name": "",
          "type": "uint256"
        }
      ],
      "stateMutability": "view",
      "type": "function",
      "constant": true
    },
    {
      "inputs": [],
      "name": "MAX_SUPPLY",
      "outputs": [
        {
          "internalType": "uint256",
          "name": "",
          "type": "uint256"
        }
      ],
      "stateMutability": "view",
      "type": "function",
      "constant": true
    },
    {
      "inputs": [],
      "name": "PRICE",
      "outputs": [
        {
          "internalType": "uint256",
          "name": "",
          "type": "uint256"
        }
      ],
      "stateMutability": "view",
      "type": "function",
      "constant": true
    },
    {
      "inputs": [
        {
          "internalType": "address",
          "name": "to",
          "type": "address"
        },
        {
          "internalType": "uint256",
          "name": "tokenId",
          "type": "uint256"
        }
      ],
      "name": "approve",
      "outputs": [],
      "stateMutability": "nonpayable",
      "type": "function"
    },
    {
      "inputs": [
        {
          "internalType": "address",
          "name": "owner",
          "type": "address"
        }
      ],
      "name": "balanceOf",
      "outputs": [
        {
          "internalType": "uint256",
          "name": "",
          "type": "uint256"
        }
      ],
      "stateMutability": "view",
      "type": "function",
      "constant": true
    },
    {
      "inputs": [
        {
          "internalType": "uint256",
          "name": "tokenId",
          "type": "uint256"
        }
      ],
      "name": "getApproved",
      "outputs": [
        {
          "internalType": "address",
          "name": "",
          "type": "address"
        }
      ],
      "stateMutability": "view",
      "type": "function",
      "constant": true
    },
    {
      "inputs": [
        {
          "internalType": "address",
          "name": "owner",
          "type": "address"
        },
        {
          "internalType": "address",
          "name": "operator",
          "type": "address"
        }
      ],
      "name": "isApprovedForAll",
      "outputs": [
        {
          "internalType": "bool",
          "name": "",
          "type": "bool"
        }
      ],
      "stateMutability": "view",
      "type": "function",
      "constant": true
    },
    {
      "inputs": [],
      "name": "merkleRoot",
      "outputs": [
        {
          "internalType": "bytes32",
          "name": "",
          "type": "bytes32"
        }
      ],
      "stateMutability": "view",
      "type": "function",
      "constant": true
    },
    {
      "inputs": [],
      "name": "name",
      "outputs": [
        {
          "internalType": "string",
          "name": "",
          "type": "string"
        }
      ],
      "stateMutability": "view",
      "type": "function",
      "constant": true
    },
    {
      "inputs": [],
      "name": "owner",
      "outputs": [
        {
          "internalType": "address",
          "name": "",
          "type": "address"
        }
      ],
      "stateMutability": "view",
      "type": "function",
      "constant": true
    },
    {
      "inputs": [
        {
          "internalType": "uint256",
          "name": "tokenId",
          "type": "uint256"
        }
      ],
      "name": "ownerOf",
      "outputs": [
        {
          "internalType": "address",
          "name": "",
          "type": "address"
        }
      ],
      "stateMutability": "view",
      "type": "function",
      "constant": true
    },
    {
      "inputs": [
        {
          "internalType": "uint256",
          "name": "index",
          "type": "uint256"
        }
      ],
      "name": "payee",
      "outputs": [
        {
          "internalType": "address",
          "name": "",
          "type": "address"
        }
      ],
      "stateMutability": "view",
      "type": "function",
      "constant": true
    },
    {
      "inputs": [
        {
          "internalType": "address",
          "name": "account",
          "type": "address"
        }
      ],
      "name": "releasable",
      "outputs": [
        {
          "internalType": "uint256",
          "name": "",
          "type": "uint256"
        }
      ],
      "stateMutability": "view",
      "type": "function",
      "constant": true
    },
    {
      "inputs": [
        {
          "internalType": "contract IERC20",
          "name": "token",
          "type": "address"
        },
        {
          "internalType": "address",
          "name": "account",
          "type": "address"
        }
      ],
      "name": "releasable",
      "outputs": [
        {
          "internalType": "uint256",
          "name": "",
          "type": "uint256"
        }
      ],
      "stateMutability": "view",
      "type": "function",
      "constant": true
    },
    {
      "inputs": [
        {
          "internalType": "address payable",
          "name": "account",
          "type": "address"
        }
      ],
      "name": "release",
      "outputs": [],
      "stateMutability": "nonpayable",
      "type": "function"
    },
    {
      "inputs": [
        {
          "internalType": "contract IERC20",
          "name": "token",
          "type": "address"
        },
        {
          "internalType": "address",
          "name": "account",
          "type": "address"
        }
      ],
      "name": "release",
      "outputs": [],
      "stateMutability": "nonpayable",
      "type": "function"
    },
    {
      "inputs": [
        {
          "internalType": "contract IERC20",
          "name": "token",
          "type": "address"
        },
        {
          "internalType": "address",
          "name": "account",
          "type": "address"
        }
      ],
      "name": "released",
      "outputs": [
        {
          "internalType": "uint256",
          "name": "",
          "type": "uint256"
        }
      ],
      "stateMutability": "view",
      "type": "function",
      "constant": true
    },
    {
      "inputs": [
        {
          "internalType": "address",
          "name": "account",
          "type": "address"
        }
      ],
      "name": "released",
      "outputs": [
        {
          "internalType": "uint256",
          "name": "",
          "type": "uint256"
        }
      ],
      "stateMutability": "view",
      "type": "function",
      "constant": true
    },
    {
      "inputs": [],
      "name": "renounceOwnership",
      "outputs": [],
      "stateMutability": "nonpayable",
      "type": "function"
    },
    {
      "inputs": [
        {
          "internalType": "address",
          "name": "from",
          "type": "address"
        },
        {
          "internalType": "address",
          "name": "to",
          "type": "address"
        },
        {
          "internalType": "uint256",
          "name": "tokenId",
          "type": "uint256"
        }
      ],
      "name": "safeTransferFrom",
      "outputs": [],
      "stateMutability": "nonpayable",
      "type": "function"
    },
    {
      "inputs": [
        {
          "internalType": "address",
          "name": "from",
          "type": "address"
        },
        {
          "internalType": "address",
          "name": "to",
          "type": "address"
        },
        {
          "internalType": "uint256",
          "name": "tokenId",
          "type": "uint256"
        },
        {
          "internalType": "bytes",
          "name": "data",
          "type": "bytes"
        }
      ],
      "name": "safeTransferFrom",
      "outputs": [],
      "stateMutability": "nonpayable",
      "type": "function"
    },
    {
      "inputs": [],
      "name": "saleState",
      "outputs": [
        {
          "internalType": "enum WBC_NFT.SaleState",
          "name": "",
          "type": "uint8"
        }
      ],
      "stateMutability": "view",
      "type": "function",
      "constant": true
    },
    {
      "inputs": [
        {
          "internalType": "address",
          "name": "operator",
          "type": "address"
        },
        {
          "internalType": "bool",
          "name": "approved",
          "type": "bool"
        }
      ],
      "name": "setApprovalForAll",
      "outputs": [],
      "stateMutability": "nonpayable",
      "type": "function"
    },
    {
      "inputs": [
        {
          "internalType": "address",
          "name": "account",
          "type": "address"
        }
      ],
      "name": "shares",
      "outputs": [
        {
          "internalType": "uint256",
          "name": "",
          "type": "uint256"
        }
      ],
      "stateMutability": "view",
      "type": "function",
      "constant": true
    },
    {
      "inputs": [
        {
          "internalType": "bytes4",
          "name": "interfaceId",
          "type": "bytes4"
        }
      ],
      "name": "supportsInterface",
      "outputs": [
        {
          "internalType": "bool",
          "name": "",
          "type": "bool"
        }
      ],
      "stateMutability": "view",
      "type": "function",
      "constant": true
    },
    {
      "inputs": [],
      "name": "symbol",
      "outputs": [
        {
          "internalType": "string",
          "name": "",
          "type": "string"
        }
      ],
      "stateMutability": "view",
      "type": "function",
      "constant": true
    },
    {
      "inputs": [
        {
          "internalType": "contract IERC20",
          "name": "token",
          "type": "address"
        }
      ],
      "name": "totalReleased",
      "outputs": [
        {
          "internalType": "uint256",
          "name": "",
          "type": "uint256"
        }
      ],
      "stateMutability": "view",
      "type": "function",
      "constant": true
    },
    {
      "inputs": [],
      "name": "totalReleased",
      "outputs": [
        {
          "internalType": "uint256",
          "name": "",
          "type": "uint256"
        }
      ],
      "stateMutability": "view",
      "type": "function",
      "constant": true
    },
    {
      "inputs": [],
      "name": "totalShares",
      "outputs": [
        {
          "internalType": "uint256",
          "name": "",
          "type": "uint256"
        }
      ],
      "stateMutability": "view",
      "type": "function",
      "constant": true
    },
    {
      "inputs": [
        {
          "internalType": "address",
          "name": "from",
          "type": "address"
        },
        {
          "internalType": "address",
          "name": "to",
          "type": "address"
        },
        {
          "internalType": "uint256",
          "name": "tokenId",
          "type": "uint256"
        }
      ],
      "name": "transferFrom",
      "outputs": [],
      "stateMutability": "nonpayable",
      "type": "function"
    },
    {
      "inputs": [
        {
          "internalType": "address",
          "name": "newOwner",
          "type": "address"
        }
      ],
      "name": "transferOwnership",
      "outputs": [],
      "stateMutability": "nonpayable",
      "type": "function"
    },
    {
      "stateMutability": "payable",
      "type": "receive",
      "payable": true
    },
    {
      "inputs": [
        {
          "internalType": "bytes32[]",
          "name": "_proof",
          "type": "bytes32[]"
        }
      ],
      "name": "mint_nft",
      "outputs": [],
      "stateMutability": "payable",
      "type": "function",
      "payable": true
    },
    {
      "inputs": [
        {
          "internalType": "uint256",
          "name": "tokenId",
          "type": "uint256"
        }
      ],
      "name": "tokenURI",
      "outputs": [
        {
          "internalType": "string",
          "name": "",
          "type": "string"
        }
      ],
      "stateMutability": "view",
      "type": "function",
      "constant": true
    },
    {
      "inputs": [
        {
          "internalType": "address",
          "name": "_address",
          "type": "address"
        }
      ],
      "name": "getNFTsByAddress",
      "outputs": [
        {
          "internalType": "uint256[]",
          "name": "",
          "type": "uint256[]"
        }
      ],
      "stateMutability": "view",
      "type": "function",
      "constant": true
    },
    {
      "inputs": [],
      "name": "startSale",
      "outputs": [],
      "stateMutability": "nonpayable",
      "type": "function"
    },
    {
      "inputs": [],
      "name": "endSale",
      "outputs": [],
      "stateMutability": "nonpayable",
      "type": "function"
    }
  ],
  "bytecode": "0x60806040526040518060400160405280600581526020017f2e6a736f6e000000000000000000000000000000000000000000000000000000815250601090816200004a919062000ac9565b506000601160006101000a81548160ff021916908315150217905550604051806040016040528073a65342e5a81cab20595a8e4f73758350056ac5c173ffffffffffffffffffffffffffffffffffffffff1673ffffffffffffffffffffffffffffffffffffffff168152602001736d80ab5fbbb46421b8ca1ee35a4b1150beb22e9673ffffffffffffffffffffffffffffffffffffffff1673ffffffffffffffffffffffffffffffffffffffff1681525060129060026200010d9291906200074a565b506040518060400160405280603260ff168152602001603260ff1681525060139060026200013d929190620007d9565b503480156200014b57600080fd5b5060405162005ff338038062005ff3833981810160405281019062000171919062000bf0565b6012805480602002602001604051908101604052809291908181526020018280548015620001f557602002820191906000526020600020905b8160009054906101000a900473ffffffffffffffffffffffffffffffffffffffff1673ffffffffffffffffffffffffffffffffffffffff1681526020019060010190808311620001aa575b505050505060138054806020026020016040519081016040528092919081815260200182805480156200024857602002820191906000526020600020905b81548152602001906001019080831162000233575b50505050506040518060400160405280600781526020017f574243204e4654000000000000000000000000000000000000000000000000008152506040518060400160405280600381526020017f57424300000000000000000000000000000000000000000000000000000000008152508160009081620002ca919062000ac9565b508060019081620002dc919062000ac9565b505050620002ff620002f36200044360201b60201c565b6200044b60201b60201c565b805182511462000346576040517f08c379a00000000000000000000000000000000000000000000000000000000081526004016200033d9062000ca9565b60405180910390fd5b60008251116200038d576040517f08c379a0000000000000000000000000000000000000000000000000000000008152600401620003849062000d1b565b60405180910390fd5b60005b8251811015620003fc57620003e6838281518110620003b457620003b362000d3d565b5b6020026020010151838381518110620003d257620003d162000d3d565b5b60200260200101516200051160201b60201c565b8080620003f39062000d9b565b91505062000390565b5050506001600e81905550806016819055506000601760006101000a81548160ff0219169083600281111562000437576200043662000de8565b5b02179055505062001077565b600033905090565b6000600660009054906101000a900473ffffffffffffffffffffffffffffffffffffffff16905081600660006101000a81548173ffffffffffffffffffffffffffffffffffffffff021916908373ffffffffffffffffffffffffffffffffffffffff1602179055508173ffffffffffffffffffffffffffffffffffffffff168173ffffffffffffffffffffffffffffffffffffffff167f8be0079c531659141344cd1fd0a4f28419497f9722a3daafe3b4186f6b6457e060405160405180910390a35050565b600073ffffffffffffffffffffffffffffffffffffffff168273ffffffffffffffffffffffffffffffffffffffff160362000583576040517f08c379a00000000000000000000000000000000000000000000000000000000081526004016200057a9062000e8d565b60405180910390fd5b60008111620005c9576040517f08c379a0000000000000000000000000000000000000000000000000000000008152600401620005c09062000eff565b60405180910390fd5b6000600960008473ffffffffffffffffffffffffffffffffffffffff1673ffffffffffffffffffffffffffffffffffffffff16815260200190815260200160002054146200064e576040517f08c379a0000000000000000000000000000000000000000000000000000000008152600401620006459062000f97565b60405180910390fd5b600b829080600181540180825580915050600190039060005260206000200160009091909190916101000a81548173ffffffffffffffffffffffffffffffffffffffff021916908373ffffffffffffffffffffffffffffffffffffffff16021790555080600960008473ffffffffffffffffffffffffffffffffffffffff1673ffffffffffffffffffffffffffffffffffffffff168152602001908152602001600020819055508060075462000705919062000fb9565b6007819055507f40c340f65e17194d14ddddb073d3c9f888e3cb52b5aae0c6c7706b4fbc905fac82826040516200073e9291906200104a565b60405180910390a15050565b828054828255906000526020600020908101928215620007c6579160200282015b82811115620007c55782518260006101000a81548173ffffffffffffffffffffffffffffffffffffffff021916908373ffffffffffffffffffffffffffffffffffffffff160217905550916020019190600101906200076b565b5b509050620007d5919062000830565b5090565b8280548282559060005260206000209081019282156200081d579160200282015b828111156200081c578251829060ff16905591602001919060010190620007fa565b5b5090506200082c919062000830565b5090565b5b808211156200084b57600081600090555060010162000831565b5090565b600081519050919050565b7f4e487b7100000000000000000000000000000000000000000000000000000000600052604160045260246000fd5b7f4e487b7100000000000000000000000000000000000000000000000000000000600052602260045260246000fd5b60006002820490506001821680620008d157607f821691505b602082108103620008e757620008e662000889565b5b50919050565b60008190508160005260206000209050919050565b60006020601f8301049050919050565b600082821b905092915050565b600060088302620009517fffffffffffffffffffffffffffffffffffffffffffffffffffffffffffffffff8262000912565b6200095d868362000912565b95508019841693508086168417925050509392505050565b6000819050919050565b6000819050919050565b6000620009aa620009a46200099e8462000975565b6200097f565b62000975565b9050919050565b6000819050919050565b620009c68362000989565b620009de620009d582620009b1565b8484546200091f565b825550505050565b600090565b620009f5620009e6565b62000a02818484620009bb565b505050565b5b8181101562000a2a5762000a1e600082620009eb565b60018101905062000a08565b5050565b601f82111562000a795762000a4381620008ed565b62000a4e8462000902565b8101602085101562000a5e578190505b62000a7662000a6d8562000902565b83018262000a07565b50505b505050565b600082821c905092915050565b600062000a9e6000198460080262000a7e565b1980831691505092915050565b600062000ab9838362000a8b565b9150826002028217905092915050565b62000ad4826200084f565b67ffffffffffffffff81111562000af05762000aef6200085a565b5b62000afc8254620008b8565b62000b0982828562000a2e565b600060209050601f83116001811462000b41576000841562000b2c578287015190505b62000b38858262000aab565b86555062000ba8565b601f19841662000b5186620008ed565b60005b8281101562000b7b5784890151825560018201915060208501945060208101905062000b54565b8683101562000b9b578489015162000b97601f89168262000a8b565b8355505b6001600288020188555050505b505050505050565b600080fd5b6000819050919050565b62000bca8162000bb5565b811462000bd657600080fd5b50565b60008151905062000bea8162000bbf565b92915050565b60006020828403121562000c095762000c0862000bb0565b5b600062000c198482850162000bd9565b91505092915050565b600082825260208201905092915050565b7f5061796d656e7453706c69747465723a2070617965657320616e64207368617260008201527f6573206c656e677468206d69736d617463680000000000000000000000000000602082015250565b600062000c9160328362000c22565b915062000c9e8262000c33565b604082019050919050565b6000602082019050818103600083015262000cc48162000c82565b9050919050565b7f5061796d656e7453706c69747465723a206e6f20706179656573000000000000600082015250565b600062000d03601a8362000c22565b915062000d108262000ccb565b602082019050919050565b6000602082019050818103600083015262000d368162000cf4565b9050919050565b7f4e487b7100000000000000000000000000000000000000000000000000000000600052603260045260246000fd5b7f4e487b7100000000000000000000000000000000000000000000000000000000600052601160045260246000fd5b600062000da88262000975565b91507fffffffffffffffffffffffffffffffffffffffffffffffffffffffffffffffff820362000ddd5762000ddc62000d6c565b5b600182019050919050565b7f4e487b7100000000000000000000000000000000000000000000000000000000600052602160045260246000fd5b7f5061796d656e7453706c69747465723a206163636f756e74206973207468652060008201527f7a65726f20616464726573730000000000000000000000000000000000000000602082015250565b600062000e75602c8362000c22565b915062000e828262000e17565b604082019050919050565b6000602082019050818103600083015262000ea88162000e66565b9050919050565b7f5061796d656e7453706c69747465723a20736861726573206172652030000000600082015250565b600062000ee7601d8362000c22565b915062000ef48262000eaf565b602082019050919050565b6000602082019050818103600083015262000f1a8162000ed8565b9050919050565b7f5061796d656e7453706c69747465723a206163636f756e7420616c726561647960008201527f2068617320736861726573000000000000000000000000000000000000000000602082015250565b600062000f7f602b8362000c22565b915062000f8c8262000f21565b604082019050919050565b6000602082019050818103600083015262000fb28162000f70565b9050919050565b600062000fc68262000975565b915062000fd38362000975565b925082820190508082111562000fee5762000fed62000d6c565b5b92915050565b600073ffffffffffffffffffffffffffffffffffffffff82169050919050565b6000620010218262000ff4565b9050919050565b620010338162001014565b82525050565b620010448162000975565b82525050565b600060408201905062001061600083018562001028565b62001070602083018462001039565b9392505050565b614f6c80620010876000396000f3fe6080604052600436106102135760003560e01c8063715018a611610118578063b66a0e5d116100a0578063ce7c2ac21161006f578063ce7c2ac214610801578063d79779b21461083e578063e33b7de31461087b578063e985e9c5146108a6578063f2fde38b146108e35761025a565b8063b66a0e5d14610747578063b88d4fde1461075e578063c45ac05014610787578063c87b56dd146107c45761025a565b806395d89b41116100e757806395d89b411461064e5780639852595c146106795780639afcef82146106b6578063a22cb465146106e1578063a3f8eace1461070a5761025a565b8063715018a6146105a45780638b83209b146105bb5780638d859f3e146105f85780638da5cb5b146106235761025a565b8063380d831b1161019b57806342842e0e1161016a57806342842e0e146104ad57806348b75044146104d6578063603f4d52146104ff5780636352211e1461052a57806370a08231146105675761025a565b8063380d831b146104125780633a98ef3914610429578063406072a914610454578063416e4cf7146104915761025a565b806319165587116101e2578063191655871461032d5780631dadae8e1461035657806323b872dd146103935780632eb4a7ab146103bc57806332cb6b0c146103e75761025a565b806301ffc9a71461025f57806306fdde031461029c578063081812fc146102c7578063095ea7b3146103045761025a565b3661025a577f6ef95f06320e7a25a04a175ca677b7052bdd97131872c2192525a629f51be77061024161090c565b3460405161025092919061316e565b60405180910390a1005b600080fd5b34801561026b57600080fd5b5061028660048036038101906102819190613203565b610914565b604051610293919061324b565b60405180910390f35b3480156102a857600080fd5b506102b16109f6565b6040516102be91906132f6565b60405180910390f35b3480156102d357600080fd5b506102ee60048036038101906102e99190613344565b610a88565b6040516102fb9190613371565b60405180910390f35b34801561031057600080fd5b5061032b600480360381019061032691906133b8565b610ace565b005b34801561033957600080fd5b50610354600480360381019061034f9190613436565b610be5565b005b34801561036257600080fd5b5061037d60048036038101906103789190613463565b610d64565b60405161038a919061354e565b60405180910390f35b34801561039f57600080fd5b506103ba60048036038101906103b59190613570565b610dfb565b005b3480156103c857600080fd5b506103d1610e5b565b6040516103de91906135dc565b60405180910390f35b3480156103f357600080fd5b506103fc610e61565b60405161040991906135f7565b60405180910390f35b34801561041e57600080fd5b50610427610e66565b005b34801561043557600080fd5b5061043e610eb6565b60405161044b91906135f7565b60405180910390f35b34801561046057600080fd5b5061047b60048036038101906104769190613650565b610ec0565b60405161048891906135f7565b60405180910390f35b6104ab60048036038101906104a691906136f5565b610f47565b005b3480156104b957600080fd5b506104d460048036038101906104cf9190613570565b61122c565b005b3480156104e257600080fd5b506104fd60048036038101906104f89190613650565b61124c565b005b34801561050b57600080fd5b5061051461145f565b60405161052191906137b9565b60405180910390f35b34801561053657600080fd5b50610551600480360381019061054c9190613344565b611472565b60405161055e9190613371565b60405180910390f35b34801561057357600080fd5b5061058e60048036038101906105899190613463565b6114f8565b60405161059b91906135f7565b60405180910390f35b3480156105b057600080fd5b506105b96115af565b005b3480156105c757600080fd5b506105e260048036038101906105dd9190613344565b6115c3565b6040516105ef9190613371565b60405180910390f35b34801561060457600080fd5b5061060d61160b565b60405161061a91906135f7565b60405180910390f35b34801561062f57600080fd5b50610638611616565b6040516106459190613371565b60405180910390f35b34801561065a57600080fd5b50610663611640565b60405161067091906132f6565b60405180910390f35b34801561068557600080fd5b506106a0600480360381019061069b9190613463565b6116d2565b6040516106ad91906135f7565b60405180910390f35b3480156106c257600080fd5b506106cb61171b565b6040516106d891906135f7565b60405180910390f35b3480156106ed57600080fd5b5061070860048036038101906107039190613800565b611720565b005b34801561071657600080fd5b50610731600480360381019061072c9190613463565b611736565b60405161073e91906135f7565b60405180910390f35b34801561075357600080fd5b5061075c611769565b005b34801561076a57600080fd5b5061078560048036038101906107809190613970565b61179e565b005b34801561079357600080fd5b506107ae60048036038101906107a99190613650565b611800565b6040516107bb91906135f7565b60405180910390f35b3480156107d057600080fd5b506107eb60048036038101906107e69190613344565b6118af565b6040516107f891906132f6565b60405180910390f35b34801561080d57600080fd5b5061082860048036038101906108239190613463565b611924565b60405161083591906135f7565b60405180910390f35b34801561084a57600080fd5b50610865600480360381019061086091906139f3565b61196d565b60405161087291906135f7565b60405180910390f35b34801561088757600080fd5b506108906119b6565b60405161089d91906135f7565b60405180910390f35b3480156108b257600080fd5b506108cd60048036038101906108c89190613a20565b6119c0565b6040516108da919061324b565b60405180910390f35b3480156108ef57600080fd5b5061090a60048036038101906109059190613463565b611a54565b005b600033905090565b60007f80ac58cd000000000000000000000000000000000000000000000000000000007bffffffffffffffffffffffffffffffffffffffffffffffffffffffff1916827bffffffffffffffffffffffffffffffffffffffffffffffffffffffff191614806109df57507f5b5e139f000000000000000000000000000000000000000000000000000000007bffffffffffffffffffffffffffffffffffffffffffffffffffffffff1916827bffffffffffffffffffffffffffffffffffffffffffffffffffffffff1916145b806109ef57506109ee82611ad7565b5b9050919050565b606060008054610a0590613a8f565b80601f0160208091040260200160405190810160405280929190818152602001828054610a3190613a8f565b8015610a7e5780601f10610a5357610100808354040283529160200191610a7e565b820191906000526020600020905b815481529060010190602001808311610a6157829003601f168201915b5050505050905090565b6000610a9382611b41565b6004600083815260200190815260200160002060009054906101000a900473ffffffffffffffffffffffffffffffffffffffff169050919050565b6000610ad982611472565b90508073ffffffffffffffffffffffffffffffffffffffff168373ffffffffffffffffffffffffffffffffffffffff1603610b49576040517f08c379a0000000000000000000000000000000000000000000000000000000008152600401610b4090613b32565b60405180910390fd5b8073ffffffffffffffffffffffffffffffffffffffff16610b6861090c565b73ffffffffffffffffffffffffffffffffffffffff161480610b975750610b9681610b9161090c565b6119c0565b5b610bd6576040517f08c379a0000000000000000000000000000000000000000000000000000000008152600401610bcd90613bc4565b60405180910390fd5b610be08383611b8c565b505050565b6000600960008373ffffffffffffffffffffffffffffffffffffffff1673ffffffffffffffffffffffffffffffffffffffff1681526020019081526020016000205411610c67576040517f08c379a0000000000000000000000000000000000000000000000000000000008152600401610c5e90613c56565b60405180910390fd5b6000610c7282611736565b905060008103610cb7576040517f08c379a0000000000000000000000000000000000000000000000000000000008152600401610cae90613ce8565b60405180910390fd5b8060086000828254610cc99190613d37565b9250508190555080600a60008473ffffffffffffffffffffffffffffffffffffffff1673ffffffffffffffffffffffffffffffffffffffff16815260200190815260200160002060008282540192505081905550610d278282611c45565b7fdf20fd1e76bc69d672e4814fafb2c449bba3a5369d8359adf9e05e6fde87b0568282604051610d58929190613dca565b60405180910390a15050565b6060601560008373ffffffffffffffffffffffffffffffffffffffff1673ffffffffffffffffffffffffffffffffffffffff168152602001908152602001600020805480602002602001604051908101604052809291908181526020018280548015610def57602002820191906000526020600020905b815481526020019060010190808311610ddb575b50505050509050919050565b610e0c610e0661090c565b82611d39565b610e4b576040517f08c379a0000000000000000000000000000000000000000000000000000000008152600401610e4290613e65565b60405180910390fd5b610e56838383611dce565b505050565b60165481565b60aa81565b610e6e6120c7565b6002601760006101000a81548160ff02191690836002811115610e9457610e93613742565b5b02179055506001601160006101000a81548160ff021916908315150217905550565b6000600754905090565b6000600d60008473ffffffffffffffffffffffffffffffffffffffff1673ffffffffffffffffffffffffffffffffffffffff16815260200190815260200160002060008373ffffffffffffffffffffffffffffffffffffffff1673ffffffffffffffffffffffffffffffffffffffff16815260200190815260200160002054905092915050565b610f4f612145565b3273ffffffffffffffffffffffffffffffffffffffff163373ffffffffffffffffffffffffffffffffffffffff1614610fbd576040517f08c379a0000000000000000000000000000000000000000000000000000000008152600401610fb490613ef7565b60405180910390fd5b60aa610fc9600f612194565b10611009576040517f08c379a000000000000000000000000000000000000000000000000000000000815260040161100090613f63565b60405180910390fd5b6002611014336114f8565b10611054576040517f08c379a000000000000000000000000000000000000000000000000000000000815260040161104b90613fcf565b60405180910390fd5b66038d7ea4c6800034101561109e576040517f08c379a00000000000000000000000000000000000000000000000000000000081526004016110959061403b565b60405180910390fd5b600160028111156110b2576110b1613742565b5b601760009054906101000a900460ff1660028111156110d4576110d3613742565b5b14611114576040517f08c379a000000000000000000000000000000000000000000000000000000000815260040161110b906140a7565b60405180910390fd5b61111f3383836121a2565b61115e576040517f08c379a000000000000000000000000000000000000000000000000000000000815260040161115590614139565b60405180910390fd5b6111713361116c600f612194565b612200565b61117b600f61221e565b6001601460003373ffffffffffffffffffffffffffffffffffffffff1673ffffffffffffffffffffffffffffffffffffffff16815260200190815260200160002060006101000a81548160ff0219169083151502179055506111dd600f612194565b3373ffffffffffffffffffffffffffffffffffffffff167f4cc0a9c4a99ddc700de1af2c9f916a7cbfdb71f14801ccff94061ad1ef8a804060405160405180910390a3611228612234565b5050565b6112478383836040518060200160405280600081525061179e565b505050565b6000600960008373ffffffffffffffffffffffffffffffffffffffff1673ffffffffffffffffffffffffffffffffffffffff16815260200190815260200160002054116112ce576040517f08c379a00000000000000000000000000000000000000000000000000000000081526004016112c590613c56565b60405180910390fd5b60006112da8383611800565b90506000810361131f576040517f08c379a000000000000000000000000000000000000000000000000000000000815260040161131690613ce8565b60405180910390fd5b80600c60008573ffffffffffffffffffffffffffffffffffffffff1673ffffffffffffffffffffffffffffffffffffffff168152602001908152602001600020600082825461136e9190613d37565b9250508190555080600d60008573ffffffffffffffffffffffffffffffffffffffff1673ffffffffffffffffffffffffffffffffffffffff16815260200190815260200160002060008473ffffffffffffffffffffffffffffffffffffffff1673ffffffffffffffffffffffffffffffffffffffff1681526020019081526020016000206000828254019250508190555061140a83838361223e565b8273ffffffffffffffffffffffffffffffffffffffff167f3be5b7a71e84ed12875d241991c70855ac5817d847039e17a9d895c1ceb0f18a838360405161145292919061316e565b60405180910390a2505050565b601760009054906101000a900460ff1681565b60008061147e836122c4565b9050600073ffffffffffffffffffffffffffffffffffffffff168173ffffffffffffffffffffffffffffffffffffffff16036114ef576040517f08c379a00000000000000000000000000000000000000000000000000000000081526004016114e6906141a5565b60405180910390fd5b80915050919050565b60008073ffffffffffffffffffffffffffffffffffffffff168273ffffffffffffffffffffffffffffffffffffffff1603611568576040517f08c379a000000000000000000000000000000000000000000000000000000000815260040161155f90614237565b60405180910390fd5b600360008373ffffffffffffffffffffffffffffffffffffffff1673ffffffffffffffffffffffffffffffffffffffff168152602001908152602001600020549050919050565b6115b76120c7565b6115c16000612301565b565b6000600b82815481106115d9576115d8614257565b5b9060005260206000200160009054906101000a900473ffffffffffffffffffffffffffffffffffffffff169050919050565b66038d7ea4c6800081565b6000600660009054906101000a900473ffffffffffffffffffffffffffffffffffffffff16905090565b60606001805461164f90613a8f565b80601f016020809104026020016040519081016040528092919081815260200182805461167b90613a8f565b80156116c85780601f1061169d576101008083540402835291602001916116c8565b820191906000526020600020905b8154815290600101906020018083116116ab57829003601f168201915b5050505050905090565b6000600a60008373ffffffffffffffffffffffffffffffffffffffff1673ffffffffffffffffffffffffffffffffffffffff168152602001908152602001600020549050919050565b600281565b61173261172b61090c565b83836123c7565b5050565b6000806117416119b6565b4761174c9190613d37565b9050611761838261175c866116d2565b612533565b915050919050565b6117716120c7565b6001601760006101000a81548160ff0219169083600281111561179757611796613742565b5b0217905550565b6117af6117a961090c565b83611d39565b6117ee576040517f08c379a00000000000000000000000000000000000000000000000000000000081526004016117e590613e65565b60405180910390fd5b6117fa848484846125a1565b50505050565b60008061180c8461196d565b8473ffffffffffffffffffffffffffffffffffffffff166370a08231306040518263ffffffff1660e01b81526004016118459190613371565b602060405180830381865afa158015611862573d6000803e3d6000fd5b505050506040513d601f19601f82011682018060405250810190611886919061429b565b6118909190613d37565b90506118a683826118a18787610ec0565b612533565b91505092915050565b606060001515601160009054906101000a900460ff161515036118f1576040516020016118db9061436b565b604051602081830303815290604052905061191f565b6118fa826125fd565b601060405160200161190d9291906144e1565b60405160208183030381529060405290505b919050565b6000600960008373ffffffffffffffffffffffffffffffffffffffff1673ffffffffffffffffffffffffffffffffffffffff168152602001908152602001600020549050919050565b6000600c60008373ffffffffffffffffffffffffffffffffffffffff1673ffffffffffffffffffffffffffffffffffffffff168152602001908152602001600020549050919050565b6000600854905090565b6000600560008473ffffffffffffffffffffffffffffffffffffffff1673ffffffffffffffffffffffffffffffffffffffff16815260200190815260200160002060008373ffffffffffffffffffffffffffffffffffffffff1673ffffffffffffffffffffffffffffffffffffffff16815260200190815260200160002060009054906101000a900460ff16905092915050565b611a5c6120c7565b600073ffffffffffffffffffffffffffffffffffffffff168173ffffffffffffffffffffffffffffffffffffffff1603611acb576040517f08c379a0000000000000000000000000000000000000000000000000000000008152600401611ac290614582565b60405180910390fd5b611ad481612301565b50565b60007f01ffc9a7000000000000000000000000000000000000000000000000000000007bffffffffffffffffffffffffffffffffffffffffffffffffffffffff1916827bffffffffffffffffffffffffffffffffffffffffffffffffffffffff1916149050919050565b611b4a816126cb565b611b89576040517f08c379a0000000000000000000000000000000000000000000000000000000008152600401611b80906141a5565b60405180910390fd5b50565b816004600083815260200190815260200160002060006101000a81548173ffffffffffffffffffffffffffffffffffffffff021916908373ffffffffffffffffffffffffffffffffffffffff160217905550808273ffffffffffffffffffffffffffffffffffffffff16611bff83611472565b73ffffffffffffffffffffffffffffffffffffffff167f8c5be1e5ebec7d5bd14f71427d1e84f3dd0314c0f7b2291e5b200ac8c7c3b92560405160405180910390a45050565b80471015611c88576040517f08c379a0000000000000000000000000000000000000000000000000000000008152600401611c7f906145ee565b60405180910390fd5b60008273ffffffffffffffffffffffffffffffffffffffff1682604051611cae9061463f565b60006040518083038185875af1925050503d8060008114611ceb576040519150601f19603f3d011682016040523d82523d6000602084013e611cf0565b606091505b5050905080611d34576040517f08c379a0000000000000000000000000000000000000000000000000000000008152600401611d2b906146c6565b60405180910390fd5b505050565b600080611d4583611472565b90508073ffffffffffffffffffffffffffffffffffffffff168473ffffffffffffffffffffffffffffffffffffffff161480611d875750611d8681856119c0565b5b80611dc557508373ffffffffffffffffffffffffffffffffffffffff16611dad84610a88565b73ffffffffffffffffffffffffffffffffffffffff16145b91505092915050565b8273ffffffffffffffffffffffffffffffffffffffff16611dee82611472565b73ffffffffffffffffffffffffffffffffffffffff1614611e44576040517f08c379a0000000000000000000000000000000000000000000000000000000008152600401611e3b90614758565b60405180910390fd5b600073ffffffffffffffffffffffffffffffffffffffff168273ffffffffffffffffffffffffffffffffffffffff1603611eb3576040517f08c379a0000000000000000000000000000000000000000000000000000000008152600401611eaa906147ea565b60405180910390fd5b611ec0838383600161270c565b8273ffffffffffffffffffffffffffffffffffffffff16611ee082611472565b73ffffffffffffffffffffffffffffffffffffffff1614611f36576040517f08c379a0000000000000000000000000000000000000000000000000000000008152600401611f2d90614758565b60405180910390fd5b6004600082815260200190815260200160002060006101000a81549073ffffffffffffffffffffffffffffffffffffffff02191690556001600360008573ffffffffffffffffffffffffffffffffffffffff1673ffffffffffffffffffffffffffffffffffffffff168152602001908152602001600020600082825403925050819055506001600360008473ffffffffffffffffffffffffffffffffffffffff1673ffffffffffffffffffffffffffffffffffffffff16815260200190815260200160002060008282540192505081905550816002600083815260200190815260200160002060006101000a81548173ffffffffffffffffffffffffffffffffffffffff021916908373ffffffffffffffffffffffffffffffffffffffff160217905550808273ffffffffffffffffffffffffffffffffffffffff168473ffffffffffffffffffffffffffffffffffffffff167fddf252ad1be2c89b69c2b068fc378daa952ba7f163c4a11628f55a4df523b3ef60405160405180910390a46120c28383836001612832565b505050565b6120cf61090c565b73ffffffffffffffffffffffffffffffffffffffff166120ed611616565b73ffffffffffffffffffffffffffffffffffffffff1614612143576040517f08c379a000000000000000000000000000000000000000000000000000000000815260040161213a90614856565b60405180910390fd5b565b6002600e540361218a576040517f08c379a0000000000000000000000000000000000000000000000000000000008152600401612181906148c2565b60405180910390fd5b6002600e81905550565b600081600001549050919050565b60006121f76121b085612838565b848480806020026020016040519081016040528093929190818152602001838360200280828437600081840152601f19601f82011690508083019250505050505050612868565b90509392505050565b61221a82826040518060200160405280600081525061287f565b5050565b6001816000016000828254019250508190555050565b6001600e81905550565b6122bf8363a9059cbb60e01b848460405160240161225d92919061316e565b604051602081830303815290604052907bffffffffffffffffffffffffffffffffffffffffffffffffffffffff19166020820180517bffffffffffffffffffffffffffffffffffffffffffffffffffffffff83818316178352505050506128da565b505050565b60006002600083815260200190815260200160002060009054906101000a900473ffffffffffffffffffffffffffffffffffffffff169050919050565b6000600660009054906101000a900473ffffffffffffffffffffffffffffffffffffffff16905081600660006101000a81548173ffffffffffffffffffffffffffffffffffffffff021916908373ffffffffffffffffffffffffffffffffffffffff1602179055508173ffffffffffffffffffffffffffffffffffffffff168173ffffffffffffffffffffffffffffffffffffffff167f8be0079c531659141344cd1fd0a4f28419497f9722a3daafe3b4186f6b6457e060405160405180910390a35050565b8173ffffffffffffffffffffffffffffffffffffffff168373ffffffffffffffffffffffffffffffffffffffff1603612435576040517f08c379a000000000000000000000000000000000000000000000000000000000815260040161242c9061492e565b60405180910390fd5b80600560008573ffffffffffffffffffffffffffffffffffffffff1673ffffffffffffffffffffffffffffffffffffffff16815260200190815260200160002060008473ffffffffffffffffffffffffffffffffffffffff1673ffffffffffffffffffffffffffffffffffffffff16815260200190815260200160002060006101000a81548160ff0219169083151502179055508173ffffffffffffffffffffffffffffffffffffffff168373ffffffffffffffffffffffffffffffffffffffff167f17307eab39ab6107e8899845ad3d59bd9653f200f220920489ca2b5937696c3183604051612526919061324b565b60405180910390a3505050565b600081600754600960008773ffffffffffffffffffffffffffffffffffffffff1673ffffffffffffffffffffffffffffffffffffffff1681526020019081526020016000205485612584919061494e565b61258e91906149bf565b61259891906149f0565b90509392505050565b6125ac848484611dce565b6125b8848484846129a1565b6125f7576040517f08c379a00000000000000000000000000000000000000000000000000000000081526004016125ee90614a96565b60405180910390fd5b50505050565b60606000600161260c84612b28565b01905060008167ffffffffffffffff81111561262b5761262a613845565b5b6040519080825280601f01601f19166020018201604052801561265d5781602001600182028036833780820191505090505b509050600082602001820190505b6001156126c0578080600190039150507f3031323334353637383961626364656600000000000000000000000000000000600a86061a8153600a85816126b4576126b3614990565b5b0494506000850361266b575b819350505050919050565b60008073ffffffffffffffffffffffffffffffffffffffff166126ed836122c4565b73ffffffffffffffffffffffffffffffffffffffff1614159050919050565b600181111561282c57600073ffffffffffffffffffffffffffffffffffffffff168473ffffffffffffffffffffffffffffffffffffffff16146127a05780600360008673ffffffffffffffffffffffffffffffffffffffff1673ffffffffffffffffffffffffffffffffffffffff168152602001908152602001600020600082825461279891906149f0565b925050819055505b600073ffffffffffffffffffffffffffffffffffffffff168373ffffffffffffffffffffffffffffffffffffffff161461282b5780600360008573ffffffffffffffffffffffffffffffffffffffff1673ffffffffffffffffffffffffffffffffffffffff16815260200190815260200160002060008282546128239190613d37565b925050819055505b5b50505050565b50505050565b60008160405160200161284b9190614afe565b604051602081830303815290604052805190602001209050919050565b60006128778260165485612c7b565b905092915050565b6128898383612c92565b61289660008484846129a1565b6128d5576040517f08c379a00000000000000000000000000000000000000000000000000000000081526004016128cc90614a96565b60405180910390fd5b505050565b600061293c826040518060400160405280602081526020017f5361666545524332303a206c6f772d6c6576656c2063616c6c206661696c65648152508573ffffffffffffffffffffffffffffffffffffffff16612eaf9092919063ffffffff16565b905060008151111561299c578080602001905181019061295c9190614b2e565b61299b576040517f08c379a000000000000000000000000000000000000000000000000000000000815260040161299290614bcd565b60405180910390fd5b5b505050565b60006129c28473ffffffffffffffffffffffffffffffffffffffff16612ec7565b15612b1b578373ffffffffffffffffffffffffffffffffffffffff1663150b7a026129eb61090c565b8786866040518563ffffffff1660e01b8152600401612a0d9493929190614c42565b6020604051808303816000875af1925050508015612a4957506040513d601f19601f82011682018060405250810190612a469190614ca3565b60015b612acb573d8060008114612a79576040519150601f19603f3d011682016040523d82523d6000602084013e612a7e565b606091505b506000815103612ac3576040517f08c379a0000000000000000000000000000000000000000000000000000000008152600401612aba90614a96565b60405180910390fd5b805181602001fd5b63150b7a0260e01b7bffffffffffffffffffffffffffffffffffffffffffffffffffffffff1916817bffffffffffffffffffffffffffffffffffffffffffffffffffffffff191614915050612b20565b600190505b949350505050565b600080600090507a184f03e93ff9f4daa797ed6e38ed64bf6a1f0100000000000000008310612b86577a184f03e93ff9f4daa797ed6e38ed64bf6a1f0100000000000000008381612b7c57612b7b614990565b5b0492506040810190505b6d04ee2d6d415b85acef81000000008310612bc3576d04ee2d6d415b85acef81000000008381612bb957612bb8614990565b5b0492506020810190505b662386f26fc100008310612bf257662386f26fc100008381612be857612be7614990565b5b0492506010810190505b6305f5e1008310612c1b576305f5e1008381612c1157612c10614990565b5b0492506008810190505b6127108310612c40576127108381612c3657612c35614990565b5b0492506004810190505b60648310612c635760648381612c5957612c58614990565b5b0492506002810190505b600a8310612c72576001810190505b80915050919050565b600082612c888584612eea565b1490509392505050565b600073ffffffffffffffffffffffffffffffffffffffff168273ffffffffffffffffffffffffffffffffffffffff1603612d01576040517f08c379a0000000000000000000000000000000000000000000000000000000008152600401612cf890614d1c565b60405180910390fd5b612d0a816126cb565b15612d4a576040517f08c379a0000000000000000000000000000000000000000000000000000000008152600401612d4190614d88565b60405180910390fd5b612d5860008383600161270c565b612d61816126cb565b15612da1576040517f08c379a0000000000000000000000000000000000000000000000000000000008152600401612d9890614d88565b60405180910390fd5b6001600360008473ffffffffffffffffffffffffffffffffffffffff1673ffffffffffffffffffffffffffffffffffffffff16815260200190815260200160002060008282540192505081905550816002600083815260200190815260200160002060006101000a81548173ffffffffffffffffffffffffffffffffffffffff021916908373ffffffffffffffffffffffffffffffffffffffff160217905550808273ffffffffffffffffffffffffffffffffffffffff16600073ffffffffffffffffffffffffffffffffffffffff167fddf252ad1be2c89b69c2b068fc378daa952ba7f163c4a11628f55a4df523b3ef60405160405180910390a4612eab600083836001612832565b5050565b6060612ebe8484600085612f40565b90509392505050565b6000808273ffffffffffffffffffffffffffffffffffffffff163b119050919050565b60008082905060005b8451811015612f3557612f2082868381518110612f1357612f12614257565b5b602002602001015161300d565b91508080612f2d90614da8565b915050612ef3565b508091505092915050565b606082471015612f85576040517f08c379a0000000000000000000000000000000000000000000000000000000008152600401612f7c90614e62565b60405180910390fd5b6000808673ffffffffffffffffffffffffffffffffffffffff168587604051612fae9190614eb3565b60006040518083038185875af1925050503d8060008114612feb576040519150601f19603f3d011682016040523d82523d6000602084013e612ff0565b606091505b509150915061300187838387613038565b92505050949350505050565b60008183106130255761302082846130ad565b613030565b61302f83836130ad565b5b905092915050565b6060831561309a5760008351036130925761305285612ec7565b613091576040517f08c379a000000000000000000000000000000000000000000000000000000000815260040161308890614f16565b60405180910390fd5b5b8290506130a5565b6130a483836130c4565b5b949350505050565b600082600052816020526040600020905092915050565b6000825111156130d75781518083602001fd5b806040517f08c379a000000000000000000000000000000000000000000000000000000000815260040161310b91906132f6565b60405180910390fd5b600073ffffffffffffffffffffffffffffffffffffffff82169050919050565b600061313f82613114565b9050919050565b61314f81613134565b82525050565b6000819050919050565b61316881613155565b82525050565b60006040820190506131836000830185613146565b613190602083018461315f565b9392505050565b6000604051905090565b600080fd5b600080fd5b60007fffffffff0000000000000000000000000000000000000000000000000000000082169050919050565b6131e0816131ab565b81146131eb57600080fd5b50565b6000813590506131fd816131d7565b92915050565b600060208284031215613219576132186131a1565b5b6000613227848285016131ee565b91505092915050565b60008115159050919050565b61324581613230565b82525050565b6000602082019050613260600083018461323c565b92915050565b600081519050919050565b600082825260208201905092915050565b60005b838110156132a0578082015181840152602081019050613285565b60008484015250505050565b6000601f19601f8301169050919050565b60006132c882613266565b6132d28185613271565b93506132e2818560208601613282565b6132eb816132ac565b840191505092915050565b6000602082019050818103600083015261331081846132bd565b905092915050565b61332181613155565b811461332c57600080fd5b50565b60008135905061333e81613318565b92915050565b60006020828403121561335a576133596131a1565b5b60006133688482850161332f565b91505092915050565b60006020820190506133866000830184613146565b92915050565b61339581613134565b81146133a057600080fd5b50565b6000813590506133b28161338c565b92915050565b600080604083850312156133cf576133ce6131a1565b5b60006133dd858286016133a3565b92505060206133ee8582860161332f565b9150509250929050565b600061340382613114565b9050919050565b613413816133f8565b811461341e57600080fd5b50565b6000813590506134308161340a565b92915050565b60006020828403121561344c5761344b6131a1565b5b600061345a84828501613421565b91505092915050565b600060208284031215613479576134786131a1565b5b6000613487848285016133a3565b91505092915050565b600081519050919050565b600082825260208201905092915050565b6000819050602082019050919050565b6134c581613155565b82525050565b60006134d783836134bc565b60208301905092915050565b6000602082019050919050565b60006134fb82613490565b613505818561349b565b9350613510836134ac565b8060005b8381101561354157815161352888826134cb565b9750613533836134e3565b925050600181019050613514565b5085935050505092915050565b6000602082019050818103600083015261356881846134f0565b905092915050565b600080600060608486031215613589576135886131a1565b5b6000613597868287016133a3565b93505060206135a8868287016133a3565b92505060406135b98682870161332f565b9150509250925092565b6000819050919050565b6135d6816135c3565b82525050565b60006020820190506135f160008301846135cd565b92915050565b600060208201905061360c600083018461315f565b92915050565b600061361d82613134565b9050919050565b61362d81613612565b811461363857600080fd5b50565b60008135905061364a81613624565b92915050565b60008060408385031215613667576136666131a1565b5b60006136758582860161363b565b9250506020613686858286016133a3565b9150509250929050565b600080fd5b600080fd5b600080fd5b60008083601f8401126136b5576136b4613690565b5b8235905067ffffffffffffffff8111156136d2576136d1613695565b5b6020830191508360208202830111156136ee576136ed61369a565b5b9250929050565b6000806020838503121561370c5761370b6131a1565b5b600083013567ffffffffffffffff81111561372a576137296131a6565b5b6137368582860161369f565b92509250509250929050565b7f4e487b7100000000000000000000000000000000000000000000000000000000600052602160045260246000fd5b6003811061378257613781613742565b5b50565b600081905061379382613771565b919050565b60006137a382613785565b9050919050565b6137b381613798565b82525050565b60006020820190506137ce60008301846137aa565b92915050565b6137dd81613230565b81146137e857600080fd5b50565b6000813590506137fa816137d4565b92915050565b60008060408385031215613817576138166131a1565b5b6000613825858286016133a3565b9250506020613836858286016137eb565b9150509250929050565b600080fd5b7f4e487b7100000000000000000000000000000000000000000000000000000000600052604160045260246000fd5b61387d826132ac565b810181811067ffffffffffffffff8211171561389c5761389b613845565b5b80604052505050565b60006138af613197565b90506138bb8282613874565b919050565b600067ffffffffffffffff8211156138db576138da613845565b5b6138e4826132ac565b9050602081019050919050565b82818337600083830152505050565b600061391361390e846138c0565b6138a5565b90508281526020810184848401111561392f5761392e613840565b5b61393a8482856138f1565b509392505050565b600082601f83011261395757613956613690565b5b8135613967848260208601613900565b91505092915050565b6000806000806080858703121561398a576139896131a1565b5b6000613998878288016133a3565b94505060206139a9878288016133a3565b93505060406139ba8782880161332f565b925050606085013567ffffffffffffffff8111156139db576139da6131a6565b5b6139e787828801613942565b91505092959194509250565b600060208284031215613a0957613a086131a1565b5b6000613a178482850161363b565b91505092915050565b60008060408385031215613a3757613a366131a1565b5b6000613a45858286016133a3565b9250506020613a56858286016133a3565b9150509250929050565b7f4e487b7100000000000000000000000000000000000000000000000000000000600052602260045260246000fd5b60006002820490506001821680613aa757607f821691505b602082108103613aba57613ab9613a60565b5b50919050565b7f4552433732313a20617070726f76616c20746f2063757272656e74206f776e6560008201527f7200000000000000000000000000000000000000000000000000000000000000602082015250565b6000613b1c602183613271565b9150613b2782613ac0565b604082019050919050565b60006020820190508181036000830152613b4b81613b0f565b9050919050565b7f4552433732313a20617070726f76652063616c6c6572206973206e6f7420746f60008201527f6b656e206f776e6572206f7220617070726f76656420666f7220616c6c000000602082015250565b6000613bae603d83613271565b9150613bb982613b52565b604082019050919050565b60006020820190508181036000830152613bdd81613ba1565b9050919050565b7f5061796d656e7453706c69747465723a206163636f756e7420686173206e6f2060008201527f7368617265730000000000000000000000000000000000000000000000000000602082015250565b6000613c40602683613271565b9150613c4b82613be4565b604082019050919050565b60006020820190508181036000830152613c6f81613c33565b9050919050565b7f5061796d656e7453706c69747465723a206163636f756e74206973206e6f742060008201527f647565207061796d656e74000000000000000000000000000000000000000000602082015250565b6000613cd2602b83613271565b9150613cdd82613c76565b604082019050919050565b60006020820190508181036000830152613d0181613cc5565b9050919050565b7f4e487b7100000000000000000000000000000000000000000000000000000000600052601160045260246000fd5b6000613d4282613155565b9150613d4d83613155565b9250828201905080821115613d6557613d64613d08565b5b92915050565b6000819050919050565b6000613d90613d8b613d8684613114565b613d6b565b613114565b9050919050565b6000613da282613d75565b9050919050565b6000613db482613d97565b9050919050565b613dc481613da9565b82525050565b6000604082019050613ddf6000830185613dbb565b613dec602083018461315f565b9392505050565b7f4552433732313a2063616c6c6572206973206e6f7420746f6b656e206f776e6560008201527f72206f7220617070726f76656400000000000000000000000000000000000000602082015250565b6000613e4f602d83613271565b9150613e5a82613df3565b604082019050919050565b60006020820190508181036000830152613e7e81613e42565b9050919050565b7f536f7272792c20636f6e74726163747320617265206e6f7420616c6c6f77656460008201527f20746f20696e7465726163742077697468207468697320636f6e747261637400602082015250565b6000613ee1603f83613271565b9150613eec82613e85565b604082019050919050565b60006020820190508181036000830152613f1081613ed4565b9050919050565b7f4d617820737570706c7920726561636865640000000000000000000000000000600082015250565b6000613f4d601283613271565b9150613f5882613f17565b602082019050919050565b60006020820190508181036000830152613f7c81613f40565b9050919050565b7f596f75206861766520616c7265616479206d696e7465642032204e4654730000600082015250565b6000613fb9601e83613271565b9150613fc482613f83565b602082019050919050565b60006020820190508181036000830152613fe881613fac565b9050919050565b7f4e6f7420656e6f756768204554482073656e7400000000000000000000000000600082015250565b6000614025601383613271565b915061403082613fef565b602082019050919050565b6000602082019050818103600083015261405481614018565b9050919050565b7f53616c6520686173206e6f742073746172746564207965740000000000000000600082015250565b6000614091601883613271565b915061409c8261405b565b602082019050919050565b600060208201905081810360008301526140c081614084565b9050919050565b7f596f7520617265206e6f742077686974656c697374656420746f20627579207460008201527f686973204e465400000000000000000000000000000000000000000000000000602082015250565b6000614123602783613271565b915061412e826140c7565b604082019050919050565b6000602082019050818103600083015261415281614116565b9050919050565b7f4552433732313a20696e76616c696420746f6b656e2049440000000000000000600082015250565b600061418f601883613271565b915061419a82614159565b602082019050919050565b600060208201905081810360008301526141be81614182565b9050919050565b7f4552433732313a2061646472657373207a65726f206973206e6f74206120766160008201527f6c6964206f776e65720000000000000000000000000000000000000000000000602082015250565b6000614221602983613271565b915061422c826141c5565b604082019050919050565b6000602082019050818103600083015261425081614214565b9050919050565b7f4e487b7100000000000000000000000000000000000000000000000000000000600052603260045260246000fd5b60008151905061429581613318565b92915050565b6000602082840312156142b1576142b06131a1565b5b60006142bf84828501614286565b91505092915050565b600081905092915050565b7f68747470733a2f2f676174657761792e70696e6174612e636c6f75642f69706660008201527f732f516d646746777048413853514b346d48366377573454764268695a71513260208201527f524e626d467259445567397071724d6a2f68696464656e2e6a736f6e00000000604082015250565b6000614355605c836142c8565b9150614360826142d3565b605c82019050919050565b600061437682614348565b9150819050919050565b7f68747470733a2f2f6e667473746f726167652e6c696e6b2f697066732f62616660008201527f7962656962646e66756a6d61636d6c6f62786a756f616d66747165706d7a346160208201527f6979706c79756974367a32633670716735776f63706562712f00000000000000604082015250565b60006144026059836142c8565b915061440d82614380565b605982019050919050565b600061442382613266565b61442d81856142c8565b935061443d818560208601613282565b80840191505092915050565b60008190508160005260206000209050919050565b6000815461446b81613a8f565b61447581866142c8565b9450600182166000811461449057600181146144a5576144d8565b60ff19831686528115158202860193506144d8565b6144ae85614449565b60005b838110156144d0578154818901526001820191506020810190506144b1565b838801955050505b50505092915050565b60006144ec826143f5565b91506144f88285614418565b9150614504828461445e565b91508190509392505050565b7f4f776e61626c653a206e6577206f776e657220697320746865207a65726f206160008201527f6464726573730000000000000000000000000000000000000000000000000000602082015250565b600061456c602683613271565b915061457782614510565b604082019050919050565b6000602082019050818103600083015261459b8161455f565b9050919050565b7f416464726573733a20696e73756666696369656e742062616c616e6365000000600082015250565b60006145d8601d83613271565b91506145e3826145a2565b602082019050919050565b60006020820190508181036000830152614607816145cb565b9050919050565b600081905092915050565b50565b600061462960008361460e565b915061463482614619565b600082019050919050565b600061464a8261461c565b9150819050919050565b7f416464726573733a20756e61626c6520746f2073656e642076616c75652c207260008201527f6563697069656e74206d61792068617665207265766572746564000000000000602082015250565b60006146b0603a83613271565b91506146bb82614654565b604082019050919050565b600060208201905081810360008301526146df816146a3565b9050919050565b7f4552433732313a207472616e736665722066726f6d20696e636f72726563742060008201527f6f776e6572000000000000000000000000000000000000000000000000000000602082015250565b6000614742602583613271565b915061474d826146e6565b604082019050919050565b6000602082019050818103600083015261477181614735565b9050919050565b7f4552433732313a207472616e7366657220746f20746865207a65726f2061646460008201527f7265737300000000000000000000000000000000000000000000000000000000602082015250565b60006147d4602483613271565b91506147df82614778565b604082019050919050565b60006020820190508181036000830152614803816147c7565b9050919050565b7f4f776e61626c653a2063616c6c6572206973206e6f7420746865206f776e6572600082015250565b6000614840602083613271565b915061484b8261480a565b602082019050919050565b6000602082019050818103600083015261486f81614833565b9050919050565b7f5265656e7472616e637947756172643a207265656e7472616e742063616c6c00600082015250565b60006148ac601f83613271565b91506148b782614876565b602082019050919050565b600060208201905081810360008301526148db8161489f565b9050919050565b7f4552433732313a20617070726f766520746f2063616c6c657200000000000000600082015250565b6000614918601983613271565b9150614923826148e2565b602082019050919050565b600060208201905081810360008301526149478161490b565b9050919050565b600061495982613155565b915061496483613155565b925082820261497281613155565b9150828204841483151761498957614988613d08565b5b5092915050565b7f4e487b7100000000000000000000000000000000000000000000000000000000600052601260045260246000fd5b60006149ca82613155565b91506149d583613155565b9250826149e5576149e4614990565b5b828204905092915050565b60006149fb82613155565b9150614a0683613155565b9250828203905081811115614a1e57614a1d613d08565b5b92915050565b7f4552433732313a207472616e7366657220746f206e6f6e20455243373231526560008201527f63656976657220696d706c656d656e7465720000000000000000000000000000602082015250565b6000614a80603283613271565b9150614a8b82614a24565b604082019050919050565b60006020820190508181036000830152614aaf81614a73565b9050919050565b60008160601b9050919050565b6000614ace82614ab6565b9050919050565b6000614ae082614ac3565b9050919050565b614af8614af382613134565b614ad5565b82525050565b6000614b0a8284614ae7565b60148201915081905092915050565b600081519050614b28816137d4565b92915050565b600060208284031215614b4457614b436131a1565b5b6000614b5284828501614b19565b91505092915050565b7f5361666545524332303a204552433230206f7065726174696f6e20646964206e60008201527f6f74207375636365656400000000000000000000000000000000000000000000602082015250565b6000614bb7602a83613271565b9150614bc282614b5b565b604082019050919050565b60006020820190508181036000830152614be681614baa565b9050919050565b600081519050919050565b600082825260208201905092915050565b6000614c1482614bed565b614c1e8185614bf8565b9350614c2e818560208601613282565b614c37816132ac565b840191505092915050565b6000608082019050614c576000830187613146565b614c646020830186613146565b614c71604083018561315f565b8181036060830152614c838184614c09565b905095945050505050565b600081519050614c9d816131d7565b92915050565b600060208284031215614cb957614cb86131a1565b5b6000614cc784828501614c8e565b91505092915050565b7f4552433732313a206d696e7420746f20746865207a65726f2061646472657373600082015250565b6000614d06602083613271565b9150614d1182614cd0565b602082019050919050565b60006020820190508181036000830152614d3581614cf9565b9050919050565b7f4552433732313a20746f6b656e20616c7265616479206d696e74656400000000600082015250565b6000614d72601c83613271565b9150614d7d82614d3c565b602082019050919050565b60006020820190508181036000830152614da181614d65565b9050919050565b6000614db382613155565b91507fffffffffffffffffffffffffffffffffffffffffffffffffffffffffffffffff8203614de557614de4613d08565b5b600182019050919050565b7f416464726573733a20696e73756666696369656e742062616c616e636520666f60008201527f722063616c6c0000000000000000000000000000000000000000000000000000602082015250565b6000614e4c602683613271565b9150614e5782614df0565b604082019050919050565b60006020820190508181036000830152614e7b81614e3f565b9050919050565b6000614e8d82614bed565b614e97818561460e565b9350614ea7818560208601613282565b80840191505092915050565b6000614ebf8284614e82565b915081905092915050565b7f416464726573733a2063616c6c20746f206e6f6e2d636f6e7472616374000000600082015250565b6000614f00601d83613271565b9150614f0b82614eca565b602082019050919050565b60006020820190508181036000830152614f2f81614ef3565b905091905056fea26469706673582212207fdc1f43a9c334a8995b466a4edfce0f1a83fc6f94ae7f81fd4ed2d6bad8752464736f6c63430008110033",
  "immutableReferences": {},
  "source": "// Contract with openzeppelin ownable, String, Counters, Ownable, ERC721,PaymentSplitter and ReentrancyGuard\n// SPDX-License-Identifier: MIT\npragma solidity 0.8.17;\n\nimport '@openzeppelin/contracts/utils/Strings.sol';\nimport '@openzeppelin/contracts/utils/Counters.sol';\nimport '@openzeppelin/contracts/access/Ownable.sol';\nimport '@openzeppelin/contracts/token/ERC721/ERC721.sol';\nimport '@openzeppelin/contracts/finance/PaymentSplitter.sol';\nimport '@openzeppelin/contracts/security/ReentrancyGuard.sol';\nimport '@openzeppelin/contracts/utils/cryptography/MerkleProof.sol';\n\ncontract WBC_NFT is ERC721, Ownable, PaymentSplitter, ReentrancyGuard {\n    // Counter for tokenIds\n    using Counters for Counters.Counter;\n    Counters.Counter private _tokenIds;\n    // Max Supply\n    uint256 public constant MAX_SUPPLY = 170;\n    // Max Nfts per address\n    uint256 public constant MAX_NFTS_PER_ADDRESS = 2;\n    // Price\n    uint256 public constant PRICE = 0.001 ether;\n    // Extension of the base URI\n    string private extension = '.json';\n    // boolean to know if it's revealed\n    bool private _isRevealed = false;\n    // Members of the team to receive the payments\n    address[] private _teamMembers = [\n        0xA65342E5a81Cab20595A8e4F73758350056Ac5C1,\n        0x6D80Ab5FBbb46421B8CA1ee35A4b1150BeB22E96\n    ];\n    // Shares of the team members\n    uint256[] private _teamShares = [50, 50];\n    // mapping address bool to check if address has minted\n    mapping(address => bool) private _hasMinted;\n    // mapping of all the NFTs by address\n    mapping(address => uint256[]) private _nftsByAddress;\n\n    // EVENTS\n    /**\n     * @dev Event to emit when the NFT is minted\n     */\n    event NFTMinted(address indexed to, uint256 indexed tokenId);\n\n    // Merkle Root\n    bytes32 public merkleRoot;\n\n    /**\n     * @dev Enum of workflow steps for the sale\n     */\n    enum SaleState {\n        NotStarted,\n        Started,\n        Ended\n    }\n    /**\n     * @dev SaleState of the sale\n     */\n    SaleState public saleState;\n\n    /**\n     * @dev Contrusctor of the contract with the name, symbol and the team members and shares with Merkle Root\n     */\n    constructor(bytes32 _MerkleRoot)\n        ERC721('WBC NFT', 'WBC')\n        PaymentSplitter(_teamMembers, _teamShares)\n    {\n        merkleRoot = _MerkleRoot;\n        saleState = SaleState.NotStarted;\n    }\n\n    /**\n     * @dev Modifier to check if the msg.sender has not a contract\n     */\n    modifier notContract() {\n        require(\n            msg.sender == tx.origin,\n            'Sorry, contracts are not allowed to interact with this contract'\n        );\n        _;\n    }\n\n    /**\n     * @dev verify the proof of the merkle tree\n     */\n    function _verify(bytes32 leaf, bytes32[] memory proof)\n        internal\n        view\n        returns (bool)\n    {\n        return MerkleProof.verify(proof, merkleRoot, leaf);\n    }\n\n    /**\n     * @dev create the leaf of the merkle tree\n     */\n    function _leaf(address account) internal pure returns (bytes32) {\n        return keccak256(abi.encodePacked(account));\n    }\n\n    /**\n     * @dev\n     */\n    function isWhiteListed(address account, bytes32[] calldata proof)\n        internal\n        view\n        returns (bool)\n    {\n        return _verify(_leaf(account), proof);\n    }\n\n    /**\n     * @dev Mint NFTs for the msg.sender if the conditions are met and the msg.value is correct\n     * @param _proof The proof of the merkle tree\n     */\n    function mint_nft(bytes32[] calldata _proof)\n        public\n        payable\n        nonReentrant\n        notContract\n    {\n        // Check if the max supply has been reached\n        require(_tokenIds.current() < MAX_SUPPLY, 'Max supply reached');\n        // check if balance of msg.sender is less than 2\n        require(\n            balanceOf(msg.sender) < MAX_NFTS_PER_ADDRESS,\n            'You have already minted 2 NFTs'\n        );\n        // Check if the msg.sender send enough ETH to buy the NFT\n        require(msg.value >= PRICE, 'Not enough ETH sent');\n        // Check if the sale has started\n        require(saleState == SaleState.Started, 'Sale has not started yet');\n        // Require the msg.sender to be whitelisted\n        require(\n            isWhiteListed(msg.sender, _proof),\n            'You are not whitelisted to buy this NFT'\n        );\n        // Mint the NFT\n        _safeMint(msg.sender, _tokenIds.current());\n        // Increment the tokenIds\n        _tokenIds.increment();\n        // Set the address to true\n        _hasMinted[msg.sender] = true;\n        // Event to emit when the NFT is minted\n        emit NFTMinted(msg.sender, _tokenIds.current());\n    }\n\n    /**\n        @dev This tokenURI function is used to change the base URI when it's revealed\n        */\n    function tokenURI(uint256 tokenId)\n        public\n        view\n        override\n        returns (string memory)\n    {\n        if (_isRevealed == false) {\n            return\n                string(\n                    abi.encodePacked(\n                        'https://gateway.pinata.cloud/ipfs/QmdgFwpHA8SQK4mH6cwW4TvBhiZqQ2RNbmFrYDUg9pqrMj/hidden.json'\n                    )\n                );\n        } else {\n            return\n                string(\n                    abi.encodePacked(\n                        'https://nftstorage.link/ipfs/bafybeibdnfujmacmlobxjuoamftqepmz4aiyplyuit6z2c6pqg5wocpebq/',\n                        Strings.toString(tokenId),\n                        extension\n                    )\n                );\n        }\n    }\n\n    /**\n     * @dev get the NFTs by address\n     */\n    function getNFTsByAddress(address _address)\n        public\n        view\n        returns (uint256[] memory)\n    {\n        return _nftsByAddress[_address];\n    }\n\n    // SESSION GESTION\n    /**\n     * @dev Start the sale\n     */\n    function startSale() public onlyOwner {\n        saleState = SaleState.Started;\n    }\n\n    /**\n     * @dev End the sale\n     */\n    function endSale() public onlyOwner {\n        saleState = SaleState.Ended;\n        // reveal the NFTs\n        _isRevealed = true;\n    }\n}\n",
  "sourcePath": "/Users/gregorycorin/Desktop/Alyra/wbtc-launchpad/truffle/contracts/WBC_NFT.sol",
  "compiler": {
    "name": "solc",
    "version": "0.8.17+commit.8df45f5f.Emscripten.clang"
  },
  "schemaVersion": "3.4.10",
  "updatedAt": "2022-12-12T06:44:28.935Z",
  "networkType": "ethereum",
  "devdoc": {
    "events": {
      "NFTMinted(address,uint256)": {
        "details": "Event to emit when the NFT is minted"
      }
    },
    "kind": "dev",
    "methods": {
      "approve(address,uint256)": {
        "details": "See {IERC721-approve}."
      },
      "balanceOf(address)": {
        "details": "See {IERC721-balanceOf}."
      },
      "constructor": {
        "details": "Contrusctor of the contract with the name, symbol and the team members and shares with Merkle Root"
      },
      "endSale()": {
        "details": "End the sale"
      },
      "getApproved(uint256)": {
        "details": "See {IERC721-getApproved}."
      },
      "getNFTsByAddress(address)": {
        "details": "get the NFTs by address"
      },
      "isApprovedForAll(address,address)": {
        "details": "See {IERC721-isApprovedForAll}."
      },
      "mint_nft(bytes32[])": {
        "details": "Mint NFTs for the msg.sender if the conditions are met and the msg.value is correct",
        "params": {
          "_proof": "The proof of the merkle tree"
        }
      },
      "name()": {
        "details": "See {IERC721Metadata-name}."
      },
      "owner()": {
        "details": "Returns the address of the current owner."
      },
      "ownerOf(uint256)": {
        "details": "See {IERC721-ownerOf}."
      },
      "payee(uint256)": {
        "details": "Getter for the address of the payee number `index`."
      },
      "releasable(address)": {
        "details": "Getter for the amount of payee's releasable Ether."
      },
      "releasable(address,address)": {
        "details": "Getter for the amount of payee's releasable `token` tokens. `token` should be the address of an IERC20 contract."
      },
      "release(address)": {
        "details": "Triggers a transfer to `account` of the amount of Ether they are owed, according to their percentage of the total shares and their previous withdrawals."
      },
      "release(address,address)": {
        "details": "Triggers a transfer to `account` of the amount of `token` tokens they are owed, according to their percentage of the total shares and their previous withdrawals. `token` must be the address of an IERC20 contract."
      },
      "released(address)": {
        "details": "Getter for the amount of Ether already released to a payee."
      },
      "released(address,address)": {
        "details": "Getter for the amount of `token` tokens already released to a payee. `token` should be the address of an IERC20 contract."
      },
      "renounceOwnership()": {
        "details": "Leaves the contract without owner. It will not be possible to call `onlyOwner` functions anymore. Can only be called by the current owner. NOTE: Renouncing ownership will leave the contract without an owner, thereby removing any functionality that is only available to the owner."
      },
      "safeTransferFrom(address,address,uint256)": {
        "details": "See {IERC721-safeTransferFrom}."
      },
      "safeTransferFrom(address,address,uint256,bytes)": {
        "details": "See {IERC721-safeTransferFrom}."
      },
      "setApprovalForAll(address,bool)": {
        "details": "See {IERC721-setApprovalForAll}."
      },
      "shares(address)": {
        "details": "Getter for the amount of shares held by an account."
      },
      "startSale()": {
        "details": "Start the sale"
      },
      "supportsInterface(bytes4)": {
        "details": "See {IERC165-supportsInterface}."
      },
      "symbol()": {
        "details": "See {IERC721Metadata-symbol}."
      },
      "tokenURI(uint256)": {
        "details": "This tokenURI function is used to change the base URI when it's revealed"
      },
      "totalReleased()": {
        "details": "Getter for the total amount of Ether already released."
      },
      "totalReleased(address)": {
        "details": "Getter for the total amount of `token` already released. `token` should be the address of an IERC20 contract."
      },
      "totalShares()": {
        "details": "Getter for the total shares held by payees."
      },
      "transferFrom(address,address,uint256)": {
        "details": "See {IERC721-transferFrom}."
      },
      "transferOwnership(address)": {
        "details": "Transfers ownership of the contract to a new account (`newOwner`). Can only be called by the current owner."
      }
    },
    "stateVariables": {
      "saleState": {
        "details": "SaleState of the sale"
      }
    },
    "version": 1
  },
  "userdoc": {
    "kind": "user",
    "methods": {},
    "version": 1
  }
}