{
  "contractName": "WBC_NFT",
  "abi": [
    {
      "inputs": [
        {
          "internalType": "bytes32",
          "name": "_MerkleRoot",
          "type": "bytes32"
        }
      ],
      "stateMutability": "nonpayable",
      "type": "constructor"
    },
    {
      "anonymous": false,
      "inputs": [
        {
          "indexed": true,
          "internalType": "address",
          "name": "owner",
          "type": "address"
        },
        {
          "indexed": true,
          "internalType": "address",
          "name": "approved",
          "type": "address"
        },
        {
          "indexed": true,
          "internalType": "uint256",
          "name": "tokenId",
          "type": "uint256"
        }
      ],
      "name": "Approval",
      "type": "event"
    },
    {
      "anonymous": false,
      "inputs": [
        {
          "indexed": true,
          "internalType": "address",
          "name": "owner",
          "type": "address"
        },
        {
          "indexed": true,
          "internalType": "address",
          "name": "operator",
          "type": "address"
        },
        {
          "indexed": false,
          "internalType": "bool",
          "name": "approved",
          "type": "bool"
        }
      ],
      "name": "ApprovalForAll",
      "type": "event"
    },
    {
      "anonymous": false,
      "inputs": [
        {
          "indexed": true,
          "internalType": "contract IERC20",
          "name": "token",
          "type": "address"
        },
        {
          "indexed": false,
          "internalType": "address",
          "name": "to",
          "type": "address"
        },
        {
          "indexed": false,
          "internalType": "uint256",
          "name": "amount",
          "type": "uint256"
        }
      ],
      "name": "ERC20PaymentReleased",
      "type": "event"
    },
    {
      "anonymous": false,
      "inputs": [
        {
          "indexed": true,
          "internalType": "address",
          "name": "to",
          "type": "address"
        },
        {
          "indexed": true,
          "internalType": "uint256",
          "name": "tokenId",
          "type": "uint256"
        }
      ],
      "name": "NFTMinted",
      "type": "event"
    },
    {
      "anonymous": false,
      "inputs": [
        {
          "indexed": true,
          "internalType": "address",
          "name": "previousOwner",
          "type": "address"
        },
        {
          "indexed": true,
          "internalType": "address",
          "name": "newOwner",
          "type": "address"
        }
      ],
      "name": "OwnershipTransferred",
      "type": "event"
    },
    {
      "anonymous": false,
      "inputs": [
        {
          "indexed": false,
          "internalType": "address",
          "name": "account",
          "type": "address"
        },
        {
          "indexed": false,
          "internalType": "uint256",
          "name": "shares",
          "type": "uint256"
        }
      ],
      "name": "PayeeAdded",
      "type": "event"
    },
    {
      "anonymous": false,
      "inputs": [
        {
          "indexed": false,
          "internalType": "address",
          "name": "from",
          "type": "address"
        },
        {
          "indexed": false,
          "internalType": "uint256",
          "name": "amount",
          "type": "uint256"
        }
      ],
      "name": "PaymentReceived",
      "type": "event"
    },
    {
      "anonymous": false,
      "inputs": [
        {
          "indexed": false,
          "internalType": "address",
          "name": "to",
          "type": "address"
        },
        {
          "indexed": false,
          "internalType": "uint256",
          "name": "amount",
          "type": "uint256"
        }
      ],
      "name": "PaymentReleased",
      "type": "event"
    },
    {
      "anonymous": false,
      "inputs": [
        {
          "indexed": true,
          "internalType": "address",
          "name": "from",
          "type": "address"
        },
        {
          "indexed": true,
          "internalType": "address",
          "name": "to",
          "type": "address"
        },
        {
          "indexed": true,
          "internalType": "uint256",
          "name": "tokenId",
          "type": "uint256"
        }
      ],
      "name": "Transfer",
      "type": "event"
    },
    {
      "inputs": [],
      "name": "MAX_NFTS_PER_ADDRESS",
      "outputs": [
        {
          "internalType": "uint256",
          "name": "",
          "type": "uint256"
        }
      ],
      "stateMutability": "view",
      "type": "function",
      "constant": true
    },
    {
      "inputs": [],
      "name": "MAX_SUPPLY",
      "outputs": [
        {
          "internalType": "uint256",
          "name": "",
          "type": "uint256"
        }
      ],
      "stateMutability": "view",
      "type": "function",
      "constant": true
    },
    {
      "inputs": [],
      "name": "PRICE",
      "outputs": [
        {
          "internalType": "uint256",
          "name": "",
          "type": "uint256"
        }
      ],
      "stateMutability": "view",
      "type": "function",
      "constant": true
    },
    {
      "inputs": [],
      "name": "TOTAL_SUPPLY",
      "outputs": [
        {
          "internalType": "uint256",
          "name": "",
          "type": "uint256"
        }
      ],
      "stateMutability": "view",
      "type": "function",
      "constant": true
    },
    {
      "inputs": [
        {
          "internalType": "address",
          "name": "to",
          "type": "address"
        },
        {
          "internalType": "uint256",
          "name": "tokenId",
          "type": "uint256"
        }
      ],
      "name": "approve",
      "outputs": [],
      "stateMutability": "nonpayable",
      "type": "function"
    },
    {
      "inputs": [
        {
          "internalType": "address",
          "name": "owner",
          "type": "address"
        }
      ],
      "name": "balanceOf",
      "outputs": [
        {
          "internalType": "uint256",
          "name": "",
          "type": "uint256"
        }
      ],
      "stateMutability": "view",
      "type": "function",
      "constant": true
    },
    {
      "inputs": [
        {
          "internalType": "uint256",
          "name": "tokenId",
          "type": "uint256"
        }
      ],
      "name": "getApproved",
      "outputs": [
        {
          "internalType": "address",
          "name": "",
          "type": "address"
        }
      ],
      "stateMutability": "view",
      "type": "function",
      "constant": true
    },
    {
      "inputs": [
        {
          "internalType": "address",
          "name": "owner",
          "type": "address"
        },
        {
          "internalType": "address",
          "name": "operator",
          "type": "address"
        }
      ],
      "name": "isApprovedForAll",
      "outputs": [
        {
          "internalType": "bool",
          "name": "",
          "type": "bool"
        }
      ],
      "stateMutability": "view",
      "type": "function",
      "constant": true
    },
    {
      "inputs": [],
      "name": "merkleRoot",
      "outputs": [
        {
          "internalType": "bytes32",
          "name": "",
          "type": "bytes32"
        }
      ],
      "stateMutability": "view",
      "type": "function",
      "constant": true
    },
    {
      "inputs": [],
      "name": "name",
      "outputs": [
        {
          "internalType": "string",
          "name": "",
          "type": "string"
        }
      ],
      "stateMutability": "view",
      "type": "function",
      "constant": true
    },
    {
      "inputs": [],
      "name": "owner",
      "outputs": [
        {
          "internalType": "address",
          "name": "",
          "type": "address"
        }
      ],
      "stateMutability": "view",
      "type": "function",
      "constant": true
    },
    {
      "inputs": [
        {
          "internalType": "uint256",
          "name": "tokenId",
          "type": "uint256"
        }
      ],
      "name": "ownerOf",
      "outputs": [
        {
          "internalType": "address",
          "name": "",
          "type": "address"
        }
      ],
      "stateMutability": "view",
      "type": "function",
      "constant": true
    },
    {
      "inputs": [
        {
          "internalType": "uint256",
          "name": "index",
          "type": "uint256"
        }
      ],
      "name": "payee",
      "outputs": [
        {
          "internalType": "address",
          "name": "",
          "type": "address"
        }
      ],
      "stateMutability": "view",
      "type": "function",
      "constant": true
    },
    {
      "inputs": [
        {
          "internalType": "address",
          "name": "account",
          "type": "address"
        }
      ],
      "name": "releasable",
      "outputs": [
        {
          "internalType": "uint256",
          "name": "",
          "type": "uint256"
        }
      ],
      "stateMutability": "view",
      "type": "function",
      "constant": true
    },
    {
      "inputs": [
        {
          "internalType": "contract IERC20",
          "name": "token",
          "type": "address"
        },
        {
          "internalType": "address",
          "name": "account",
          "type": "address"
        }
      ],
      "name": "releasable",
      "outputs": [
        {
          "internalType": "uint256",
          "name": "",
          "type": "uint256"
        }
      ],
      "stateMutability": "view",
      "type": "function",
      "constant": true
    },
    {
      "inputs": [
        {
          "internalType": "address payable",
          "name": "account",
          "type": "address"
        }
      ],
      "name": "release",
      "outputs": [],
      "stateMutability": "nonpayable",
      "type": "function"
    },
    {
      "inputs": [
        {
          "internalType": "contract IERC20",
          "name": "token",
          "type": "address"
        },
        {
          "internalType": "address",
          "name": "account",
          "type": "address"
        }
      ],
      "name": "release",
      "outputs": [],
      "stateMutability": "nonpayable",
      "type": "function"
    },
    {
      "inputs": [
        {
          "internalType": "contract IERC20",
          "name": "token",
          "type": "address"
        },
        {
          "internalType": "address",
          "name": "account",
          "type": "address"
        }
      ],
      "name": "released",
      "outputs": [
        {
          "internalType": "uint256",
          "name": "",
          "type": "uint256"
        }
      ],
      "stateMutability": "view",
      "type": "function",
      "constant": true
    },
    {
      "inputs": [
        {
          "internalType": "address",
          "name": "account",
          "type": "address"
        }
      ],
      "name": "released",
      "outputs": [
        {
          "internalType": "uint256",
          "name": "",
          "type": "uint256"
        }
      ],
      "stateMutability": "view",
      "type": "function",
      "constant": true
    },
    {
      "inputs": [],
      "name": "renounceOwnership",
      "outputs": [],
      "stateMutability": "nonpayable",
      "type": "function"
    },
    {
      "inputs": [
        {
          "internalType": "address",
          "name": "from",
          "type": "address"
        },
        {
          "internalType": "address",
          "name": "to",
          "type": "address"
        },
        {
          "internalType": "uint256",
          "name": "tokenId",
          "type": "uint256"
        }
      ],
      "name": "safeTransferFrom",
      "outputs": [],
      "stateMutability": "nonpayable",
      "type": "function"
    },
    {
      "inputs": [
        {
          "internalType": "address",
          "name": "from",
          "type": "address"
        },
        {
          "internalType": "address",
          "name": "to",
          "type": "address"
        },
        {
          "internalType": "uint256",
          "name": "tokenId",
          "type": "uint256"
        },
        {
          "internalType": "bytes",
          "name": "data",
          "type": "bytes"
        }
      ],
      "name": "safeTransferFrom",
      "outputs": [],
      "stateMutability": "nonpayable",
      "type": "function"
    },
    {
      "inputs": [],
      "name": "saleState",
      "outputs": [
        {
          "internalType": "enum WBC_NFT.SaleState",
          "name": "",
          "type": "uint8"
        }
      ],
      "stateMutability": "view",
      "type": "function",
      "constant": true
    },
    {
      "inputs": [
        {
          "internalType": "address",
          "name": "operator",
          "type": "address"
        },
        {
          "internalType": "bool",
          "name": "approved",
          "type": "bool"
        }
      ],
      "name": "setApprovalForAll",
      "outputs": [],
      "stateMutability": "nonpayable",
      "type": "function"
    },
    {
      "inputs": [
        {
          "internalType": "address",
          "name": "account",
          "type": "address"
        }
      ],
      "name": "shares",
      "outputs": [
        {
          "internalType": "uint256",
          "name": "",
          "type": "uint256"
        }
      ],
      "stateMutability": "view",
      "type": "function",
      "constant": true
    },
    {
      "inputs": [
        {
          "internalType": "bytes4",
          "name": "interfaceId",
          "type": "bytes4"
        }
      ],
      "name": "supportsInterface",
      "outputs": [
        {
          "internalType": "bool",
          "name": "",
          "type": "bool"
        }
      ],
      "stateMutability": "view",
      "type": "function",
      "constant": true
    },
    {
      "inputs": [],
      "name": "symbol",
      "outputs": [
        {
          "internalType": "string",
          "name": "",
          "type": "string"
        }
      ],
      "stateMutability": "view",
      "type": "function",
      "constant": true
    },
    {
      "inputs": [
        {
          "internalType": "contract IERC20",
          "name": "token",
          "type": "address"
        }
      ],
      "name": "totalReleased",
      "outputs": [
        {
          "internalType": "uint256",
          "name": "",
          "type": "uint256"
        }
      ],
      "stateMutability": "view",
      "type": "function",
      "constant": true
    },
    {
      "inputs": [],
      "name": "totalReleased",
      "outputs": [
        {
          "internalType": "uint256",
          "name": "",
          "type": "uint256"
        }
      ],
      "stateMutability": "view",
      "type": "function",
      "constant": true
    },
    {
      "inputs": [],
      "name": "totalShares",
      "outputs": [
        {
          "internalType": "uint256",
          "name": "",
          "type": "uint256"
        }
      ],
      "stateMutability": "view",
      "type": "function",
      "constant": true
    },
    {
      "inputs": [
        {
          "internalType": "address",
          "name": "from",
          "type": "address"
        },
        {
          "internalType": "address",
          "name": "to",
          "type": "address"
        },
        {
          "internalType": "uint256",
          "name": "tokenId",
          "type": "uint256"
        }
      ],
      "name": "transferFrom",
      "outputs": [],
      "stateMutability": "nonpayable",
      "type": "function"
    },
    {
      "inputs": [
        {
          "internalType": "address",
          "name": "newOwner",
          "type": "address"
        }
      ],
      "name": "transferOwnership",
      "outputs": [],
      "stateMutability": "nonpayable",
      "type": "function"
    },
    {
      "stateMutability": "payable",
      "type": "receive",
      "payable": true
    },
    {
      "inputs": [
        {
          "internalType": "bytes32[]",
          "name": "_proof",
          "type": "bytes32[]"
        }
      ],
      "name": "mint_nft",
      "outputs": [],
      "stateMutability": "payable",
      "type": "function",
      "payable": true
    },
    {
      "inputs": [
        {
          "internalType": "uint256",
          "name": "tokenId",
          "type": "uint256"
        }
      ],
      "name": "tokenURI",
      "outputs": [
        {
          "internalType": "string",
          "name": "",
          "type": "string"
        }
      ],
      "stateMutability": "view",
      "type": "function",
      "constant": true
    },
    {
      "inputs": [
        {
          "internalType": "address",
          "name": "_address",
          "type": "address"
        }
      ],
      "name": "getNFTsByAddress",
      "outputs": [
        {
          "internalType": "uint256[]",
          "name": "",
          "type": "uint256[]"
        }
      ],
      "stateMutability": "view",
      "type": "function",
      "constant": true
    },
    {
      "inputs": [],
      "name": "startSale",
      "outputs": [],
      "stateMutability": "nonpayable",
      "type": "function"
    },
    {
      "inputs": [],
      "name": "endSale",
      "outputs": [],
      "stateMutability": "nonpayable",
      "type": "function"
    }
  ],
  "bytecode": "0x608060405260aa6010556040518060400160405280600581526020017f2e6a736f6e000000000000000000000000000000000000000000000000000000815250601190816200004f919062000b1e565b506000601260006101000a81548160ff021916908315150217905550604051806060016040528073a65342e5a81cab20595a8e4f73758350056ac5c173ffffffffffffffffffffffffffffffffffffffff1673ffffffffffffffffffffffffffffffffffffffff168152602001736d80ab5fbbb46421b8ca1ee35a4b1150beb22e9673ffffffffffffffffffffffffffffffffffffffff1673ffffffffffffffffffffffffffffffffffffffff16815260200173f3d882e3ed580da0ad0eaa6c94dd26e64b7c406973ffffffffffffffffffffffffffffffffffffffff1673ffffffffffffffffffffffffffffffffffffffff168152506013906003620001589291906200079f565b506040518060600160405280603260ff168152602001601e60ff168152602001601460ff168152506014906003620001929291906200082e565b50348015620001a057600080fd5b5060405162006091380380620060918339818101604052810190620001c6919062000c45565b60138054806020026020016040519081016040528092919081815260200182805480156200024a57602002820191906000526020600020905b8160009054906101000a900473ffffffffffffffffffffffffffffffffffffffff1673ffffffffffffffffffffffffffffffffffffffff1681526020019060010190808311620001ff575b505050505060148054806020026020016040519081016040528092919081815260200182805480156200029d57602002820191906000526020600020905b81548152602001906001019080831162000288575b50505050506040518060400160405280600781526020017f574243204e4654000000000000000000000000000000000000000000000000008152506040518060400160405280600381526020017f574243000000000000000000000000000000000000000000000000000000000081525081600090816200031f919062000b1e565b50806001908162000331919062000b1e565b50505062000354620003486200049860201b60201c565b620004a060201b60201c565b80518251146200039b576040517f08c379a0000000000000000000000000000000000000000000000000000000008152600401620003929062000cfe565b60405180910390fd5b6000825111620003e2576040517f08c379a0000000000000000000000000000000000000000000000000000000008152600401620003d99062000d70565b60405180910390fd5b60005b825181101562000451576200043b83828151811062000409576200040862000d92565b5b602002602001015183838151811062000427576200042662000d92565b5b60200260200101516200056660201b60201c565b8080620004489062000df0565b915050620003e5565b5050506001600e81905550806017819055506000601860006101000a81548160ff021916908360028111156200048c576200048b62000e3d565b5b021790555050620010cc565b600033905090565b6000600660009054906101000a900473ffffffffffffffffffffffffffffffffffffffff16905081600660006101000a81548173ffffffffffffffffffffffffffffffffffffffff021916908373ffffffffffffffffffffffffffffffffffffffff1602179055508173ffffffffffffffffffffffffffffffffffffffff168173ffffffffffffffffffffffffffffffffffffffff167f8be0079c531659141344cd1fd0a4f28419497f9722a3daafe3b4186f6b6457e060405160405180910390a35050565b600073ffffffffffffffffffffffffffffffffffffffff168273ffffffffffffffffffffffffffffffffffffffff1603620005d8576040517f08c379a0000000000000000000000000000000000000000000000000000000008152600401620005cf9062000ee2565b60405180910390fd5b600081116200061e576040517f08c379a0000000000000000000000000000000000000000000000000000000008152600401620006159062000f54565b60405180910390fd5b6000600960008473ffffffffffffffffffffffffffffffffffffffff1673ffffffffffffffffffffffffffffffffffffffff1681526020019081526020016000205414620006a3576040517f08c379a00000000000000000000000000000000000000000000000000000000081526004016200069a9062000fec565b60405180910390fd5b600b829080600181540180825580915050600190039060005260206000200160009091909190916101000a81548173ffffffffffffffffffffffffffffffffffffffff021916908373ffffffffffffffffffffffffffffffffffffffff16021790555080600960008473ffffffffffffffffffffffffffffffffffffffff1673ffffffffffffffffffffffffffffffffffffffff16815260200190815260200160002081905550806007546200075a91906200100e565b6007819055507f40c340f65e17194d14ddddb073d3c9f888e3cb52b5aae0c6c7706b4fbc905fac8282604051620007939291906200109f565b60405180910390a15050565b8280548282559060005260206000209081019282156200081b579160200282015b828111156200081a5782518260006101000a81548173ffffffffffffffffffffffffffffffffffffffff021916908373ffffffffffffffffffffffffffffffffffffffff16021790555091602001919060010190620007c0565b5b5090506200082a919062000885565b5090565b82805482825590600052602060002090810192821562000872579160200282015b8281111562000871578251829060ff169055916020019190600101906200084f565b5b50905062000881919062000885565b5090565b5b80821115620008a057600081600090555060010162000886565b5090565b600081519050919050565b7f4e487b7100000000000000000000000000000000000000000000000000000000600052604160045260246000fd5b7f4e487b7100000000000000000000000000000000000000000000000000000000600052602260045260246000fd5b600060028204905060018216806200092657607f821691505b6020821081036200093c576200093b620008de565b5b50919050565b60008190508160005260206000209050919050565b60006020601f8301049050919050565b600082821b905092915050565b600060088302620009a67fffffffffffffffffffffffffffffffffffffffffffffffffffffffffffffffff8262000967565b620009b2868362000967565b95508019841693508086168417925050509392505050565b6000819050919050565b6000819050919050565b6000620009ff620009f9620009f384620009ca565b620009d4565b620009ca565b9050919050565b6000819050919050565b62000a1b83620009de565b62000a3362000a2a8262000a06565b84845462000974565b825550505050565b600090565b62000a4a62000a3b565b62000a5781848462000a10565b505050565b5b8181101562000a7f5762000a7360008262000a40565b60018101905062000a5d565b5050565b601f82111562000ace5762000a988162000942565b62000aa38462000957565b8101602085101562000ab3578190505b62000acb62000ac28562000957565b83018262000a5c565b50505b505050565b600082821c905092915050565b600062000af36000198460080262000ad3565b1980831691505092915050565b600062000b0e838362000ae0565b9150826002028217905092915050565b62000b2982620008a4565b67ffffffffffffffff81111562000b455762000b44620008af565b5b62000b5182546200090d565b62000b5e82828562000a83565b600060209050601f83116001811462000b96576000841562000b81578287015190505b62000b8d858262000b00565b86555062000bfd565b601f19841662000ba68662000942565b60005b8281101562000bd05784890151825560018201915060208501945060208101905062000ba9565b8683101562000bf0578489015162000bec601f89168262000ae0565b8355505b6001600288020188555050505b505050505050565b600080fd5b6000819050919050565b62000c1f8162000c0a565b811462000c2b57600080fd5b50565b60008151905062000c3f8162000c14565b92915050565b60006020828403121562000c5e5762000c5d62000c05565b5b600062000c6e8482850162000c2e565b91505092915050565b600082825260208201905092915050565b7f5061796d656e7453706c69747465723a2070617965657320616e64207368617260008201527f6573206c656e677468206d69736d617463680000000000000000000000000000602082015250565b600062000ce660328362000c77565b915062000cf38262000c88565b604082019050919050565b6000602082019050818103600083015262000d198162000cd7565b9050919050565b7f5061796d656e7453706c69747465723a206e6f20706179656573000000000000600082015250565b600062000d58601a8362000c77565b915062000d658262000d20565b602082019050919050565b6000602082019050818103600083015262000d8b8162000d49565b9050919050565b7f4e487b7100000000000000000000000000000000000000000000000000000000600052603260045260246000fd5b7f4e487b7100000000000000000000000000000000000000000000000000000000600052601160045260246000fd5b600062000dfd82620009ca565b91507fffffffffffffffffffffffffffffffffffffffffffffffffffffffffffffffff820362000e325762000e3162000dc1565b5b600182019050919050565b7f4e487b7100000000000000000000000000000000000000000000000000000000600052602160045260246000fd5b7f5061796d656e7453706c69747465723a206163636f756e74206973207468652060008201527f7a65726f20616464726573730000000000000000000000000000000000000000602082015250565b600062000eca602c8362000c77565b915062000ed78262000e6c565b604082019050919050565b6000602082019050818103600083015262000efd8162000ebb565b9050919050565b7f5061796d656e7453706c69747465723a20736861726573206172652030000000600082015250565b600062000f3c601d8362000c77565b915062000f498262000f04565b602082019050919050565b6000602082019050818103600083015262000f6f8162000f2d565b9050919050565b7f5061796d656e7453706c69747465723a206163636f756e7420616c726561647960008201527f2068617320736861726573000000000000000000000000000000000000000000602082015250565b600062000fd4602b8362000c77565b915062000fe18262000f76565b604082019050919050565b60006020820190508181036000830152620010078162000fc5565b9050919050565b60006200101b82620009ca565b91506200102883620009ca565b925082820190508082111562001043576200104262000dc1565b5b92915050565b600073ffffffffffffffffffffffffffffffffffffffff82169050919050565b6000620010768262001049565b9050919050565b620010888162001069565b82525050565b6200109981620009ca565b82525050565b6000604082019050620010b660008301856200107d565b620010c560208301846200108e565b9392505050565b614fb580620010dc6000396000f3fe60806040526004361061021e5760003560e01c8063715018a611610123578063a3f8eace116100ab578063ce7c2ac21161006f578063ce7c2ac214610837578063d79779b214610874578063e33b7de3146108b1578063e985e9c5146108dc578063f2fde38b1461091957610265565b8063a3f8eace14610740578063b66a0e5d1461077d578063b88d4fde14610794578063c45ac050146107bd578063c87b56dd146107fa57610265565b8063902d55a5116100f2578063902d55a51461065957806395d89b41146106845780639852595c146106af5780639afcef82146106ec578063a22cb4651461071757610265565b8063715018a6146105af5780638b83209b146105c65780638d859f3e146106035780638da5cb5b1461062e57610265565b8063380d831b116101a657806342842e0e1161017557806342842e0e146104b857806348b75044146104e1578063603f4d521461050a5780636352211e1461053557806370a082311461057257610265565b8063380d831b1461041d5780633a98ef3914610434578063406072a91461045f578063416e4cf71461049c57610265565b806319165587116101ed57806319165587146103385780631dadae8e1461036157806323b872dd1461039e5780632eb4a7ab146103c757806332cb6b0c146103f257610265565b806301ffc9a71461026a57806306fdde03146102a7578063081812fc146102d2578063095ea7b31461030f57610265565b36610265577f6ef95f06320e7a25a04a175ca677b7052bdd97131872c2192525a629f51be77061024c610942565b3460405161025b929190613203565b60405180910390a1005b600080fd5b34801561027657600080fd5b50610291600480360381019061028c9190613298565b61094a565b60405161029e91906132e0565b60405180910390f35b3480156102b357600080fd5b506102bc610a2c565b6040516102c9919061338b565b60405180910390f35b3480156102de57600080fd5b506102f960048036038101906102f491906133d9565b610abe565b6040516103069190613406565b60405180910390f35b34801561031b57600080fd5b506103366004803603810190610331919061344d565b610b04565b005b34801561034457600080fd5b5061035f600480360381019061035a91906134cb565b610c1b565b005b34801561036d57600080fd5b50610388600480360381019061038391906134f8565b610d9a565b60405161039591906135e3565b60405180910390f35b3480156103aa57600080fd5b506103c560048036038101906103c09190613605565b610e31565b005b3480156103d357600080fd5b506103dc610e91565b6040516103e99190613671565b60405180910390f35b3480156103fe57600080fd5b50610407610e97565b604051610414919061368c565b60405180910390f35b34801561042957600080fd5b50610432610e9c565b005b34801561044057600080fd5b50610449610eec565b604051610456919061368c565b60405180910390f35b34801561046b57600080fd5b50610486600480360381019061048191906136e5565b610ef6565b604051610493919061368c565b60405180910390f35b6104b660048036038101906104b1919061378a565b610f7d565b005b3480156104c457600080fd5b506104df60048036038101906104da9190613605565b6112ba565b005b3480156104ed57600080fd5b50610508600480360381019061050391906136e5565b6112da565b005b34801561051657600080fd5b5061051f6114ed565b60405161052c919061384e565b60405180910390f35b34801561054157600080fd5b5061055c600480360381019061055791906133d9565b611500565b6040516105699190613406565b60405180910390f35b34801561057e57600080fd5b50610599600480360381019061059491906134f8565b611586565b6040516105a6919061368c565b60405180910390f35b3480156105bb57600080fd5b506105c461163d565b005b3480156105d257600080fd5b506105ed60048036038101906105e891906133d9565b611651565b6040516105fa9190613406565b60405180910390f35b34801561060f57600080fd5b50610618611699565b604051610625919061368c565b60405180910390f35b34801561063a57600080fd5b506106436116a5565b6040516106509190613406565b60405180910390f35b34801561066557600080fd5b5061066e6116cf565b60405161067b919061368c565b60405180910390f35b34801561069057600080fd5b506106996116d5565b6040516106a6919061338b565b60405180910390f35b3480156106bb57600080fd5b506106d660048036038101906106d191906134f8565b611767565b6040516106e3919061368c565b60405180910390f35b3480156106f857600080fd5b506107016117b0565b60405161070e919061368c565b60405180910390f35b34801561072357600080fd5b5061073e60048036038101906107399190613895565b6117b5565b005b34801561074c57600080fd5b50610767600480360381019061076291906134f8565b6117cb565b604051610774919061368c565b60405180910390f35b34801561078957600080fd5b506107926117fe565b005b3480156107a057600080fd5b506107bb60048036038101906107b69190613a05565b611833565b005b3480156107c957600080fd5b506107e460048036038101906107df91906136e5565b611895565b6040516107f1919061368c565b60405180910390f35b34801561080657600080fd5b50610821600480360381019061081c91906133d9565b611944565b60405161082e919061338b565b60405180910390f35b34801561084357600080fd5b5061085e600480360381019061085991906134f8565b6119b9565b60405161086b919061368c565b60405180910390f35b34801561088057600080fd5b5061089b60048036038101906108969190613a88565b611a02565b6040516108a8919061368c565b60405180910390f35b3480156108bd57600080fd5b506108c6611a4b565b6040516108d3919061368c565b60405180910390f35b3480156108e857600080fd5b5061090360048036038101906108fe9190613ab5565b611a55565b60405161091091906132e0565b60405180910390f35b34801561092557600080fd5b50610940600480360381019061093b91906134f8565b611ae9565b005b600033905090565b60007f80ac58cd000000000000000000000000000000000000000000000000000000007bffffffffffffffffffffffffffffffffffffffffffffffffffffffff1916827bffffffffffffffffffffffffffffffffffffffffffffffffffffffff19161480610a1557507f5b5e139f000000000000000000000000000000000000000000000000000000007bffffffffffffffffffffffffffffffffffffffffffffffffffffffff1916827bffffffffffffffffffffffffffffffffffffffffffffffffffffffff1916145b80610a255750610a2482611b6c565b5b9050919050565b606060008054610a3b90613b24565b80601f0160208091040260200160405190810160405280929190818152602001828054610a6790613b24565b8015610ab45780601f10610a8957610100808354040283529160200191610ab4565b820191906000526020600020905b815481529060010190602001808311610a9757829003601f168201915b5050505050905090565b6000610ac982611bd6565b6004600083815260200190815260200160002060009054906101000a900473ffffffffffffffffffffffffffffffffffffffff169050919050565b6000610b0f82611500565b90508073ffffffffffffffffffffffffffffffffffffffff168373ffffffffffffffffffffffffffffffffffffffff1603610b7f576040517f08c379a0000000000000000000000000000000000000000000000000000000008152600401610b7690613bc7565b60405180910390fd5b8073ffffffffffffffffffffffffffffffffffffffff16610b9e610942565b73ffffffffffffffffffffffffffffffffffffffff161480610bcd5750610bcc81610bc7610942565b611a55565b5b610c0c576040517f08c379a0000000000000000000000000000000000000000000000000000000008152600401610c0390613c59565b60405180910390fd5b610c168383611c21565b505050565b6000600960008373ffffffffffffffffffffffffffffffffffffffff1673ffffffffffffffffffffffffffffffffffffffff1681526020019081526020016000205411610c9d576040517f08c379a0000000000000000000000000000000000000000000000000000000008152600401610c9490613ceb565b60405180910390fd5b6000610ca8826117cb565b905060008103610ced576040517f08c379a0000000000000000000000000000000000000000000000000000000008152600401610ce490613d7d565b60405180910390fd5b8060086000828254610cff9190613dcc565b9250508190555080600a60008473ffffffffffffffffffffffffffffffffffffffff1673ffffffffffffffffffffffffffffffffffffffff16815260200190815260200160002060008282540192505081905550610d5d8282611cda565b7fdf20fd1e76bc69d672e4814fafb2c449bba3a5369d8359adf9e05e6fde87b0568282604051610d8e929190613e5f565b60405180910390a15050565b6060601660008373ffffffffffffffffffffffffffffffffffffffff1673ffffffffffffffffffffffffffffffffffffffff168152602001908152602001600020805480602002602001604051908101604052809291908181526020018280548015610e2557602002820191906000526020600020905b815481526020019060010190808311610e11575b50505050509050919050565b610e42610e3c610942565b82611dce565b610e81576040517f08c379a0000000000000000000000000000000000000000000000000000000008152600401610e7890613efa565b60405180910390fd5b610e8c838383611e63565b505050565b60175481565b60aa81565b610ea461215c565b6002601860006101000a81548160ff02191690836002811115610eca57610ec96137d7565b5b02179055506001601260006101000a81548160ff021916908315150217905550565b6000600754905090565b6000600d60008473ffffffffffffffffffffffffffffffffffffffff1673ffffffffffffffffffffffffffffffffffffffff16815260200190815260200160002060008373ffffffffffffffffffffffffffffffffffffffff1673ffffffffffffffffffffffffffffffffffffffff16815260200190815260200160002054905092915050565b610f856121da565b3273ffffffffffffffffffffffffffffffffffffffff163373ffffffffffffffffffffffffffffffffffffffff1614610ff3576040517f08c379a0000000000000000000000000000000000000000000000000000000008152600401610fea90613f8c565b60405180910390fd5b60aa610fff600f612229565b1061103f576040517f08c379a000000000000000000000000000000000000000000000000000000000815260040161103690613ff8565b60405180910390fd5b601560003373ffffffffffffffffffffffffffffffffffffffff1673ffffffffffffffffffffffffffffffffffffffff16815260200190815260200160002060009054906101000a900460ff16156110cc576040517f08c379a00000000000000000000000000000000000000000000000000000000081526004016110c390614064565b60405180910390fd5b670de0b6b3a7640000341015611117576040517f08c379a000000000000000000000000000000000000000000000000000000000815260040161110e906140d0565b60405180910390fd5b6001600281111561112b5761112a6137d7565b5b601860009054906101000a900460ff16600281111561114d5761114c6137d7565b5b1461118d576040517f08c379a00000000000000000000000000000000000000000000000000000000081526004016111849061413c565b60405180910390fd5b611198338383612237565b6111d7576040517f08c379a00000000000000000000000000000000000000000000000000000000081526004016111ce906141ce565b60405180910390fd5b6111ea336111e5600f612229565b612295565b6111f4600f6122b3565b6001601560003373ffffffffffffffffffffffffffffffffffffffff1673ffffffffffffffffffffffffffffffffffffffff16815260200190815260200160002060006101000a81548160ff021916908315150217905550600160105461125b91906141ee565b60108190555061126b600f612229565b3373ffffffffffffffffffffffffffffffffffffffff167f4cc0a9c4a99ddc700de1af2c9f916a7cbfdb71f14801ccff94061ad1ef8a804060405160405180910390a36112b66122c9565b5050565b6112d583838360405180602001604052806000815250611833565b505050565b6000600960008373ffffffffffffffffffffffffffffffffffffffff1673ffffffffffffffffffffffffffffffffffffffff168152602001908152602001600020541161135c576040517f08c379a000000000000000000000000000000000000000000000000000000000815260040161135390613ceb565b60405180910390fd5b60006113688383611895565b9050600081036113ad576040517f08c379a00000000000000000000000000000000000000000000000000000000081526004016113a490613d7d565b60405180910390fd5b80600c60008573ffffffffffffffffffffffffffffffffffffffff1673ffffffffffffffffffffffffffffffffffffffff16815260200190815260200160002060008282546113fc9190613dcc565b9250508190555080600d60008573ffffffffffffffffffffffffffffffffffffffff1673ffffffffffffffffffffffffffffffffffffffff16815260200190815260200160002060008473ffffffffffffffffffffffffffffffffffffffff1673ffffffffffffffffffffffffffffffffffffffff168152602001908152602001600020600082825401925050819055506114988383836122d3565b8273ffffffffffffffffffffffffffffffffffffffff167f3be5b7a71e84ed12875d241991c70855ac5817d847039e17a9d895c1ceb0f18a83836040516114e0929190613203565b60405180910390a2505050565b601860009054906101000a900460ff1681565b60008061150c83612359565b9050600073ffffffffffffffffffffffffffffffffffffffff168173ffffffffffffffffffffffffffffffffffffffff160361157d576040517f08c379a00000000000000000000000000000000000000000000000000000000081526004016115749061426e565b60405180910390fd5b80915050919050565b60008073ffffffffffffffffffffffffffffffffffffffff168273ffffffffffffffffffffffffffffffffffffffff16036115f6576040517f08c379a00000000000000000000000000000000000000000000000000000000081526004016115ed90614300565b60405180910390fd5b600360008373ffffffffffffffffffffffffffffffffffffffff1673ffffffffffffffffffffffffffffffffffffffff168152602001908152602001600020549050919050565b61164561215c565b61164f6000612396565b565b6000600b828154811061166757611666614320565b5b9060005260206000200160009054906101000a900473ffffffffffffffffffffffffffffffffffffffff169050919050565b670de0b6b3a764000081565b6000600660009054906101000a900473ffffffffffffffffffffffffffffffffffffffff16905090565b60105481565b6060600180546116e490613b24565b80601f016020809104026020016040519081016040528092919081815260200182805461171090613b24565b801561175d5780601f106117325761010080835404028352916020019161175d565b820191906000526020600020905b81548152906001019060200180831161174057829003601f168201915b5050505050905090565b6000600a60008373ffffffffffffffffffffffffffffffffffffffff1673ffffffffffffffffffffffffffffffffffffffff168152602001908152602001600020549050919050565b600281565b6117c76117c0610942565b838361245c565b5050565b6000806117d6611a4b565b476117e19190613dcc565b90506117f683826117f186611767565b6125c8565b915050919050565b61180661215c565b6001601860006101000a81548160ff0219169083600281111561182c5761182b6137d7565b5b0217905550565b61184461183e610942565b83611dce565b611883576040517f08c379a000000000000000000000000000000000000000000000000000000000815260040161187a90613efa565b60405180910390fd5b61188f84848484612636565b50505050565b6000806118a184611a02565b8473ffffffffffffffffffffffffffffffffffffffff166370a08231306040518263ffffffff1660e01b81526004016118da9190613406565b602060405180830381865afa1580156118f7573d6000803e3d6000fd5b505050506040513d601f19601f8201168201806040525081019061191b9190614364565b6119259190613dcc565b905061193b83826119368787610ef6565b6125c8565b91505092915050565b606060001515601260009054906101000a900460ff16151503611986576040516020016119709061440e565b60405160208183030381529060405290506119b4565b61198f82612692565b60116040516020016119a292919061455e565b60405160208183030381529060405290505b919050565b6000600960008373ffffffffffffffffffffffffffffffffffffffff1673ffffffffffffffffffffffffffffffffffffffff168152602001908152602001600020549050919050565b6000600c60008373ffffffffffffffffffffffffffffffffffffffff1673ffffffffffffffffffffffffffffffffffffffff168152602001908152602001600020549050919050565b6000600854905090565b6000600560008473ffffffffffffffffffffffffffffffffffffffff1673ffffffffffffffffffffffffffffffffffffffff16815260200190815260200160002060008373ffffffffffffffffffffffffffffffffffffffff1673ffffffffffffffffffffffffffffffffffffffff16815260200190815260200160002060009054906101000a900460ff16905092915050565b611af161215c565b600073ffffffffffffffffffffffffffffffffffffffff168173ffffffffffffffffffffffffffffffffffffffff1603611b60576040517f08c379a0000000000000000000000000000000000000000000000000000000008152600401611b57906145ff565b60405180910390fd5b611b6981612396565b50565b60007f01ffc9a7000000000000000000000000000000000000000000000000000000007bffffffffffffffffffffffffffffffffffffffffffffffffffffffff1916827bffffffffffffffffffffffffffffffffffffffffffffffffffffffff1916149050919050565b611bdf81612760565b611c1e576040517f08c379a0000000000000000000000000000000000000000000000000000000008152600401611c159061426e565b60405180910390fd5b50565b816004600083815260200190815260200160002060006101000a81548173ffffffffffffffffffffffffffffffffffffffff021916908373ffffffffffffffffffffffffffffffffffffffff160217905550808273ffffffffffffffffffffffffffffffffffffffff16611c9483611500565b73ffffffffffffffffffffffffffffffffffffffff167f8c5be1e5ebec7d5bd14f71427d1e84f3dd0314c0f7b2291e5b200ac8c7c3b92560405160405180910390a45050565b80471015611d1d576040517f08c379a0000000000000000000000000000000000000000000000000000000008152600401611d149061466b565b60405180910390fd5b60008273ffffffffffffffffffffffffffffffffffffffff1682604051611d43906146bc565b60006040518083038185875af1925050503d8060008114611d80576040519150601f19603f3d011682016040523d82523d6000602084013e611d85565b606091505b5050905080611dc9576040517f08c379a0000000000000000000000000000000000000000000000000000000008152600401611dc090614743565b60405180910390fd5b505050565b600080611dda83611500565b90508073ffffffffffffffffffffffffffffffffffffffff168473ffffffffffffffffffffffffffffffffffffffff161480611e1c5750611e1b8185611a55565b5b80611e5a57508373ffffffffffffffffffffffffffffffffffffffff16611e4284610abe565b73ffffffffffffffffffffffffffffffffffffffff16145b91505092915050565b8273ffffffffffffffffffffffffffffffffffffffff16611e8382611500565b73ffffffffffffffffffffffffffffffffffffffff1614611ed9576040517f08c379a0000000000000000000000000000000000000000000000000000000008152600401611ed0906147d5565b60405180910390fd5b600073ffffffffffffffffffffffffffffffffffffffff168273ffffffffffffffffffffffffffffffffffffffff1603611f48576040517f08c379a0000000000000000000000000000000000000000000000000000000008152600401611f3f90614867565b60405180910390fd5b611f5583838360016127a1565b8273ffffffffffffffffffffffffffffffffffffffff16611f7582611500565b73ffffffffffffffffffffffffffffffffffffffff1614611fcb576040517f08c379a0000000000000000000000000000000000000000000000000000000008152600401611fc2906147d5565b60405180910390fd5b6004600082815260200190815260200160002060006101000a81549073ffffffffffffffffffffffffffffffffffffffff02191690556001600360008573ffffffffffffffffffffffffffffffffffffffff1673ffffffffffffffffffffffffffffffffffffffff168152602001908152602001600020600082825403925050819055506001600360008473ffffffffffffffffffffffffffffffffffffffff1673ffffffffffffffffffffffffffffffffffffffff16815260200190815260200160002060008282540192505081905550816002600083815260200190815260200160002060006101000a81548173ffffffffffffffffffffffffffffffffffffffff021916908373ffffffffffffffffffffffffffffffffffffffff160217905550808273ffffffffffffffffffffffffffffffffffffffff168473ffffffffffffffffffffffffffffffffffffffff167fddf252ad1be2c89b69c2b068fc378daa952ba7f163c4a11628f55a4df523b3ef60405160405180910390a461215783838360016128c7565b505050565b612164610942565b73ffffffffffffffffffffffffffffffffffffffff166121826116a5565b73ffffffffffffffffffffffffffffffffffffffff16146121d8576040517f08c379a00000000000000000000000000000000000000000000000000000000081526004016121cf906148d3565b60405180910390fd5b565b6002600e540361221f576040517f08c379a00000000000000000000000000000000000000000000000000000000081526004016122169061493f565b60405180910390fd5b6002600e81905550565b600081600001549050919050565b600061228c612245856128cd565b848480806020026020016040519081016040528093929190818152602001838360200280828437600081840152601f19601f820116905080830192505050505050506128fd565b90509392505050565b6122af828260405180602001604052806000815250612914565b5050565b6001816000016000828254019250508190555050565b6001600e81905550565b6123548363a9059cbb60e01b84846040516024016122f2929190613203565b604051602081830303815290604052907bffffffffffffffffffffffffffffffffffffffffffffffffffffffff19166020820180517bffffffffffffffffffffffffffffffffffffffffffffffffffffffff838183161783525050505061296f565b505050565b60006002600083815260200190815260200160002060009054906101000a900473ffffffffffffffffffffffffffffffffffffffff169050919050565b6000600660009054906101000a900473ffffffffffffffffffffffffffffffffffffffff16905081600660006101000a81548173ffffffffffffffffffffffffffffffffffffffff021916908373ffffffffffffffffffffffffffffffffffffffff1602179055508173ffffffffffffffffffffffffffffffffffffffff168173ffffffffffffffffffffffffffffffffffffffff167f8be0079c531659141344cd1fd0a4f28419497f9722a3daafe3b4186f6b6457e060405160405180910390a35050565b8173ffffffffffffffffffffffffffffffffffffffff168373ffffffffffffffffffffffffffffffffffffffff16036124ca576040517f08c379a00000000000000000000000000000000000000000000000000000000081526004016124c1906149ab565b60405180910390fd5b80600560008573ffffffffffffffffffffffffffffffffffffffff1673ffffffffffffffffffffffffffffffffffffffff16815260200190815260200160002060008473ffffffffffffffffffffffffffffffffffffffff1673ffffffffffffffffffffffffffffffffffffffff16815260200190815260200160002060006101000a81548160ff0219169083151502179055508173ffffffffffffffffffffffffffffffffffffffff168373ffffffffffffffffffffffffffffffffffffffff167f17307eab39ab6107e8899845ad3d59bd9653f200f220920489ca2b5937696c31836040516125bb91906132e0565b60405180910390a3505050565b600081600754600960008773ffffffffffffffffffffffffffffffffffffffff1673ffffffffffffffffffffffffffffffffffffffff168152602001908152602001600020548561261991906149cb565b6126239190614a3c565b61262d91906141ee565b90509392505050565b612641848484611e63565b61264d84848484612a36565b61268c576040517f08c379a000000000000000000000000000000000000000000000000000000000815260040161268390614adf565b60405180910390fd5b50505050565b6060600060016126a184612bbd565b01905060008167ffffffffffffffff8111156126c0576126bf6138da565b5b6040519080825280601f01601f1916602001820160405280156126f25781602001600182028036833780820191505090505b509050600082602001820190505b600115612755578080600190039150507f3031323334353637383961626364656600000000000000000000000000000000600a86061a8153600a858161274957612748614a0d565b5b04945060008503612700575b819350505050919050565b60008073ffffffffffffffffffffffffffffffffffffffff1661278283612359565b73ffffffffffffffffffffffffffffffffffffffff1614159050919050565b60018111156128c157600073ffffffffffffffffffffffffffffffffffffffff168473ffffffffffffffffffffffffffffffffffffffff16146128355780600360008673ffffffffffffffffffffffffffffffffffffffff1673ffffffffffffffffffffffffffffffffffffffff168152602001908152602001600020600082825461282d91906141ee565b925050819055505b600073ffffffffffffffffffffffffffffffffffffffff168373ffffffffffffffffffffffffffffffffffffffff16146128c05780600360008573ffffffffffffffffffffffffffffffffffffffff1673ffffffffffffffffffffffffffffffffffffffff16815260200190815260200160002060008282546128b89190613dcc565b925050819055505b5b50505050565b50505050565b6000816040516020016128e09190614b47565b604051602081830303815290604052805190602001209050919050565b600061290c8260175485612d10565b905092915050565b61291e8383612d27565b61292b6000848484612a36565b61296a576040517f08c379a000000000000000000000000000000000000000000000000000000000815260040161296190614adf565b60405180910390fd5b505050565b60006129d1826040518060400160405280602081526020017f5361666545524332303a206c6f772d6c6576656c2063616c6c206661696c65648152508573ffffffffffffffffffffffffffffffffffffffff16612f449092919063ffffffff16565b9050600081511115612a3157808060200190518101906129f19190614b77565b612a30576040517f08c379a0000000000000000000000000000000000000000000000000000000008152600401612a2790614c16565b60405180910390fd5b5b505050565b6000612a578473ffffffffffffffffffffffffffffffffffffffff16612f5c565b15612bb0578373ffffffffffffffffffffffffffffffffffffffff1663150b7a02612a80610942565b8786866040518563ffffffff1660e01b8152600401612aa29493929190614c8b565b6020604051808303816000875af1925050508015612ade57506040513d601f19601f82011682018060405250810190612adb9190614cec565b60015b612b60573d8060008114612b0e576040519150601f19603f3d011682016040523d82523d6000602084013e612b13565b606091505b506000815103612b58576040517f08c379a0000000000000000000000000000000000000000000000000000000008152600401612b4f90614adf565b60405180910390fd5b805181602001fd5b63150b7a0260e01b7bffffffffffffffffffffffffffffffffffffffffffffffffffffffff1916817bffffffffffffffffffffffffffffffffffffffffffffffffffffffff191614915050612bb5565b600190505b949350505050565b600080600090507a184f03e93ff9f4daa797ed6e38ed64bf6a1f0100000000000000008310612c1b577a184f03e93ff9f4daa797ed6e38ed64bf6a1f0100000000000000008381612c1157612c10614a0d565b5b0492506040810190505b6d04ee2d6d415b85acef81000000008310612c58576d04ee2d6d415b85acef81000000008381612c4e57612c4d614a0d565b5b0492506020810190505b662386f26fc100008310612c8757662386f26fc100008381612c7d57612c7c614a0d565b5b0492506010810190505b6305f5e1008310612cb0576305f5e1008381612ca657612ca5614a0d565b5b0492506008810190505b6127108310612cd5576127108381612ccb57612cca614a0d565b5b0492506004810190505b60648310612cf85760648381612cee57612ced614a0d565b5b0492506002810190505b600a8310612d07576001810190505b80915050919050565b600082612d1d8584612f7f565b1490509392505050565b600073ffffffffffffffffffffffffffffffffffffffff168273ffffffffffffffffffffffffffffffffffffffff1603612d96576040517f08c379a0000000000000000000000000000000000000000000000000000000008152600401612d8d90614d65565b60405180910390fd5b612d9f81612760565b15612ddf576040517f08c379a0000000000000000000000000000000000000000000000000000000008152600401612dd690614dd1565b60405180910390fd5b612ded6000838360016127a1565b612df681612760565b15612e36576040517f08c379a0000000000000000000000000000000000000000000000000000000008152600401612e2d90614dd1565b60405180910390fd5b6001600360008473ffffffffffffffffffffffffffffffffffffffff1673ffffffffffffffffffffffffffffffffffffffff16815260200190815260200160002060008282540192505081905550816002600083815260200190815260200160002060006101000a81548173ffffffffffffffffffffffffffffffffffffffff021916908373ffffffffffffffffffffffffffffffffffffffff160217905550808273ffffffffffffffffffffffffffffffffffffffff16600073ffffffffffffffffffffffffffffffffffffffff167fddf252ad1be2c89b69c2b068fc378daa952ba7f163c4a11628f55a4df523b3ef60405160405180910390a4612f406000838360016128c7565b5050565b6060612f538484600085612fd5565b90509392505050565b6000808273ffffffffffffffffffffffffffffffffffffffff163b119050919050565b60008082905060005b8451811015612fca57612fb582868381518110612fa857612fa7614320565b5b60200260200101516130a2565b91508080612fc290614df1565b915050612f88565b508091505092915050565b60608247101561301a576040517f08c379a000000000000000000000000000000000000000000000000000000000815260040161301190614eab565b60405180910390fd5b6000808673ffffffffffffffffffffffffffffffffffffffff1685876040516130439190614efc565b60006040518083038185875af1925050503d8060008114613080576040519150601f19603f3d011682016040523d82523d6000602084013e613085565b606091505b5091509150613096878383876130cd565b92505050949350505050565b60008183106130ba576130b58284613142565b6130c5565b6130c48383613142565b5b905092915050565b6060831561312f576000835103613127576130e785612f5c565b613126576040517f08c379a000000000000000000000000000000000000000000000000000000000815260040161311d90614f5f565b60405180910390fd5b5b82905061313a565b6131398383613159565b5b949350505050565b600082600052816020526040600020905092915050565b60008251111561316c5781518083602001fd5b806040517f08c379a00000000000000000000000000000000000000000000000000000000081526004016131a0919061338b565b60405180910390fd5b600073ffffffffffffffffffffffffffffffffffffffff82169050919050565b60006131d4826131a9565b9050919050565b6131e4816131c9565b82525050565b6000819050919050565b6131fd816131ea565b82525050565b600060408201905061321860008301856131db565b61322560208301846131f4565b9392505050565b6000604051905090565b600080fd5b600080fd5b60007fffffffff0000000000000000000000000000000000000000000000000000000082169050919050565b61327581613240565b811461328057600080fd5b50565b6000813590506132928161326c565b92915050565b6000602082840312156132ae576132ad613236565b5b60006132bc84828501613283565b91505092915050565b60008115159050919050565b6132da816132c5565b82525050565b60006020820190506132f560008301846132d1565b92915050565b600081519050919050565b600082825260208201905092915050565b60005b8381101561333557808201518184015260208101905061331a565b60008484015250505050565b6000601f19601f8301169050919050565b600061335d826132fb565b6133678185613306565b9350613377818560208601613317565b61338081613341565b840191505092915050565b600060208201905081810360008301526133a58184613352565b905092915050565b6133b6816131ea565b81146133c157600080fd5b50565b6000813590506133d3816133ad565b92915050565b6000602082840312156133ef576133ee613236565b5b60006133fd848285016133c4565b91505092915050565b600060208201905061341b60008301846131db565b92915050565b61342a816131c9565b811461343557600080fd5b50565b60008135905061344781613421565b92915050565b6000806040838503121561346457613463613236565b5b600061347285828601613438565b9250506020613483858286016133c4565b9150509250929050565b6000613498826131a9565b9050919050565b6134a88161348d565b81146134b357600080fd5b50565b6000813590506134c58161349f565b92915050565b6000602082840312156134e1576134e0613236565b5b60006134ef848285016134b6565b91505092915050565b60006020828403121561350e5761350d613236565b5b600061351c84828501613438565b91505092915050565b600081519050919050565b600082825260208201905092915050565b6000819050602082019050919050565b61355a816131ea565b82525050565b600061356c8383613551565b60208301905092915050565b6000602082019050919050565b600061359082613525565b61359a8185613530565b93506135a583613541565b8060005b838110156135d65781516135bd8882613560565b97506135c883613578565b9250506001810190506135a9565b5085935050505092915050565b600060208201905081810360008301526135fd8184613585565b905092915050565b60008060006060848603121561361e5761361d613236565b5b600061362c86828701613438565b935050602061363d86828701613438565b925050604061364e868287016133c4565b9150509250925092565b6000819050919050565b61366b81613658565b82525050565b60006020820190506136866000830184613662565b92915050565b60006020820190506136a160008301846131f4565b92915050565b60006136b2826131c9565b9050919050565b6136c2816136a7565b81146136cd57600080fd5b50565b6000813590506136df816136b9565b92915050565b600080604083850312156136fc576136fb613236565b5b600061370a858286016136d0565b925050602061371b85828601613438565b9150509250929050565b600080fd5b600080fd5b600080fd5b60008083601f84011261374a57613749613725565b5b8235905067ffffffffffffffff8111156137675761376661372a565b5b6020830191508360208202830111156137835761378261372f565b5b9250929050565b600080602083850312156137a1576137a0613236565b5b600083013567ffffffffffffffff8111156137bf576137be61323b565b5b6137cb85828601613734565b92509250509250929050565b7f4e487b7100000000000000000000000000000000000000000000000000000000600052602160045260246000fd5b60038110613817576138166137d7565b5b50565b600081905061382882613806565b919050565b60006138388261381a565b9050919050565b6138488161382d565b82525050565b6000602082019050613863600083018461383f565b92915050565b613872816132c5565b811461387d57600080fd5b50565b60008135905061388f81613869565b92915050565b600080604083850312156138ac576138ab613236565b5b60006138ba85828601613438565b92505060206138cb85828601613880565b9150509250929050565b600080fd5b7f4e487b7100000000000000000000000000000000000000000000000000000000600052604160045260246000fd5b61391282613341565b810181811067ffffffffffffffff82111715613931576139306138da565b5b80604052505050565b600061394461322c565b90506139508282613909565b919050565b600067ffffffffffffffff8211156139705761396f6138da565b5b61397982613341565b9050602081019050919050565b82818337600083830152505050565b60006139a86139a384613955565b61393a565b9050828152602081018484840111156139c4576139c36138d5565b5b6139cf848285613986565b509392505050565b600082601f8301126139ec576139eb613725565b5b81356139fc848260208601613995565b91505092915050565b60008060008060808587031215613a1f57613a1e613236565b5b6000613a2d87828801613438565b9450506020613a3e87828801613438565b9350506040613a4f878288016133c4565b925050606085013567ffffffffffffffff811115613a7057613a6f61323b565b5b613a7c878288016139d7565b91505092959194509250565b600060208284031215613a9e57613a9d613236565b5b6000613aac848285016136d0565b91505092915050565b60008060408385031215613acc57613acb613236565b5b6000613ada85828601613438565b9250506020613aeb85828601613438565b9150509250929050565b7f4e487b7100000000000000000000000000000000000000000000000000000000600052602260045260246000fd5b60006002820490506001821680613b3c57607f821691505b602082108103613b4f57613b4e613af5565b5b50919050565b7f4552433732313a20617070726f76616c20746f2063757272656e74206f776e6560008201527f7200000000000000000000000000000000000000000000000000000000000000602082015250565b6000613bb1602183613306565b9150613bbc82613b55565b604082019050919050565b60006020820190508181036000830152613be081613ba4565b9050919050565b7f4552433732313a20617070726f76652063616c6c6572206973206e6f7420746f60008201527f6b656e206f776e6572206f7220617070726f76656420666f7220616c6c000000602082015250565b6000613c43603d83613306565b9150613c4e82613be7565b604082019050919050565b60006020820190508181036000830152613c7281613c36565b9050919050565b7f5061796d656e7453706c69747465723a206163636f756e7420686173206e6f2060008201527f7368617265730000000000000000000000000000000000000000000000000000602082015250565b6000613cd5602683613306565b9150613ce082613c79565b604082019050919050565b60006020820190508181036000830152613d0481613cc8565b9050919050565b7f5061796d656e7453706c69747465723a206163636f756e74206973206e6f742060008201527f647565207061796d656e74000000000000000000000000000000000000000000602082015250565b6000613d67602b83613306565b9150613d7282613d0b565b604082019050919050565b60006020820190508181036000830152613d9681613d5a565b9050919050565b7f4e487b7100000000000000000000000000000000000000000000000000000000600052601160045260246000fd5b6000613dd7826131ea565b9150613de2836131ea565b9250828201905080821115613dfa57613df9613d9d565b5b92915050565b6000819050919050565b6000613e25613e20613e1b846131a9565b613e00565b6131a9565b9050919050565b6000613e3782613e0a565b9050919050565b6000613e4982613e2c565b9050919050565b613e5981613e3e565b82525050565b6000604082019050613e746000830185613e50565b613e8160208301846131f4565b9392505050565b7f4552433732313a2063616c6c6572206973206e6f7420746f6b656e206f776e6560008201527f72206f7220617070726f76656400000000000000000000000000000000000000602082015250565b6000613ee4602d83613306565b9150613eef82613e88565b604082019050919050565b60006020820190508181036000830152613f1381613ed7565b9050919050565b7f536f7272792c20636f6e74726163747320617265206e6f7420616c6c6f77656460008201527f20746f20696e7465726163742077697468207468697320636f6e747261637400602082015250565b6000613f76603f83613306565b9150613f8182613f1a565b604082019050919050565b60006020820190508181036000830152613fa581613f69565b9050919050565b7f4d617820737570706c7920726561636865640000000000000000000000000000600082015250565b6000613fe2601283613306565b9150613fed82613fac565b602082019050919050565b6000602082019050818103600083015261401181613fd5565b9050919050565b7f4d6178204e465473207065722061646472657373207265616368656400000000600082015250565b600061404e601c83613306565b915061405982614018565b602082019050919050565b6000602082019050818103600083015261407d81614041565b9050919050565b7f4e6f7420656e6f756768204554482073656e7400000000000000000000000000600082015250565b60006140ba601383613306565b91506140c582614084565b602082019050919050565b600060208201905081810360008301526140e9816140ad565b9050919050565b7f53616c6520686173206e6f742073746172746564207965740000000000000000600082015250565b6000614126601883613306565b9150614131826140f0565b602082019050919050565b6000602082019050818103600083015261415581614119565b9050919050565b7f596f7520617265206e6f742077686974656c697374656420746f20627579207460008201527f686973204e465400000000000000000000000000000000000000000000000000602082015250565b60006141b8602783613306565b91506141c38261415c565b604082019050919050565b600060208201905081810360008301526141e7816141ab565b9050919050565b60006141f9826131ea565b9150614204836131ea565b925082820390508181111561421c5761421b613d9d565b5b92915050565b7f4552433732313a20696e76616c696420746f6b656e2049440000000000000000600082015250565b6000614258601883613306565b915061426382614222565b602082019050919050565b600060208201905081810360008301526142878161424b565b9050919050565b7f4552433732313a2061646472657373207a65726f206973206e6f74206120766160008201527f6c6964206f776e65720000000000000000000000000000000000000000000000602082015250565b60006142ea602983613306565b91506142f58261428e565b604082019050919050565b60006020820190508181036000830152614319816142dd565b9050919050565b7f4e487b7100000000000000000000000000000000000000000000000000000000600052603260045260246000fd5b60008151905061435e816133ad565b92915050565b60006020828403121561437a57614379613236565b5b60006143888482850161434f565b91505092915050565b600081905092915050565b7f697066733a2f2f516d646746777048413853514b346d4836637757345476426860008201527f695a715132524e626d467259445567397071724d6a2f68696464656e00000000602082015250565b60006143f8603c83614391565b91506144038261439c565b603c82019050919050565b6000614419826143eb565b9150819050919050565b7f626166796265696474753268336736796e6566366e6b6a69656f36727479626460008201527f7a676134737a32633675683634656e366d343576787a70676579710000000000602082015250565b600061447f603b83614391565b915061448a82614423565b603b82019050919050565b60006144a0826132fb565b6144aa8185614391565b93506144ba818560208601613317565b80840191505092915050565b60008190508160005260206000209050919050565b600081546144e881613b24565b6144f28186614391565b9450600182166000811461450d576001811461452257614555565b60ff1983168652811515820286019350614555565b61452b856144c6565b60005b8381101561454d5781548189015260018201915060208101905061452e565b838801955050505b50505092915050565b600061456982614472565b91506145758285614495565b915061458182846144db565b91508190509392505050565b7f4f776e61626c653a206e6577206f776e657220697320746865207a65726f206160008201527f6464726573730000000000000000000000000000000000000000000000000000602082015250565b60006145e9602683613306565b91506145f48261458d565b604082019050919050565b60006020820190508181036000830152614618816145dc565b9050919050565b7f416464726573733a20696e73756666696369656e742062616c616e6365000000600082015250565b6000614655601d83613306565b91506146608261461f565b602082019050919050565b6000602082019050818103600083015261468481614648565b9050919050565b600081905092915050565b50565b60006146a660008361468b565b91506146b182614696565b600082019050919050565b60006146c782614699565b9150819050919050565b7f416464726573733a20756e61626c6520746f2073656e642076616c75652c207260008201527f6563697069656e74206d61792068617665207265766572746564000000000000602082015250565b600061472d603a83613306565b9150614738826146d1565b604082019050919050565b6000602082019050818103600083015261475c81614720565b9050919050565b7f4552433732313a207472616e736665722066726f6d20696e636f72726563742060008201527f6f776e6572000000000000000000000000000000000000000000000000000000602082015250565b60006147bf602583613306565b91506147ca82614763565b604082019050919050565b600060208201905081810360008301526147ee816147b2565b9050919050565b7f4552433732313a207472616e7366657220746f20746865207a65726f2061646460008201527f7265737300000000000000000000000000000000000000000000000000000000602082015250565b6000614851602483613306565b915061485c826147f5565b604082019050919050565b6000602082019050818103600083015261488081614844565b9050919050565b7f4f776e61626c653a2063616c6c6572206973206e6f7420746865206f776e6572600082015250565b60006148bd602083613306565b91506148c882614887565b602082019050919050565b600060208201905081810360008301526148ec816148b0565b9050919050565b7f5265656e7472616e637947756172643a207265656e7472616e742063616c6c00600082015250565b6000614929601f83613306565b9150614934826148f3565b602082019050919050565b600060208201905081810360008301526149588161491c565b9050919050565b7f4552433732313a20617070726f766520746f2063616c6c657200000000000000600082015250565b6000614995601983613306565b91506149a08261495f565b602082019050919050565b600060208201905081810360008301526149c481614988565b9050919050565b60006149d6826131ea565b91506149e1836131ea565b92508282026149ef816131ea565b91508282048414831517614a0657614a05613d9d565b5b5092915050565b7f4e487b7100000000000000000000000000000000000000000000000000000000600052601260045260246000fd5b6000614a47826131ea565b9150614a52836131ea565b925082614a6257614a61614a0d565b5b828204905092915050565b7f4552433732313a207472616e7366657220746f206e6f6e20455243373231526560008201527f63656976657220696d706c656d656e7465720000000000000000000000000000602082015250565b6000614ac9603283613306565b9150614ad482614a6d565b604082019050919050565b60006020820190508181036000830152614af881614abc565b9050919050565b60008160601b9050919050565b6000614b1782614aff565b9050919050565b6000614b2982614b0c565b9050919050565b614b41614b3c826131c9565b614b1e565b82525050565b6000614b538284614b30565b60148201915081905092915050565b600081519050614b7181613869565b92915050565b600060208284031215614b8d57614b8c613236565b5b6000614b9b84828501614b62565b91505092915050565b7f5361666545524332303a204552433230206f7065726174696f6e20646964206e60008201527f6f74207375636365656400000000000000000000000000000000000000000000602082015250565b6000614c00602a83613306565b9150614c0b82614ba4565b604082019050919050565b60006020820190508181036000830152614c2f81614bf3565b9050919050565b600081519050919050565b600082825260208201905092915050565b6000614c5d82614c36565b614c678185614c41565b9350614c77818560208601613317565b614c8081613341565b840191505092915050565b6000608082019050614ca060008301876131db565b614cad60208301866131db565b614cba60408301856131f4565b8181036060830152614ccc8184614c52565b905095945050505050565b600081519050614ce68161326c565b92915050565b600060208284031215614d0257614d01613236565b5b6000614d1084828501614cd7565b91505092915050565b7f4552433732313a206d696e7420746f20746865207a65726f2061646472657373600082015250565b6000614d4f602083613306565b9150614d5a82614d19565b602082019050919050565b60006020820190508181036000830152614d7e81614d42565b9050919050565b7f4552433732313a20746f6b656e20616c7265616479206d696e74656400000000600082015250565b6000614dbb601c83613306565b9150614dc682614d85565b602082019050919050565b60006020820190508181036000830152614dea81614dae565b9050919050565b6000614dfc826131ea565b91507fffffffffffffffffffffffffffffffffffffffffffffffffffffffffffffffff8203614e2e57614e2d613d9d565b5b600182019050919050565b7f416464726573733a20696e73756666696369656e742062616c616e636520666f60008201527f722063616c6c0000000000000000000000000000000000000000000000000000602082015250565b6000614e95602683613306565b9150614ea082614e39565b604082019050919050565b60006020820190508181036000830152614ec481614e88565b9050919050565b6000614ed682614c36565b614ee0818561468b565b9350614ef0818560208601613317565b80840191505092915050565b6000614f088284614ecb565b915081905092915050565b7f416464726573733a2063616c6c20746f206e6f6e2d636f6e7472616374000000600082015250565b6000614f49601d83613306565b9150614f5482614f13565b602082019050919050565b60006020820190508181036000830152614f7881614f3c565b905091905056fea2646970667358221220c899c862435f80a787fd99220bd4e9ca9ef51c3bb11800c0236cc8d60c4b41d464736f6c63430008110033",
  "immutableReferences": {},
  "source": "// Contract with openzeppelin ownable, String, Counters, Ownable, ERC721,PaymentSplitter and ReentrancyGuard\n// SPDX-License-Identifier: MIT\npragma solidity 0.8.17;\n\nimport \"@openzeppelin/contracts/utils/Strings.sol\";\nimport \"@openzeppelin/contracts/utils/Counters.sol\";\nimport \"@openzeppelin/contracts/access/Ownable.sol\";\nimport \"@openzeppelin/contracts/token/ERC721/ERC721.sol\";\nimport \"@openzeppelin/contracts/finance/PaymentSplitter.sol\";\nimport \"@openzeppelin/contracts/security/ReentrancyGuard.sol\";\nimport \"@openzeppelin/contracts/utils/cryptography/MerkleProof.sol\";\n\ncontract WBC_NFT is ERC721, Ownable, PaymentSplitter, ReentrancyGuard {\n    // Counter for tokenIds\n    using Counters for Counters.Counter;\n    Counters.Counter private _tokenIds;\n    // Total Supply\n    uint256 public TOTAL_SUPPLY = 170;\n    // Max Supply\n    uint256 public constant MAX_SUPPLY = 170;\n    // Max Nfts per address\n    uint256 public constant MAX_NFTS_PER_ADDRESS = 2;\n    // Price\n    uint256 public constant PRICE = 1 ether;\n    // Extension of the base URI\n    string private extension = \".json\";\n    // boolean to know if it's revealed\n    bool private _isRevealed = false;\n    // Members of the team to receive the payments\n    address[] private _teamMembers = [\n        0xA65342E5a81Cab20595A8e4F73758350056Ac5C1,\n        0x6D80Ab5FBbb46421B8CA1ee35A4b1150BeB22E96,\n        0xf3D882E3eD580da0aD0EaA6C94dD26e64B7c4069\n    ];\n    // Shares of the team members\n    uint256[] private _teamShares = [50, 30, 20];\n    // mapping address bool to check if address has minted\n    mapping(address => bool) private _hasMinted;\n    // mapping of all the NFTs by address\n    mapping(address => uint256[]) private _nftsByAddress;\n\n    // EVENTS\n    /**\n     * @dev Event to emit when the NFT is minted\n     */\n    event NFTMinted(address indexed to, uint256 indexed tokenId);\n\n    // Merkle Root\n    bytes32 public merkleRoot;\n\n    /**\n     * @dev Enum of workflow steps for the sale\n     */\n    enum SaleState {\n        NotStarted,\n        Started,\n        Ended\n    }\n    /**\n     * @dev SaleState of the sale\n     */\n    SaleState public saleState;\n\n    /**\n     * @dev Contrusctor of the contract with the name, symbol and the team members and shares with Merkle Root\n     */\n    constructor(bytes32 _MerkleRoot)\n        ERC721(\"WBC NFT\", \"WBC\")\n        PaymentSplitter(_teamMembers, _teamShares)\n    {\n        merkleRoot = _MerkleRoot;\n        saleState = SaleState.NotStarted;\n    }\n\n    /**\n     * @dev Modifier to check if the msg.sender has not a contract\n     */\n    modifier notContract() {\n        require(\n            msg.sender == tx.origin,\n            \"Sorry, contracts are not allowed to interact with this contract\"\n        );\n        _;\n    }\n\n    /**\n     * @dev verify the proof of the merkle tree\n     */\n    function _verify(bytes32 leaf, bytes32[] memory proof)\n        internal\n        view\n        returns (bool)\n    {\n        return MerkleProof.verify(proof, merkleRoot, leaf);\n    }\n\n    /**\n     * @dev create the leaf of the merkle tree\n     */\n    function _leaf(address account) internal pure returns (bytes32) {\n        return keccak256(abi.encodePacked(account));\n    }\n\n    /**\n     * @dev\n     */\n    function isWhiteListed(address account, bytes32[] calldata proof)\n        internal\n        view\n        returns (bool)\n    {\n        return _verify(_leaf(account), proof);\n    }\n\n    /**\n     * @dev Mint NFTs for the msg.sender if the conditions are met and the msg.value is correct\n     * @param _proof The proof of the merkle tree\n     */\n    function mint_nft(bytes32[] calldata _proof)\n        public\n        payable\n        nonReentrant\n        notContract\n    {\n        // Check if the max supply has been reached\n        require(_tokenIds.current() < MAX_SUPPLY, \"Max supply reached\");\n        // Check if the max NFTs per address has been reached\n        require(!_hasMinted[msg.sender], \"Max NFTs per address reached\");\n        // Check if the msg.sender send enough ETH to buy the NFT\n        require(msg.value >= PRICE, \"Not enough ETH sent\");\n        // Check if the sale has started\n        require(saleState == SaleState.Started, \"Sale has not started yet\");\n        // Require the msg.sender to be whitelisted\n        require(\n            isWhiteListed(msg.sender, _proof),\n            \"You are not whitelisted to buy this NFT\"\n        );\n        // Mint the NFT\n        _safeMint(msg.sender, _tokenIds.current());\n        // Increment the tokenIds\n        _tokenIds.increment();\n        // Set the address to true\n        _hasMinted[msg.sender] = true;\n        // Update TOTAL_SUPPLY after minting\n        TOTAL_SUPPLY = TOTAL_SUPPLY - 1;\n        // Event to emit when the NFT is minted\n        emit NFTMinted(msg.sender, _tokenIds.current());\n    }\n\n    /**\n        @dev This tokenURI function is used to change the base URI when it's revealed\n        */\n    function tokenURI(uint256 tokenId)\n        public\n        view\n        override\n        returns (string memory)\n    {\n        if (_isRevealed == false) {\n            return\n                string(\n                    abi.encodePacked(\n                        \"ipfs://QmdgFwpHA8SQK4mH6cwW4TvBhiZqQ2RNbmFrYDUg9pqrMj/hidden\"\n                    )\n                );\n        } else {\n            return\n                string(\n                    abi.encodePacked(\n                        \"bafybeidtu2h3g6ynef6nkjieo6rtybdzga4sz2c6uh64en6m45vxzpgeyq\",\n                        Strings.toString(tokenId),\n                        extension\n                    )\n                );\n        }\n    }\n\n    /**\n     * @dev get the NFTs by address\n     */\n    function getNFTsByAddress(address _address)\n        public\n        view\n        returns (uint256[] memory)\n    {\n        return _nftsByAddress[_address];\n    }\n\n    // SESSION GESTION\n    /**\n     * @dev Start the sale\n     */\n    function startSale() public onlyOwner {\n        saleState = SaleState.Started;\n    }\n\n    /**\n     * @dev End the sale\n     */\n    function endSale() public onlyOwner {\n        saleState = SaleState.Ended;\n        // reveal the NFTs\n        _isRevealed = true;\n    }\n}\n",
  "sourcePath": "/Users/gregorycorin/Desktop/Alyra/wbtc-launchpad/truffle/contracts/WBC_NFT.sol",
  "compiler": {
    "name": "solc",
    "version": "0.8.17+commit.8df45f5f.Emscripten.clang"
  },
  "schemaVersion": "3.4.10",
  "updatedAt": "2022-12-07T23:22:49.751Z",
  "networkType": "ethereum",
  "devdoc": {
    "events": {
      "NFTMinted(address,uint256)": {
        "details": "Event to emit when the NFT is minted"
      }
    },
    "kind": "dev",
    "methods": {
      "approve(address,uint256)": {
        "details": "See {IERC721-approve}."
      },
      "balanceOf(address)": {
        "details": "See {IERC721-balanceOf}."
      },
      "constructor": {
        "details": "Contrusctor of the contract with the name, symbol and the team members and shares with Merkle Root"
      },
      "endSale()": {
        "details": "End the sale"
      },
      "getApproved(uint256)": {
        "details": "See {IERC721-getApproved}."
      },
      "getNFTsByAddress(address)": {
        "details": "get the NFTs by address"
      },
      "isApprovedForAll(address,address)": {
        "details": "See {IERC721-isApprovedForAll}."
      },
      "mint_nft(bytes32[])": {
        "details": "Mint NFTs for the msg.sender if the conditions are met and the msg.value is correct",
        "params": {
          "_proof": "The proof of the merkle tree"
        }
      },
      "name()": {
        "details": "See {IERC721Metadata-name}."
      },
      "owner()": {
        "details": "Returns the address of the current owner."
      },
      "ownerOf(uint256)": {
        "details": "See {IERC721-ownerOf}."
      },
      "payee(uint256)": {
        "details": "Getter for the address of the payee number `index`."
      },
      "releasable(address)": {
        "details": "Getter for the amount of payee's releasable Ether."
      },
      "releasable(address,address)": {
        "details": "Getter for the amount of payee's releasable `token` tokens. `token` should be the address of an IERC20 contract."
      },
      "release(address)": {
        "details": "Triggers a transfer to `account` of the amount of Ether they are owed, according to their percentage of the total shares and their previous withdrawals."
      },
      "release(address,address)": {
        "details": "Triggers a transfer to `account` of the amount of `token` tokens they are owed, according to their percentage of the total shares and their previous withdrawals. `token` must be the address of an IERC20 contract."
      },
      "released(address)": {
        "details": "Getter for the amount of Ether already released to a payee."
      },
      "released(address,address)": {
        "details": "Getter for the amount of `token` tokens already released to a payee. `token` should be the address of an IERC20 contract."
      },
      "renounceOwnership()": {
        "details": "Leaves the contract without owner. It will not be possible to call `onlyOwner` functions anymore. Can only be called by the current owner. NOTE: Renouncing ownership will leave the contract without an owner, thereby removing any functionality that is only available to the owner."
      },
      "safeTransferFrom(address,address,uint256)": {
        "details": "See {IERC721-safeTransferFrom}."
      },
      "safeTransferFrom(address,address,uint256,bytes)": {
        "details": "See {IERC721-safeTransferFrom}."
      },
      "setApprovalForAll(address,bool)": {
        "details": "See {IERC721-setApprovalForAll}."
      },
      "shares(address)": {
        "details": "Getter for the amount of shares held by an account."
      },
      "startSale()": {
        "details": "Start the sale"
      },
      "supportsInterface(bytes4)": {
        "details": "See {IERC165-supportsInterface}."
      },
      "symbol()": {
        "details": "See {IERC721Metadata-symbol}."
      },
      "tokenURI(uint256)": {
        "details": "This tokenURI function is used to change the base URI when it's revealed"
      },
      "totalReleased()": {
        "details": "Getter for the total amount of Ether already released."
      },
      "totalReleased(address)": {
        "details": "Getter for the total amount of `token` already released. `token` should be the address of an IERC20 contract."
      },
      "totalShares()": {
        "details": "Getter for the total shares held by payees."
      },
      "transferFrom(address,address,uint256)": {
        "details": "See {IERC721-transferFrom}."
      },
      "transferOwnership(address)": {
        "details": "Transfers ownership of the contract to a new account (`newOwner`). Can only be called by the current owner."
      }
    },
    "stateVariables": {
      "saleState": {
        "details": "SaleState of the sale"
      }
    },
    "version": 1
  },
  "userdoc": {
    "kind": "user",
    "methods": {},
    "version": 1
  }
}