{
  "contractName": "WBC_NFT",
  "abi": [
    {
      "inputs": [
        {
          "internalType": "bytes32",
          "name": "_MerkleRoot",
          "type": "bytes32"
        }
      ],
      "stateMutability": "nonpayable",
      "type": "constructor"
    },
    {
      "anonymous": false,
      "inputs": [
        {
          "indexed": true,
          "internalType": "address",
          "name": "owner",
          "type": "address"
        },
        {
          "indexed": true,
          "internalType": "address",
          "name": "approved",
          "type": "address"
        },
        {
          "indexed": true,
          "internalType": "uint256",
          "name": "tokenId",
          "type": "uint256"
        }
      ],
      "name": "Approval",
      "type": "event"
    },
    {
      "anonymous": false,
      "inputs": [
        {
          "indexed": true,
          "internalType": "address",
          "name": "owner",
          "type": "address"
        },
        {
          "indexed": true,
          "internalType": "address",
          "name": "operator",
          "type": "address"
        },
        {
          "indexed": false,
          "internalType": "bool",
          "name": "approved",
          "type": "bool"
        }
      ],
      "name": "ApprovalForAll",
      "type": "event"
    },
    {
      "anonymous": false,
      "inputs": [
        {
          "indexed": true,
          "internalType": "contract IERC20",
          "name": "token",
          "type": "address"
        },
        {
          "indexed": false,
          "internalType": "address",
          "name": "to",
          "type": "address"
        },
        {
          "indexed": false,
          "internalType": "uint256",
          "name": "amount",
          "type": "uint256"
        }
      ],
      "name": "ERC20PaymentReleased",
      "type": "event"
    },
    {
      "anonymous": false,
      "inputs": [
        {
          "indexed": true,
          "internalType": "address",
          "name": "to",
          "type": "address"
        },
        {
          "indexed": true,
          "internalType": "uint256",
          "name": "tokenId",
          "type": "uint256"
        }
      ],
      "name": "NFTMinted",
      "type": "event"
    },
    {
      "anonymous": false,
      "inputs": [
        {
          "indexed": true,
          "internalType": "address",
          "name": "previousOwner",
          "type": "address"
        },
        {
          "indexed": true,
          "internalType": "address",
          "name": "newOwner",
          "type": "address"
        }
      ],
      "name": "OwnershipTransferred",
      "type": "event"
    },
    {
      "anonymous": false,
      "inputs": [
        {
          "indexed": false,
          "internalType": "address",
          "name": "account",
          "type": "address"
        },
        {
          "indexed": false,
          "internalType": "uint256",
          "name": "shares",
          "type": "uint256"
        }
      ],
      "name": "PayeeAdded",
      "type": "event"
    },
    {
      "anonymous": false,
      "inputs": [
        {
          "indexed": false,
          "internalType": "address",
          "name": "from",
          "type": "address"
        },
        {
          "indexed": false,
          "internalType": "uint256",
          "name": "amount",
          "type": "uint256"
        }
      ],
      "name": "PaymentReceived",
      "type": "event"
    },
    {
      "anonymous": false,
      "inputs": [
        {
          "indexed": false,
          "internalType": "address",
          "name": "to",
          "type": "address"
        },
        {
          "indexed": false,
          "internalType": "uint256",
          "name": "amount",
          "type": "uint256"
        }
      ],
      "name": "PaymentReleased",
      "type": "event"
    },
    {
      "anonymous": false,
      "inputs": [
        {
          "indexed": true,
          "internalType": "address",
          "name": "from",
          "type": "address"
        },
        {
          "indexed": true,
          "internalType": "address",
          "name": "to",
          "type": "address"
        },
        {
          "indexed": true,
          "internalType": "uint256",
          "name": "tokenId",
          "type": "uint256"
        }
      ],
      "name": "Transfer",
      "type": "event"
    },
    {
      "inputs": [],
      "name": "MAX_NFTS_PER_ADDRESS",
      "outputs": [
        {
          "internalType": "uint256",
          "name": "",
          "type": "uint256"
        }
      ],
      "stateMutability": "view",
      "type": "function",
      "constant": true
    },
    {
      "inputs": [],
      "name": "MAX_SUPPLY",
      "outputs": [
        {
          "internalType": "uint256",
          "name": "",
          "type": "uint256"
        }
      ],
      "stateMutability": "view",
      "type": "function",
      "constant": true
    },
    {
      "inputs": [],
      "name": "PRICE",
      "outputs": [
        {
          "internalType": "uint256",
          "name": "",
          "type": "uint256"
        }
      ],
      "stateMutability": "view",
      "type": "function",
      "constant": true
    },
    {
      "inputs": [],
      "name": "REST_OF_SUPPLY",
      "outputs": [
        {
          "internalType": "uint256",
          "name": "",
          "type": "uint256"
        }
      ],
      "stateMutability": "view",
      "type": "function",
      "constant": true
    },
    {
      "inputs": [
        {
          "internalType": "address",
          "name": "to",
          "type": "address"
        },
        {
          "internalType": "uint256",
          "name": "tokenId",
          "type": "uint256"
        }
      ],
      "name": "approve",
      "outputs": [],
      "stateMutability": "nonpayable",
      "type": "function"
    },
    {
      "inputs": [
        {
          "internalType": "address",
          "name": "owner",
          "type": "address"
        }
      ],
      "name": "balanceOf",
      "outputs": [
        {
          "internalType": "uint256",
          "name": "",
          "type": "uint256"
        }
      ],
      "stateMutability": "view",
      "type": "function",
      "constant": true
    },
    {
      "inputs": [
        {
          "internalType": "uint256",
          "name": "tokenId",
          "type": "uint256"
        }
      ],
      "name": "getApproved",
      "outputs": [
        {
          "internalType": "address",
          "name": "",
          "type": "address"
        }
      ],
      "stateMutability": "view",
      "type": "function",
      "constant": true
    },
    {
      "inputs": [
        {
          "internalType": "address",
          "name": "owner",
          "type": "address"
        },
        {
          "internalType": "address",
          "name": "operator",
          "type": "address"
        }
      ],
      "name": "isApprovedForAll",
      "outputs": [
        {
          "internalType": "bool",
          "name": "",
          "type": "bool"
        }
      ],
      "stateMutability": "view",
      "type": "function",
      "constant": true
    },
    {
      "inputs": [],
      "name": "merkleRoot",
      "outputs": [
        {
          "internalType": "bytes32",
          "name": "",
          "type": "bytes32"
        }
      ],
      "stateMutability": "view",
      "type": "function",
      "constant": true
    },
    {
      "inputs": [],
      "name": "name",
      "outputs": [
        {
          "internalType": "string",
          "name": "",
          "type": "string"
        }
      ],
      "stateMutability": "view",
      "type": "function",
      "constant": true
    },
    {
      "inputs": [],
      "name": "owner",
      "outputs": [
        {
          "internalType": "address",
          "name": "",
          "type": "address"
        }
      ],
      "stateMutability": "view",
      "type": "function",
      "constant": true
    },
    {
      "inputs": [
        {
          "internalType": "uint256",
          "name": "tokenId",
          "type": "uint256"
        }
      ],
      "name": "ownerOf",
      "outputs": [
        {
          "internalType": "address",
          "name": "",
          "type": "address"
        }
      ],
      "stateMutability": "view",
      "type": "function",
      "constant": true
    },
    {
      "inputs": [
        {
          "internalType": "uint256",
          "name": "index",
          "type": "uint256"
        }
      ],
      "name": "payee",
      "outputs": [
        {
          "internalType": "address",
          "name": "",
          "type": "address"
        }
      ],
      "stateMutability": "view",
      "type": "function",
      "constant": true
    },
    {
      "inputs": [
        {
          "internalType": "address",
          "name": "account",
          "type": "address"
        }
      ],
      "name": "releasable",
      "outputs": [
        {
          "internalType": "uint256",
          "name": "",
          "type": "uint256"
        }
      ],
      "stateMutability": "view",
      "type": "function",
      "constant": true
    },
    {
      "inputs": [
        {
          "internalType": "contract IERC20",
          "name": "token",
          "type": "address"
        },
        {
          "internalType": "address",
          "name": "account",
          "type": "address"
        }
      ],
      "name": "releasable",
      "outputs": [
        {
          "internalType": "uint256",
          "name": "",
          "type": "uint256"
        }
      ],
      "stateMutability": "view",
      "type": "function",
      "constant": true
    },
    {
      "inputs": [
        {
          "internalType": "address payable",
          "name": "account",
          "type": "address"
        }
      ],
      "name": "release",
      "outputs": [],
      "stateMutability": "nonpayable",
      "type": "function"
    },
    {
      "inputs": [
        {
          "internalType": "contract IERC20",
          "name": "token",
          "type": "address"
        },
        {
          "internalType": "address",
          "name": "account",
          "type": "address"
        }
      ],
      "name": "release",
      "outputs": [],
      "stateMutability": "nonpayable",
      "type": "function"
    },
    {
      "inputs": [
        {
          "internalType": "contract IERC20",
          "name": "token",
          "type": "address"
        },
        {
          "internalType": "address",
          "name": "account",
          "type": "address"
        }
      ],
      "name": "released",
      "outputs": [
        {
          "internalType": "uint256",
          "name": "",
          "type": "uint256"
        }
      ],
      "stateMutability": "view",
      "type": "function",
      "constant": true
    },
    {
      "inputs": [
        {
          "internalType": "address",
          "name": "account",
          "type": "address"
        }
      ],
      "name": "released",
      "outputs": [
        {
          "internalType": "uint256",
          "name": "",
          "type": "uint256"
        }
      ],
      "stateMutability": "view",
      "type": "function",
      "constant": true
    },
    {
      "inputs": [],
      "name": "renounceOwnership",
      "outputs": [],
      "stateMutability": "nonpayable",
      "type": "function"
    },
    {
      "inputs": [
        {
          "internalType": "address",
          "name": "from",
          "type": "address"
        },
        {
          "internalType": "address",
          "name": "to",
          "type": "address"
        },
        {
          "internalType": "uint256",
          "name": "tokenId",
          "type": "uint256"
        }
      ],
      "name": "safeTransferFrom",
      "outputs": [],
      "stateMutability": "nonpayable",
      "type": "function"
    },
    {
      "inputs": [
        {
          "internalType": "address",
          "name": "from",
          "type": "address"
        },
        {
          "internalType": "address",
          "name": "to",
          "type": "address"
        },
        {
          "internalType": "uint256",
          "name": "tokenId",
          "type": "uint256"
        },
        {
          "internalType": "bytes",
          "name": "data",
          "type": "bytes"
        }
      ],
      "name": "safeTransferFrom",
      "outputs": [],
      "stateMutability": "nonpayable",
      "type": "function"
    },
    {
      "inputs": [],
      "name": "saleState",
      "outputs": [
        {
          "internalType": "enum WBC_NFT.SaleState",
          "name": "",
          "type": "uint8"
        }
      ],
      "stateMutability": "view",
      "type": "function",
      "constant": true
    },
    {
      "inputs": [
        {
          "internalType": "address",
          "name": "operator",
          "type": "address"
        },
        {
          "internalType": "bool",
          "name": "approved",
          "type": "bool"
        }
      ],
      "name": "setApprovalForAll",
      "outputs": [],
      "stateMutability": "nonpayable",
      "type": "function"
    },
    {
      "inputs": [
        {
          "internalType": "address",
          "name": "account",
          "type": "address"
        }
      ],
      "name": "shares",
      "outputs": [
        {
          "internalType": "uint256",
          "name": "",
          "type": "uint256"
        }
      ],
      "stateMutability": "view",
      "type": "function",
      "constant": true
    },
    {
      "inputs": [
        {
          "internalType": "bytes4",
          "name": "interfaceId",
          "type": "bytes4"
        }
      ],
      "name": "supportsInterface",
      "outputs": [
        {
          "internalType": "bool",
          "name": "",
          "type": "bool"
        }
      ],
      "stateMutability": "view",
      "type": "function",
      "constant": true
    },
    {
      "inputs": [],
      "name": "symbol",
      "outputs": [
        {
          "internalType": "string",
          "name": "",
          "type": "string"
        }
      ],
      "stateMutability": "view",
      "type": "function",
      "constant": true
    },
    {
      "inputs": [
        {
          "internalType": "contract IERC20",
          "name": "token",
          "type": "address"
        }
      ],
      "name": "totalReleased",
      "outputs": [
        {
          "internalType": "uint256",
          "name": "",
          "type": "uint256"
        }
      ],
      "stateMutability": "view",
      "type": "function",
      "constant": true
    },
    {
      "inputs": [],
      "name": "totalReleased",
      "outputs": [
        {
          "internalType": "uint256",
          "name": "",
          "type": "uint256"
        }
      ],
      "stateMutability": "view",
      "type": "function",
      "constant": true
    },
    {
      "inputs": [],
      "name": "totalShares",
      "outputs": [
        {
          "internalType": "uint256",
          "name": "",
          "type": "uint256"
        }
      ],
      "stateMutability": "view",
      "type": "function",
      "constant": true
    },
    {
      "inputs": [
        {
          "internalType": "address",
          "name": "from",
          "type": "address"
        },
        {
          "internalType": "address",
          "name": "to",
          "type": "address"
        },
        {
          "internalType": "uint256",
          "name": "tokenId",
          "type": "uint256"
        }
      ],
      "name": "transferFrom",
      "outputs": [],
      "stateMutability": "nonpayable",
      "type": "function"
    },
    {
      "inputs": [
        {
          "internalType": "address",
          "name": "newOwner",
          "type": "address"
        }
      ],
      "name": "transferOwnership",
      "outputs": [],
      "stateMutability": "nonpayable",
      "type": "function"
    },
    {
      "stateMutability": "payable",
      "type": "receive",
      "payable": true
    },
    {
      "inputs": [
        {
          "internalType": "bytes32[]",
          "name": "_proof",
          "type": "bytes32[]"
        }
      ],
      "name": "mint_nft",
      "outputs": [],
      "stateMutability": "payable",
      "type": "function",
      "payable": true
    },
    {
      "inputs": [
        {
          "internalType": "uint256",
          "name": "tokenId",
          "type": "uint256"
        }
      ],
      "name": "tokenURI",
      "outputs": [
        {
          "internalType": "string",
          "name": "",
          "type": "string"
        }
      ],
      "stateMutability": "view",
      "type": "function",
      "constant": true
    },
    {
      "inputs": [
        {
          "internalType": "address",
          "name": "_address",
          "type": "address"
        }
      ],
      "name": "getNFTsByAddress",
      "outputs": [
        {
          "internalType": "uint256[]",
          "name": "",
          "type": "uint256[]"
        }
      ],
      "stateMutability": "view",
      "type": "function",
      "constant": true
    },
    {
      "inputs": [],
      "name": "startSale",
      "outputs": [],
      "stateMutability": "nonpayable",
      "type": "function"
    },
    {
      "inputs": [],
      "name": "endSale",
      "outputs": [],
      "stateMutability": "nonpayable",
      "type": "function"
    }
  ],
  "bytecode": "0x608060405260aa6010556040518060400160405280600581526020017f2e6a736f6e000000000000000000000000000000000000000000000000000000815250601190816200004f919062000ace565b506000601260006101000a81548160ff021916908315150217905550604051806040016040528073a65342e5a81cab20595a8e4f73758350056ac5c173ffffffffffffffffffffffffffffffffffffffff1673ffffffffffffffffffffffffffffffffffffffff168152602001736d80ab5fbbb46421b8ca1ee35a4b1150beb22e9673ffffffffffffffffffffffffffffffffffffffff1673ffffffffffffffffffffffffffffffffffffffff168152506013906002620001129291906200074f565b506040518060400160405280603260ff168152602001603260ff16815250601490600262000142929190620007de565b503480156200015057600080fd5b5060405162005feb38038062005feb833981810160405281019062000176919062000bf5565b6013805480602002602001604051908101604052809291908181526020018280548015620001fa57602002820191906000526020600020905b8160009054906101000a900473ffffffffffffffffffffffffffffffffffffffff1673ffffffffffffffffffffffffffffffffffffffff1681526020019060010190808311620001af575b505050505060148054806020026020016040519081016040528092919081815260200182805480156200024d57602002820191906000526020600020905b81548152602001906001019080831162000238575b50505050506040518060400160405280600781526020017f574243204e4654000000000000000000000000000000000000000000000000008152506040518060400160405280600381526020017f57424300000000000000000000000000000000000000000000000000000000008152508160009081620002cf919062000ace565b508060019081620002e1919062000ace565b50505062000304620002f86200044860201b60201c565b6200045060201b60201c565b80518251146200034b576040517f08c379a0000000000000000000000000000000000000000000000000000000008152600401620003429062000cae565b60405180910390fd5b600082511162000392576040517f08c379a0000000000000000000000000000000000000000000000000000000008152600401620003899062000d20565b60405180910390fd5b60005b82518110156200040157620003eb838281518110620003b957620003b862000d42565b5b6020026020010151838381518110620003d757620003d662000d42565b5b60200260200101516200051660201b60201c565b8080620003f89062000da0565b91505062000395565b5050506001600e81905550806017819055506000601860006101000a81548160ff021916908360028111156200043c576200043b62000ded565b5b0217905550506200107c565b600033905090565b6000600660009054906101000a900473ffffffffffffffffffffffffffffffffffffffff16905081600660006101000a81548173ffffffffffffffffffffffffffffffffffffffff021916908373ffffffffffffffffffffffffffffffffffffffff1602179055508173ffffffffffffffffffffffffffffffffffffffff168173ffffffffffffffffffffffffffffffffffffffff167f8be0079c531659141344cd1fd0a4f28419497f9722a3daafe3b4186f6b6457e060405160405180910390a35050565b600073ffffffffffffffffffffffffffffffffffffffff168273ffffffffffffffffffffffffffffffffffffffff160362000588576040517f08c379a00000000000000000000000000000000000000000000000000000000081526004016200057f9062000e92565b60405180910390fd5b60008111620005ce576040517f08c379a0000000000000000000000000000000000000000000000000000000008152600401620005c59062000f04565b60405180910390fd5b6000600960008473ffffffffffffffffffffffffffffffffffffffff1673ffffffffffffffffffffffffffffffffffffffff168152602001908152602001600020541462000653576040517f08c379a00000000000000000000000000000000000000000000000000000000081526004016200064a9062000f9c565b60405180910390fd5b600b829080600181540180825580915050600190039060005260206000200160009091909190916101000a81548173ffffffffffffffffffffffffffffffffffffffff021916908373ffffffffffffffffffffffffffffffffffffffff16021790555080600960008473ffffffffffffffffffffffffffffffffffffffff1673ffffffffffffffffffffffffffffffffffffffff16815260200190815260200160002081905550806007546200070a919062000fbe565b6007819055507f40c340f65e17194d14ddddb073d3c9f888e3cb52b5aae0c6c7706b4fbc905fac8282604051620007439291906200104f565b60405180910390a15050565b828054828255906000526020600020908101928215620007cb579160200282015b82811115620007ca5782518260006101000a81548173ffffffffffffffffffffffffffffffffffffffff021916908373ffffffffffffffffffffffffffffffffffffffff1602179055509160200191906001019062000770565b5b509050620007da919062000835565b5090565b82805482825590600052602060002090810192821562000822579160200282015b8281111562000821578251829060ff16905591602001919060010190620007ff565b5b50905062000831919062000835565b5090565b5b808211156200085057600081600090555060010162000836565b5090565b600081519050919050565b7f4e487b7100000000000000000000000000000000000000000000000000000000600052604160045260246000fd5b7f4e487b7100000000000000000000000000000000000000000000000000000000600052602260045260246000fd5b60006002820490506001821680620008d657607f821691505b602082108103620008ec57620008eb6200088e565b5b50919050565b60008190508160005260206000209050919050565b60006020601f8301049050919050565b600082821b905092915050565b600060088302620009567fffffffffffffffffffffffffffffffffffffffffffffffffffffffffffffffff8262000917565b62000962868362000917565b95508019841693508086168417925050509392505050565b6000819050919050565b6000819050919050565b6000620009af620009a9620009a3846200097a565b62000984565b6200097a565b9050919050565b6000819050919050565b620009cb836200098e565b620009e3620009da82620009b6565b84845462000924565b825550505050565b600090565b620009fa620009eb565b62000a07818484620009c0565b505050565b5b8181101562000a2f5762000a23600082620009f0565b60018101905062000a0d565b5050565b601f82111562000a7e5762000a4881620008f2565b62000a538462000907565b8101602085101562000a63578190505b62000a7b62000a728562000907565b83018262000a0c565b50505b505050565b600082821c905092915050565b600062000aa36000198460080262000a83565b1980831691505092915050565b600062000abe838362000a90565b9150826002028217905092915050565b62000ad98262000854565b67ffffffffffffffff81111562000af55762000af46200085f565b5b62000b018254620008bd565b62000b0e82828562000a33565b600060209050601f83116001811462000b46576000841562000b31578287015190505b62000b3d858262000ab0565b86555062000bad565b601f19841662000b5686620008f2565b60005b8281101562000b805784890151825560018201915060208501945060208101905062000b59565b8683101562000ba0578489015162000b9c601f89168262000a90565b8355505b6001600288020188555050505b505050505050565b600080fd5b6000819050919050565b62000bcf8162000bba565b811462000bdb57600080fd5b50565b60008151905062000bef8162000bc4565b92915050565b60006020828403121562000c0e5762000c0d62000bb5565b5b600062000c1e8482850162000bde565b91505092915050565b600082825260208201905092915050565b7f5061796d656e7453706c69747465723a2070617965657320616e64207368617260008201527f6573206c656e677468206d69736d617463680000000000000000000000000000602082015250565b600062000c9660328362000c27565b915062000ca38262000c38565b604082019050919050565b6000602082019050818103600083015262000cc98162000c87565b9050919050565b7f5061796d656e7453706c69747465723a206e6f20706179656573000000000000600082015250565b600062000d08601a8362000c27565b915062000d158262000cd0565b602082019050919050565b6000602082019050818103600083015262000d3b8162000cf9565b9050919050565b7f4e487b7100000000000000000000000000000000000000000000000000000000600052603260045260246000fd5b7f4e487b7100000000000000000000000000000000000000000000000000000000600052601160045260246000fd5b600062000dad826200097a565b91507fffffffffffffffffffffffffffffffffffffffffffffffffffffffffffffffff820362000de25762000de162000d71565b5b600182019050919050565b7f4e487b7100000000000000000000000000000000000000000000000000000000600052602160045260246000fd5b7f5061796d656e7453706c69747465723a206163636f756e74206973207468652060008201527f7a65726f20616464726573730000000000000000000000000000000000000000602082015250565b600062000e7a602c8362000c27565b915062000e878262000e1c565b604082019050919050565b6000602082019050818103600083015262000ead8162000e6b565b9050919050565b7f5061796d656e7453706c69747465723a20736861726573206172652030000000600082015250565b600062000eec601d8362000c27565b915062000ef98262000eb4565b602082019050919050565b6000602082019050818103600083015262000f1f8162000edd565b9050919050565b7f5061796d656e7453706c69747465723a206163636f756e7420616c726561647960008201527f2068617320736861726573000000000000000000000000000000000000000000602082015250565b600062000f84602b8362000c27565b915062000f918262000f26565b604082019050919050565b6000602082019050818103600083015262000fb78162000f75565b9050919050565b600062000fcb826200097a565b915062000fd8836200097a565b925082820190508082111562000ff35762000ff262000d71565b5b92915050565b600073ffffffffffffffffffffffffffffffffffffffff82169050919050565b6000620010268262000ff9565b9050919050565b620010388162001019565b82525050565b62001049816200097a565b82525050565b60006040820190506200106660008301856200102d565b6200107560208301846200103e565b9392505050565b614f5f806200108c6000396000f3fe60806040526004361061021e5760003560e01c806370a0823111610123578063a3f8eace116100ab578063ce7c2ac21161006f578063ce7c2ac214610837578063d79779b214610874578063e33b7de3146108b1578063e985e9c5146108dc578063f2fde38b1461091957610265565b8063a3f8eace14610740578063b66a0e5d1461077d578063b88d4fde14610794578063c45ac050146107bd578063c87b56dd146107fa57610265565b80638da5cb5b116100f25780638da5cb5b1461065957806395d89b41146106845780639852595c146106af5780639afcef82146106ec578063a22cb4651461071757610265565b806370a082311461059d578063715018a6146105da5780638b83209b146105f15780638d859f3e1461062e57610265565b8063380d831b116101a657806342842e0e1161017557806342842e0e146104b857806348b75044146104e1578063603f4d521461050a5780636352211e14610535578063686b498b1461057257610265565b8063380d831b1461041d5780633a98ef3914610434578063406072a91461045f578063416e4cf71461049c57610265565b806319165587116101ed57806319165587146103385780631dadae8e1461036157806323b872dd1461039e5780632eb4a7ab146103c757806332cb6b0c146103f257610265565b806301ffc9a71461026a57806306fdde03146102a7578063081812fc146102d2578063095ea7b31461030f57610265565b36610265577f6ef95f06320e7a25a04a175ca677b7052bdd97131872c2192525a629f51be77061024c610942565b3460405161025b9291906131ad565b60405180910390a1005b600080fd5b34801561027657600080fd5b50610291600480360381019061028c9190613242565b61094a565b60405161029e919061328a565b60405180910390f35b3480156102b357600080fd5b506102bc610a2c565b6040516102c99190613335565b60405180910390f35b3480156102de57600080fd5b506102f960048036038101906102f49190613383565b610abe565b60405161030691906133b0565b60405180910390f35b34801561031b57600080fd5b50610336600480360381019061033191906133f7565b610b04565b005b34801561034457600080fd5b5061035f600480360381019061035a9190613475565b610c1b565b005b34801561036d57600080fd5b50610388600480360381019061038391906134a2565b610d9a565b604051610395919061358d565b60405180910390f35b3480156103aa57600080fd5b506103c560048036038101906103c091906135af565b610e31565b005b3480156103d357600080fd5b506103dc610e91565b6040516103e9919061361b565b60405180910390f35b3480156103fe57600080fd5b50610407610e97565b6040516104149190613636565b60405180910390f35b34801561042957600080fd5b50610432610e9c565b005b34801561044057600080fd5b50610449610eec565b6040516104569190613636565b60405180910390f35b34801561046b57600080fd5b506104866004803603810190610481919061368f565b610ef6565b6040516104939190613636565b60405180910390f35b6104b660048036038101906104b19190613734565b610f7d565b005b3480156104c457600080fd5b506104df60048036038101906104da91906135af565b611264565b005b3480156104ed57600080fd5b506105086004803603810190610503919061368f565b611284565b005b34801561051657600080fd5b5061051f611497565b60405161052c91906137f8565b60405180910390f35b34801561054157600080fd5b5061055c60048036038101906105579190613383565b6114aa565b60405161056991906133b0565b60405180910390f35b34801561057e57600080fd5b50610587611530565b6040516105949190613636565b60405180910390f35b3480156105a957600080fd5b506105c460048036038101906105bf91906134a2565b611536565b6040516105d19190613636565b60405180910390f35b3480156105e657600080fd5b506105ef6115ed565b005b3480156105fd57600080fd5b5061061860048036038101906106139190613383565b611601565b60405161062591906133b0565b60405180910390f35b34801561063a57600080fd5b50610643611649565b6040516106509190613636565b60405180910390f35b34801561066557600080fd5b5061066e611655565b60405161067b91906133b0565b60405180910390f35b34801561069057600080fd5b5061069961167f565b6040516106a69190613335565b60405180910390f35b3480156106bb57600080fd5b506106d660048036038101906106d191906134a2565b611711565b6040516106e39190613636565b60405180910390f35b3480156106f857600080fd5b5061070161175a565b60405161070e9190613636565b60405180910390f35b34801561072357600080fd5b5061073e6004803603810190610739919061383f565b61175f565b005b34801561074c57600080fd5b50610767600480360381019061076291906134a2565b611775565b6040516107749190613636565b60405180910390f35b34801561078957600080fd5b506107926117a8565b005b3480156107a057600080fd5b506107bb60048036038101906107b691906139af565b6117dd565b005b3480156107c957600080fd5b506107e460048036038101906107df919061368f565b61183f565b6040516107f19190613636565b60405180910390f35b34801561080657600080fd5b50610821600480360381019061081c9190613383565b6118ee565b60405161082e9190613335565b60405180910390f35b34801561084357600080fd5b5061085e600480360381019061085991906134a2565b611963565b60405161086b9190613636565b60405180910390f35b34801561088057600080fd5b5061089b60048036038101906108969190613a32565b6119ac565b6040516108a89190613636565b60405180910390f35b3480156108bd57600080fd5b506108c66119f5565b6040516108d39190613636565b60405180910390f35b3480156108e857600080fd5b5061090360048036038101906108fe9190613a5f565b6119ff565b604051610910919061328a565b60405180910390f35b34801561092557600080fd5b50610940600480360381019061093b91906134a2565b611a93565b005b600033905090565b60007f80ac58cd000000000000000000000000000000000000000000000000000000007bffffffffffffffffffffffffffffffffffffffffffffffffffffffff1916827bffffffffffffffffffffffffffffffffffffffffffffffffffffffff19161480610a1557507f5b5e139f000000000000000000000000000000000000000000000000000000007bffffffffffffffffffffffffffffffffffffffffffffffffffffffff1916827bffffffffffffffffffffffffffffffffffffffffffffffffffffffff1916145b80610a255750610a2482611b16565b5b9050919050565b606060008054610a3b90613ace565b80601f0160208091040260200160405190810160405280929190818152602001828054610a6790613ace565b8015610ab45780601f10610a8957610100808354040283529160200191610ab4565b820191906000526020600020905b815481529060010190602001808311610a9757829003601f168201915b5050505050905090565b6000610ac982611b80565b6004600083815260200190815260200160002060009054906101000a900473ffffffffffffffffffffffffffffffffffffffff169050919050565b6000610b0f826114aa565b90508073ffffffffffffffffffffffffffffffffffffffff168373ffffffffffffffffffffffffffffffffffffffff1603610b7f576040517f08c379a0000000000000000000000000000000000000000000000000000000008152600401610b7690613b71565b60405180910390fd5b8073ffffffffffffffffffffffffffffffffffffffff16610b9e610942565b73ffffffffffffffffffffffffffffffffffffffff161480610bcd5750610bcc81610bc7610942565b6119ff565b5b610c0c576040517f08c379a0000000000000000000000000000000000000000000000000000000008152600401610c0390613c03565b60405180910390fd5b610c168383611bcb565b505050565b6000600960008373ffffffffffffffffffffffffffffffffffffffff1673ffffffffffffffffffffffffffffffffffffffff1681526020019081526020016000205411610c9d576040517f08c379a0000000000000000000000000000000000000000000000000000000008152600401610c9490613c95565b60405180910390fd5b6000610ca882611775565b905060008103610ced576040517f08c379a0000000000000000000000000000000000000000000000000000000008152600401610ce490613d27565b60405180910390fd5b8060086000828254610cff9190613d76565b9250508190555080600a60008473ffffffffffffffffffffffffffffffffffffffff1673ffffffffffffffffffffffffffffffffffffffff16815260200190815260200160002060008282540192505081905550610d5d8282611c84565b7fdf20fd1e76bc69d672e4814fafb2c449bba3a5369d8359adf9e05e6fde87b0568282604051610d8e929190613e09565b60405180910390a15050565b6060601660008373ffffffffffffffffffffffffffffffffffffffff1673ffffffffffffffffffffffffffffffffffffffff168152602001908152602001600020805480602002602001604051908101604052809291908181526020018280548015610e2557602002820191906000526020600020905b815481526020019060010190808311610e11575b50505050509050919050565b610e42610e3c610942565b82611d78565b610e81576040517f08c379a0000000000000000000000000000000000000000000000000000000008152600401610e7890613ea4565b60405180910390fd5b610e8c838383611e0d565b505050565b60175481565b60aa81565b610ea4612106565b6002601860006101000a81548160ff02191690836002811115610eca57610ec9613781565b5b02179055506001601260006101000a81548160ff021916908315150217905550565b6000600754905090565b6000600d60008473ffffffffffffffffffffffffffffffffffffffff1673ffffffffffffffffffffffffffffffffffffffff16815260200190815260200160002060008373ffffffffffffffffffffffffffffffffffffffff1673ffffffffffffffffffffffffffffffffffffffff16815260200190815260200160002054905092915050565b610f85612184565b3273ffffffffffffffffffffffffffffffffffffffff163373ffffffffffffffffffffffffffffffffffffffff1614610ff3576040517f08c379a0000000000000000000000000000000000000000000000000000000008152600401610fea90613f36565b60405180910390fd5b60aa610fff600f6121d3565b1061103f576040517f08c379a000000000000000000000000000000000000000000000000000000000815260040161103690613fa2565b60405180910390fd5b600261104a33611536565b111561108b576040517f08c379a00000000000000000000000000000000000000000000000000000000081526004016110829061400e565b60405180910390fd5b670de0b6b3a76400003410156110d6576040517f08c379a00000000000000000000000000000000000000000000000000000000081526004016110cd9061407a565b60405180910390fd5b600160028111156110ea576110e9613781565b5b601860009054906101000a900460ff16600281111561110c5761110b613781565b5b1461114c576040517f08c379a0000000000000000000000000000000000000000000000000000000008152600401611143906140e6565b60405180910390fd5b6111573383836121e1565b611196576040517f08c379a000000000000000000000000000000000000000000000000000000000815260040161118d90614178565b60405180910390fd5b6111a9336111a4600f6121d3565b61223f565b6111b3600f61225d565b6001601560003373ffffffffffffffffffffffffffffffffffffffff1673ffffffffffffffffffffffffffffffffffffffff16815260200190815260200160002060006101000a81548160ff021916908315150217905550611215600f6121d3565b3373ffffffffffffffffffffffffffffffffffffffff167f4cc0a9c4a99ddc700de1af2c9f916a7cbfdb71f14801ccff94061ad1ef8a804060405160405180910390a3611260612273565b5050565b61127f838383604051806020016040528060008152506117dd565b505050565b6000600960008373ffffffffffffffffffffffffffffffffffffffff1673ffffffffffffffffffffffffffffffffffffffff1681526020019081526020016000205411611306576040517f08c379a00000000000000000000000000000000000000000000000000000000081526004016112fd90613c95565b60405180910390fd5b6000611312838361183f565b905060008103611357576040517f08c379a000000000000000000000000000000000000000000000000000000000815260040161134e90613d27565b60405180910390fd5b80600c60008573ffffffffffffffffffffffffffffffffffffffff1673ffffffffffffffffffffffffffffffffffffffff16815260200190815260200160002060008282546113a69190613d76565b9250508190555080600d60008573ffffffffffffffffffffffffffffffffffffffff1673ffffffffffffffffffffffffffffffffffffffff16815260200190815260200160002060008473ffffffffffffffffffffffffffffffffffffffff1673ffffffffffffffffffffffffffffffffffffffff1681526020019081526020016000206000828254019250508190555061144283838361227d565b8273ffffffffffffffffffffffffffffffffffffffff167f3be5b7a71e84ed12875d241991c70855ac5817d847039e17a9d895c1ceb0f18a838360405161148a9291906131ad565b60405180910390a2505050565b601860009054906101000a900460ff1681565b6000806114b683612303565b9050600073ffffffffffffffffffffffffffffffffffffffff168173ffffffffffffffffffffffffffffffffffffffff1603611527576040517f08c379a000000000000000000000000000000000000000000000000000000000815260040161151e906141e4565b60405180910390fd5b80915050919050565b60105481565b60008073ffffffffffffffffffffffffffffffffffffffff168273ffffffffffffffffffffffffffffffffffffffff16036115a6576040517f08c379a000000000000000000000000000000000000000000000000000000000815260040161159d90614276565b60405180910390fd5b600360008373ffffffffffffffffffffffffffffffffffffffff1673ffffffffffffffffffffffffffffffffffffffff168152602001908152602001600020549050919050565b6115f5612106565b6115ff6000612340565b565b6000600b828154811061161757611616614296565b5b9060005260206000200160009054906101000a900473ffffffffffffffffffffffffffffffffffffffff169050919050565b670de0b6b3a764000081565b6000600660009054906101000a900473ffffffffffffffffffffffffffffffffffffffff16905090565b60606001805461168e90613ace565b80601f01602080910402602001604051908101604052809291908181526020018280546116ba90613ace565b80156117075780601f106116dc57610100808354040283529160200191611707565b820191906000526020600020905b8154815290600101906020018083116116ea57829003601f168201915b5050505050905090565b6000600a60008373ffffffffffffffffffffffffffffffffffffffff1673ffffffffffffffffffffffffffffffffffffffff168152602001908152602001600020549050919050565b600281565b61177161176a610942565b8383612406565b5050565b6000806117806119f5565b4761178b9190613d76565b90506117a0838261179b86611711565b612572565b915050919050565b6117b0612106565b6001601860006101000a81548160ff021916908360028111156117d6576117d5613781565b5b0217905550565b6117ee6117e8610942565b83611d78565b61182d576040517f08c379a000000000000000000000000000000000000000000000000000000000815260040161182490613ea4565b60405180910390fd5b611839848484846125e0565b50505050565b60008061184b846119ac565b8473ffffffffffffffffffffffffffffffffffffffff166370a08231306040518263ffffffff1660e01b815260040161188491906133b0565b602060405180830381865afa1580156118a1573d6000803e3d6000fd5b505050506040513d601f19601f820116820180604052508101906118c591906142da565b6118cf9190613d76565b90506118e583826118e08787610ef6565b612572565b91505092915050565b606060001515601260009054906101000a900460ff161515036119305760405160200161191a90614384565b604051602081830303815290604052905061195e565b6119398261263c565b601160405160200161194c9291906144d4565b60405160208183030381529060405290505b919050565b6000600960008373ffffffffffffffffffffffffffffffffffffffff1673ffffffffffffffffffffffffffffffffffffffff168152602001908152602001600020549050919050565b6000600c60008373ffffffffffffffffffffffffffffffffffffffff1673ffffffffffffffffffffffffffffffffffffffff168152602001908152602001600020549050919050565b6000600854905090565b6000600560008473ffffffffffffffffffffffffffffffffffffffff1673ffffffffffffffffffffffffffffffffffffffff16815260200190815260200160002060008373ffffffffffffffffffffffffffffffffffffffff1673ffffffffffffffffffffffffffffffffffffffff16815260200190815260200160002060009054906101000a900460ff16905092915050565b611a9b612106565b600073ffffffffffffffffffffffffffffffffffffffff168173ffffffffffffffffffffffffffffffffffffffff1603611b0a576040517f08c379a0000000000000000000000000000000000000000000000000000000008152600401611b0190614575565b60405180910390fd5b611b1381612340565b50565b60007f01ffc9a7000000000000000000000000000000000000000000000000000000007bffffffffffffffffffffffffffffffffffffffffffffffffffffffff1916827bffffffffffffffffffffffffffffffffffffffffffffffffffffffff1916149050919050565b611b898161270a565b611bc8576040517f08c379a0000000000000000000000000000000000000000000000000000000008152600401611bbf906141e4565b60405180910390fd5b50565b816004600083815260200190815260200160002060006101000a81548173ffffffffffffffffffffffffffffffffffffffff021916908373ffffffffffffffffffffffffffffffffffffffff160217905550808273ffffffffffffffffffffffffffffffffffffffff16611c3e836114aa565b73ffffffffffffffffffffffffffffffffffffffff167f8c5be1e5ebec7d5bd14f71427d1e84f3dd0314c0f7b2291e5b200ac8c7c3b92560405160405180910390a45050565b80471015611cc7576040517f08c379a0000000000000000000000000000000000000000000000000000000008152600401611cbe906145e1565b60405180910390fd5b60008273ffffffffffffffffffffffffffffffffffffffff1682604051611ced90614632565b60006040518083038185875af1925050503d8060008114611d2a576040519150601f19603f3d011682016040523d82523d6000602084013e611d2f565b606091505b5050905080611d73576040517f08c379a0000000000000000000000000000000000000000000000000000000008152600401611d6a906146b9565b60405180910390fd5b505050565b600080611d84836114aa565b90508073ffffffffffffffffffffffffffffffffffffffff168473ffffffffffffffffffffffffffffffffffffffff161480611dc65750611dc581856119ff565b5b80611e0457508373ffffffffffffffffffffffffffffffffffffffff16611dec84610abe565b73ffffffffffffffffffffffffffffffffffffffff16145b91505092915050565b8273ffffffffffffffffffffffffffffffffffffffff16611e2d826114aa565b73ffffffffffffffffffffffffffffffffffffffff1614611e83576040517f08c379a0000000000000000000000000000000000000000000000000000000008152600401611e7a9061474b565b60405180910390fd5b600073ffffffffffffffffffffffffffffffffffffffff168273ffffffffffffffffffffffffffffffffffffffff1603611ef2576040517f08c379a0000000000000000000000000000000000000000000000000000000008152600401611ee9906147dd565b60405180910390fd5b611eff838383600161274b565b8273ffffffffffffffffffffffffffffffffffffffff16611f1f826114aa565b73ffffffffffffffffffffffffffffffffffffffff1614611f75576040517f08c379a0000000000000000000000000000000000000000000000000000000008152600401611f6c9061474b565b60405180910390fd5b6004600082815260200190815260200160002060006101000a81549073ffffffffffffffffffffffffffffffffffffffff02191690556001600360008573ffffffffffffffffffffffffffffffffffffffff1673ffffffffffffffffffffffffffffffffffffffff168152602001908152602001600020600082825403925050819055506001600360008473ffffffffffffffffffffffffffffffffffffffff1673ffffffffffffffffffffffffffffffffffffffff16815260200190815260200160002060008282540192505081905550816002600083815260200190815260200160002060006101000a81548173ffffffffffffffffffffffffffffffffffffffff021916908373ffffffffffffffffffffffffffffffffffffffff160217905550808273ffffffffffffffffffffffffffffffffffffffff168473ffffffffffffffffffffffffffffffffffffffff167fddf252ad1be2c89b69c2b068fc378daa952ba7f163c4a11628f55a4df523b3ef60405160405180910390a46121018383836001612871565b505050565b61210e610942565b73ffffffffffffffffffffffffffffffffffffffff1661212c611655565b73ffffffffffffffffffffffffffffffffffffffff1614612182576040517f08c379a000000000000000000000000000000000000000000000000000000000815260040161217990614849565b60405180910390fd5b565b6002600e54036121c9576040517f08c379a00000000000000000000000000000000000000000000000000000000081526004016121c0906148b5565b60405180910390fd5b6002600e81905550565b600081600001549050919050565b60006122366121ef85612877565b848480806020026020016040519081016040528093929190818152602001838360200280828437600081840152601f19601f820116905080830192505050505050506128a7565b90509392505050565b6122598282604051806020016040528060008152506128be565b5050565b6001816000016000828254019250508190555050565b6001600e81905550565b6122fe8363a9059cbb60e01b848460405160240161229c9291906131ad565b604051602081830303815290604052907bffffffffffffffffffffffffffffffffffffffffffffffffffffffff19166020820180517bffffffffffffffffffffffffffffffffffffffffffffffffffffffff8381831617835250505050612919565b505050565b60006002600083815260200190815260200160002060009054906101000a900473ffffffffffffffffffffffffffffffffffffffff169050919050565b6000600660009054906101000a900473ffffffffffffffffffffffffffffffffffffffff16905081600660006101000a81548173ffffffffffffffffffffffffffffffffffffffff021916908373ffffffffffffffffffffffffffffffffffffffff1602179055508173ffffffffffffffffffffffffffffffffffffffff168173ffffffffffffffffffffffffffffffffffffffff167f8be0079c531659141344cd1fd0a4f28419497f9722a3daafe3b4186f6b6457e060405160405180910390a35050565b8173ffffffffffffffffffffffffffffffffffffffff168373ffffffffffffffffffffffffffffffffffffffff1603612474576040517f08c379a000000000000000000000000000000000000000000000000000000000815260040161246b90614921565b60405180910390fd5b80600560008573ffffffffffffffffffffffffffffffffffffffff1673ffffffffffffffffffffffffffffffffffffffff16815260200190815260200160002060008473ffffffffffffffffffffffffffffffffffffffff1673ffffffffffffffffffffffffffffffffffffffff16815260200190815260200160002060006101000a81548160ff0219169083151502179055508173ffffffffffffffffffffffffffffffffffffffff168373ffffffffffffffffffffffffffffffffffffffff167f17307eab39ab6107e8899845ad3d59bd9653f200f220920489ca2b5937696c3183604051612565919061328a565b60405180910390a3505050565b600081600754600960008773ffffffffffffffffffffffffffffffffffffffff1673ffffffffffffffffffffffffffffffffffffffff16815260200190815260200160002054856125c39190614941565b6125cd91906149b2565b6125d791906149e3565b90509392505050565b6125eb848484611e0d565b6125f7848484846129e0565b612636576040517f08c379a000000000000000000000000000000000000000000000000000000000815260040161262d90614a89565b60405180910390fd5b50505050565b60606000600161264b84612b67565b01905060008167ffffffffffffffff81111561266a57612669613884565b5b6040519080825280601f01601f19166020018201604052801561269c5781602001600182028036833780820191505090505b509050600082602001820190505b6001156126ff578080600190039150507f3031323334353637383961626364656600000000000000000000000000000000600a86061a8153600a85816126f3576126f2614983565b5b049450600085036126aa575b819350505050919050565b60008073ffffffffffffffffffffffffffffffffffffffff1661272c83612303565b73ffffffffffffffffffffffffffffffffffffffff1614159050919050565b600181111561286b57600073ffffffffffffffffffffffffffffffffffffffff168473ffffffffffffffffffffffffffffffffffffffff16146127df5780600360008673ffffffffffffffffffffffffffffffffffffffff1673ffffffffffffffffffffffffffffffffffffffff16815260200190815260200160002060008282546127d791906149e3565b925050819055505b600073ffffffffffffffffffffffffffffffffffffffff168373ffffffffffffffffffffffffffffffffffffffff161461286a5780600360008573ffffffffffffffffffffffffffffffffffffffff1673ffffffffffffffffffffffffffffffffffffffff16815260200190815260200160002060008282546128629190613d76565b925050819055505b5b50505050565b50505050565b60008160405160200161288a9190614af1565b604051602081830303815290604052805190602001209050919050565b60006128b68260175485612cba565b905092915050565b6128c88383612cd1565b6128d560008484846129e0565b612914576040517f08c379a000000000000000000000000000000000000000000000000000000000815260040161290b90614a89565b60405180910390fd5b505050565b600061297b826040518060400160405280602081526020017f5361666545524332303a206c6f772d6c6576656c2063616c6c206661696c65648152508573ffffffffffffffffffffffffffffffffffffffff16612eee9092919063ffffffff16565b90506000815111156129db578080602001905181019061299b9190614b21565b6129da576040517f08c379a00000000000000000000000000000000000000000000000000000000081526004016129d190614bc0565b60405180910390fd5b5b505050565b6000612a018473ffffffffffffffffffffffffffffffffffffffff16612f06565b15612b5a578373ffffffffffffffffffffffffffffffffffffffff1663150b7a02612a2a610942565b8786866040518563ffffffff1660e01b8152600401612a4c9493929190614c35565b6020604051808303816000875af1925050508015612a8857506040513d601f19601f82011682018060405250810190612a859190614c96565b60015b612b0a573d8060008114612ab8576040519150601f19603f3d011682016040523d82523d6000602084013e612abd565b606091505b506000815103612b02576040517f08c379a0000000000000000000000000000000000000000000000000000000008152600401612af990614a89565b60405180910390fd5b805181602001fd5b63150b7a0260e01b7bffffffffffffffffffffffffffffffffffffffffffffffffffffffff1916817bffffffffffffffffffffffffffffffffffffffffffffffffffffffff191614915050612b5f565b600190505b949350505050565b600080600090507a184f03e93ff9f4daa797ed6e38ed64bf6a1f0100000000000000008310612bc5577a184f03e93ff9f4daa797ed6e38ed64bf6a1f0100000000000000008381612bbb57612bba614983565b5b0492506040810190505b6d04ee2d6d415b85acef81000000008310612c02576d04ee2d6d415b85acef81000000008381612bf857612bf7614983565b5b0492506020810190505b662386f26fc100008310612c3157662386f26fc100008381612c2757612c26614983565b5b0492506010810190505b6305f5e1008310612c5a576305f5e1008381612c5057612c4f614983565b5b0492506008810190505b6127108310612c7f576127108381612c7557612c74614983565b5b0492506004810190505b60648310612ca25760648381612c9857612c97614983565b5b0492506002810190505b600a8310612cb1576001810190505b80915050919050565b600082612cc78584612f29565b1490509392505050565b600073ffffffffffffffffffffffffffffffffffffffff168273ffffffffffffffffffffffffffffffffffffffff1603612d40576040517f08c379a0000000000000000000000000000000000000000000000000000000008152600401612d3790614d0f565b60405180910390fd5b612d498161270a565b15612d89576040517f08c379a0000000000000000000000000000000000000000000000000000000008152600401612d8090614d7b565b60405180910390fd5b612d9760008383600161274b565b612da08161270a565b15612de0576040517f08c379a0000000000000000000000000000000000000000000000000000000008152600401612dd790614d7b565b60405180910390fd5b6001600360008473ffffffffffffffffffffffffffffffffffffffff1673ffffffffffffffffffffffffffffffffffffffff16815260200190815260200160002060008282540192505081905550816002600083815260200190815260200160002060006101000a81548173ffffffffffffffffffffffffffffffffffffffff021916908373ffffffffffffffffffffffffffffffffffffffff160217905550808273ffffffffffffffffffffffffffffffffffffffff16600073ffffffffffffffffffffffffffffffffffffffff167fddf252ad1be2c89b69c2b068fc378daa952ba7f163c4a11628f55a4df523b3ef60405160405180910390a4612eea600083836001612871565b5050565b6060612efd8484600085612f7f565b90509392505050565b6000808273ffffffffffffffffffffffffffffffffffffffff163b119050919050565b60008082905060005b8451811015612f7457612f5f82868381518110612f5257612f51614296565b5b602002602001015161304c565b91508080612f6c90614d9b565b915050612f32565b508091505092915050565b606082471015612fc4576040517f08c379a0000000000000000000000000000000000000000000000000000000008152600401612fbb90614e55565b60405180910390fd5b6000808673ffffffffffffffffffffffffffffffffffffffff168587604051612fed9190614ea6565b60006040518083038185875af1925050503d806000811461302a576040519150601f19603f3d011682016040523d82523d6000602084013e61302f565b606091505b509150915061304087838387613077565b92505050949350505050565b60008183106130645761305f82846130ec565b61306f565b61306e83836130ec565b5b905092915050565b606083156130d95760008351036130d15761309185612f06565b6130d0576040517f08c379a00000000000000000000000000000000000000000000000000000000081526004016130c790614f09565b60405180910390fd5b5b8290506130e4565b6130e38383613103565b5b949350505050565b600082600052816020526040600020905092915050565b6000825111156131165781518083602001fd5b806040517f08c379a000000000000000000000000000000000000000000000000000000000815260040161314a9190613335565b60405180910390fd5b600073ffffffffffffffffffffffffffffffffffffffff82169050919050565b600061317e82613153565b9050919050565b61318e81613173565b82525050565b6000819050919050565b6131a781613194565b82525050565b60006040820190506131c26000830185613185565b6131cf602083018461319e565b9392505050565b6000604051905090565b600080fd5b600080fd5b60007fffffffff0000000000000000000000000000000000000000000000000000000082169050919050565b61321f816131ea565b811461322a57600080fd5b50565b60008135905061323c81613216565b92915050565b600060208284031215613258576132576131e0565b5b60006132668482850161322d565b91505092915050565b60008115159050919050565b6132848161326f565b82525050565b600060208201905061329f600083018461327b565b92915050565b600081519050919050565b600082825260208201905092915050565b60005b838110156132df5780820151818401526020810190506132c4565b60008484015250505050565b6000601f19601f8301169050919050565b6000613307826132a5565b61331181856132b0565b93506133218185602086016132c1565b61332a816132eb565b840191505092915050565b6000602082019050818103600083015261334f81846132fc565b905092915050565b61336081613194565b811461336b57600080fd5b50565b60008135905061337d81613357565b92915050565b600060208284031215613399576133986131e0565b5b60006133a78482850161336e565b91505092915050565b60006020820190506133c56000830184613185565b92915050565b6133d481613173565b81146133df57600080fd5b50565b6000813590506133f1816133cb565b92915050565b6000806040838503121561340e5761340d6131e0565b5b600061341c858286016133e2565b925050602061342d8582860161336e565b9150509250929050565b600061344282613153565b9050919050565b61345281613437565b811461345d57600080fd5b50565b60008135905061346f81613449565b92915050565b60006020828403121561348b5761348a6131e0565b5b600061349984828501613460565b91505092915050565b6000602082840312156134b8576134b76131e0565b5b60006134c6848285016133e2565b91505092915050565b600081519050919050565b600082825260208201905092915050565b6000819050602082019050919050565b61350481613194565b82525050565b600061351683836134fb565b60208301905092915050565b6000602082019050919050565b600061353a826134cf565b61354481856134da565b935061354f836134eb565b8060005b83811015613580578151613567888261350a565b975061357283613522565b925050600181019050613553565b5085935050505092915050565b600060208201905081810360008301526135a7818461352f565b905092915050565b6000806000606084860312156135c8576135c76131e0565b5b60006135d6868287016133e2565b93505060206135e7868287016133e2565b92505060406135f88682870161336e565b9150509250925092565b6000819050919050565b61361581613602565b82525050565b6000602082019050613630600083018461360c565b92915050565b600060208201905061364b600083018461319e565b92915050565b600061365c82613173565b9050919050565b61366c81613651565b811461367757600080fd5b50565b60008135905061368981613663565b92915050565b600080604083850312156136a6576136a56131e0565b5b60006136b48582860161367a565b92505060206136c5858286016133e2565b9150509250929050565b600080fd5b600080fd5b600080fd5b60008083601f8401126136f4576136f36136cf565b5b8235905067ffffffffffffffff811115613711576137106136d4565b5b60208301915083602082028301111561372d5761372c6136d9565b5b9250929050565b6000806020838503121561374b5761374a6131e0565b5b600083013567ffffffffffffffff811115613769576137686131e5565b5b613775858286016136de565b92509250509250929050565b7f4e487b7100000000000000000000000000000000000000000000000000000000600052602160045260246000fd5b600381106137c1576137c0613781565b5b50565b60008190506137d2826137b0565b919050565b60006137e2826137c4565b9050919050565b6137f2816137d7565b82525050565b600060208201905061380d60008301846137e9565b92915050565b61381c8161326f565b811461382757600080fd5b50565b60008135905061383981613813565b92915050565b60008060408385031215613856576138556131e0565b5b6000613864858286016133e2565b92505060206138758582860161382a565b9150509250929050565b600080fd5b7f4e487b7100000000000000000000000000000000000000000000000000000000600052604160045260246000fd5b6138bc826132eb565b810181811067ffffffffffffffff821117156138db576138da613884565b5b80604052505050565b60006138ee6131d6565b90506138fa82826138b3565b919050565b600067ffffffffffffffff82111561391a57613919613884565b5b613923826132eb565b9050602081019050919050565b82818337600083830152505050565b600061395261394d846138ff565b6138e4565b90508281526020810184848401111561396e5761396d61387f565b5b613979848285613930565b509392505050565b600082601f830112613996576139956136cf565b5b81356139a684826020860161393f565b91505092915050565b600080600080608085870312156139c9576139c86131e0565b5b60006139d7878288016133e2565b94505060206139e8878288016133e2565b93505060406139f98782880161336e565b925050606085013567ffffffffffffffff811115613a1a57613a196131e5565b5b613a2687828801613981565b91505092959194509250565b600060208284031215613a4857613a476131e0565b5b6000613a568482850161367a565b91505092915050565b60008060408385031215613a7657613a756131e0565b5b6000613a84858286016133e2565b9250506020613a95858286016133e2565b9150509250929050565b7f4e487b7100000000000000000000000000000000000000000000000000000000600052602260045260246000fd5b60006002820490506001821680613ae657607f821691505b602082108103613af957613af8613a9f565b5b50919050565b7f4552433732313a20617070726f76616c20746f2063757272656e74206f776e6560008201527f7200000000000000000000000000000000000000000000000000000000000000602082015250565b6000613b5b6021836132b0565b9150613b6682613aff565b604082019050919050565b60006020820190508181036000830152613b8a81613b4e565b9050919050565b7f4552433732313a20617070726f76652063616c6c6572206973206e6f7420746f60008201527f6b656e206f776e6572206f7220617070726f76656420666f7220616c6c000000602082015250565b6000613bed603d836132b0565b9150613bf882613b91565b604082019050919050565b60006020820190508181036000830152613c1c81613be0565b9050919050565b7f5061796d656e7453706c69747465723a206163636f756e7420686173206e6f2060008201527f7368617265730000000000000000000000000000000000000000000000000000602082015250565b6000613c7f6026836132b0565b9150613c8a82613c23565b604082019050919050565b60006020820190508181036000830152613cae81613c72565b9050919050565b7f5061796d656e7453706c69747465723a206163636f756e74206973206e6f742060008201527f647565207061796d656e74000000000000000000000000000000000000000000602082015250565b6000613d11602b836132b0565b9150613d1c82613cb5565b604082019050919050565b60006020820190508181036000830152613d4081613d04565b9050919050565b7f4e487b7100000000000000000000000000000000000000000000000000000000600052601160045260246000fd5b6000613d8182613194565b9150613d8c83613194565b9250828201905080821115613da457613da3613d47565b5b92915050565b6000819050919050565b6000613dcf613dca613dc584613153565b613daa565b613153565b9050919050565b6000613de182613db4565b9050919050565b6000613df382613dd6565b9050919050565b613e0381613de8565b82525050565b6000604082019050613e1e6000830185613dfa565b613e2b602083018461319e565b9392505050565b7f4552433732313a2063616c6c6572206973206e6f7420746f6b656e206f776e6560008201527f72206f7220617070726f76656400000000000000000000000000000000000000602082015250565b6000613e8e602d836132b0565b9150613e9982613e32565b604082019050919050565b60006020820190508181036000830152613ebd81613e81565b9050919050565b7f536f7272792c20636f6e74726163747320617265206e6f7420616c6c6f77656460008201527f20746f20696e7465726163742077697468207468697320636f6e747261637400602082015250565b6000613f20603f836132b0565b9150613f2b82613ec4565b604082019050919050565b60006020820190508181036000830152613f4f81613f13565b9050919050565b7f4d617820737570706c7920726561636865640000000000000000000000000000600082015250565b6000613f8c6012836132b0565b9150613f9782613f56565b602082019050919050565b60006020820190508181036000830152613fbb81613f7f565b9050919050565b7f596f75206861766520616c7265616479206d696e7465642032204e4654730000600082015250565b6000613ff8601e836132b0565b915061400382613fc2565b602082019050919050565b6000602082019050818103600083015261402781613feb565b9050919050565b7f4e6f7420656e6f756768204554482073656e7400000000000000000000000000600082015250565b60006140646013836132b0565b915061406f8261402e565b602082019050919050565b6000602082019050818103600083015261409381614057565b9050919050565b7f53616c6520686173206e6f742073746172746564207965740000000000000000600082015250565b60006140d06018836132b0565b91506140db8261409a565b602082019050919050565b600060208201905081810360008301526140ff816140c3565b9050919050565b7f596f7520617265206e6f742077686974656c697374656420746f20627579207460008201527f686973204e465400000000000000000000000000000000000000000000000000602082015250565b60006141626027836132b0565b915061416d82614106565b604082019050919050565b6000602082019050818103600083015261419181614155565b9050919050565b7f4552433732313a20696e76616c696420746f6b656e2049440000000000000000600082015250565b60006141ce6018836132b0565b91506141d982614198565b602082019050919050565b600060208201905081810360008301526141fd816141c1565b9050919050565b7f4552433732313a2061646472657373207a65726f206973206e6f74206120766160008201527f6c6964206f776e65720000000000000000000000000000000000000000000000602082015250565b60006142606029836132b0565b915061426b82614204565b604082019050919050565b6000602082019050818103600083015261428f81614253565b9050919050565b7f4e487b7100000000000000000000000000000000000000000000000000000000600052603260045260246000fd5b6000815190506142d481613357565b92915050565b6000602082840312156142f0576142ef6131e0565b5b60006142fe848285016142c5565b91505092915050565b600081905092915050565b7f697066733a2f2f516d646746777048413853514b346d4836637757345476426860008201527f695a715132524e626d467259445567397071724d6a2f68696464656e00000000602082015250565b600061436e603c83614307565b915061437982614312565b603c82019050919050565b600061438f82614361565b9150819050919050565b7f626166796265696474753268336736796e6566366e6b6a69656f36727479626460008201527f7a676134737a32633675683634656e366d343576787a70676579710000000000602082015250565b60006143f5603b83614307565b915061440082614399565b603b82019050919050565b6000614416826132a5565b6144208185614307565b93506144308185602086016132c1565b80840191505092915050565b60008190508160005260206000209050919050565b6000815461445e81613ace565b6144688186614307565b945060018216600081146144835760018114614498576144cb565b60ff19831686528115158202860193506144cb565b6144a18561443c565b60005b838110156144c3578154818901526001820191506020810190506144a4565b838801955050505b50505092915050565b60006144df826143e8565b91506144eb828561440b565b91506144f78284614451565b91508190509392505050565b7f4f776e61626c653a206e6577206f776e657220697320746865207a65726f206160008201527f6464726573730000000000000000000000000000000000000000000000000000602082015250565b600061455f6026836132b0565b915061456a82614503565b604082019050919050565b6000602082019050818103600083015261458e81614552565b9050919050565b7f416464726573733a20696e73756666696369656e742062616c616e6365000000600082015250565b60006145cb601d836132b0565b91506145d682614595565b602082019050919050565b600060208201905081810360008301526145fa816145be565b9050919050565b600081905092915050565b50565b600061461c600083614601565b91506146278261460c565b600082019050919050565b600061463d8261460f565b9150819050919050565b7f416464726573733a20756e61626c6520746f2073656e642076616c75652c207260008201527f6563697069656e74206d61792068617665207265766572746564000000000000602082015250565b60006146a3603a836132b0565b91506146ae82614647565b604082019050919050565b600060208201905081810360008301526146d281614696565b9050919050565b7f4552433732313a207472616e736665722066726f6d20696e636f72726563742060008201527f6f776e6572000000000000000000000000000000000000000000000000000000602082015250565b60006147356025836132b0565b9150614740826146d9565b604082019050919050565b6000602082019050818103600083015261476481614728565b9050919050565b7f4552433732313a207472616e7366657220746f20746865207a65726f2061646460008201527f7265737300000000000000000000000000000000000000000000000000000000602082015250565b60006147c76024836132b0565b91506147d28261476b565b604082019050919050565b600060208201905081810360008301526147f6816147ba565b9050919050565b7f4f776e61626c653a2063616c6c6572206973206e6f7420746865206f776e6572600082015250565b60006148336020836132b0565b915061483e826147fd565b602082019050919050565b6000602082019050818103600083015261486281614826565b9050919050565b7f5265656e7472616e637947756172643a207265656e7472616e742063616c6c00600082015250565b600061489f601f836132b0565b91506148aa82614869565b602082019050919050565b600060208201905081810360008301526148ce81614892565b9050919050565b7f4552433732313a20617070726f766520746f2063616c6c657200000000000000600082015250565b600061490b6019836132b0565b9150614916826148d5565b602082019050919050565b6000602082019050818103600083015261493a816148fe565b9050919050565b600061494c82613194565b915061495783613194565b925082820261496581613194565b9150828204841483151761497c5761497b613d47565b5b5092915050565b7f4e487b7100000000000000000000000000000000000000000000000000000000600052601260045260246000fd5b60006149bd82613194565b91506149c883613194565b9250826149d8576149d7614983565b5b828204905092915050565b60006149ee82613194565b91506149f983613194565b9250828203905081811115614a1157614a10613d47565b5b92915050565b7f4552433732313a207472616e7366657220746f206e6f6e20455243373231526560008201527f63656976657220696d706c656d656e7465720000000000000000000000000000602082015250565b6000614a736032836132b0565b9150614a7e82614a17565b604082019050919050565b60006020820190508181036000830152614aa281614a66565b9050919050565b60008160601b9050919050565b6000614ac182614aa9565b9050919050565b6000614ad382614ab6565b9050919050565b614aeb614ae682613173565b614ac8565b82525050565b6000614afd8284614ada565b60148201915081905092915050565b600081519050614b1b81613813565b92915050565b600060208284031215614b3757614b366131e0565b5b6000614b4584828501614b0c565b91505092915050565b7f5361666545524332303a204552433230206f7065726174696f6e20646964206e60008201527f6f74207375636365656400000000000000000000000000000000000000000000602082015250565b6000614baa602a836132b0565b9150614bb582614b4e565b604082019050919050565b60006020820190508181036000830152614bd981614b9d565b9050919050565b600081519050919050565b600082825260208201905092915050565b6000614c0782614be0565b614c118185614beb565b9350614c218185602086016132c1565b614c2a816132eb565b840191505092915050565b6000608082019050614c4a6000830187613185565b614c576020830186613185565b614c64604083018561319e565b8181036060830152614c768184614bfc565b905095945050505050565b600081519050614c9081613216565b92915050565b600060208284031215614cac57614cab6131e0565b5b6000614cba84828501614c81565b91505092915050565b7f4552433732313a206d696e7420746f20746865207a65726f2061646472657373600082015250565b6000614cf96020836132b0565b9150614d0482614cc3565b602082019050919050565b60006020820190508181036000830152614d2881614cec565b9050919050565b7f4552433732313a20746f6b656e20616c7265616479206d696e74656400000000600082015250565b6000614d65601c836132b0565b9150614d7082614d2f565b602082019050919050565b60006020820190508181036000830152614d9481614d58565b9050919050565b6000614da682613194565b91507fffffffffffffffffffffffffffffffffffffffffffffffffffffffffffffffff8203614dd857614dd7613d47565b5b600182019050919050565b7f416464726573733a20696e73756666696369656e742062616c616e636520666f60008201527f722063616c6c0000000000000000000000000000000000000000000000000000602082015250565b6000614e3f6026836132b0565b9150614e4a82614de3565b604082019050919050565b60006020820190508181036000830152614e6e81614e32565b9050919050565b6000614e8082614be0565b614e8a8185614601565b9350614e9a8185602086016132c1565b80840191505092915050565b6000614eb28284614e75565b915081905092915050565b7f416464726573733a2063616c6c20746f206e6f6e2d636f6e7472616374000000600082015250565b6000614ef3601d836132b0565b9150614efe82614ebd565b602082019050919050565b60006020820190508181036000830152614f2281614ee6565b905091905056fea2646970667358221220d814c109eb8d02ca884645e8a24cc9070e0690f0ae982acbc7f4398d6df81e6a64736f6c63430008110033",
  "immutableReferences": {},
  "source": "// Contract with openzeppelin ownable, String, Counters, Ownable, ERC721,PaymentSplitter and ReentrancyGuard\n// SPDX-License-Identifier: MIT\npragma solidity 0.8.17;\n\nimport '@openzeppelin/contracts/utils/Strings.sol';\nimport '@openzeppelin/contracts/utils/Counters.sol';\nimport '@openzeppelin/contracts/access/Ownable.sol';\nimport '@openzeppelin/contracts/token/ERC721/ERC721.sol';\nimport '@openzeppelin/contracts/finance/PaymentSplitter.sol';\nimport '@openzeppelin/contracts/security/ReentrancyGuard.sol';\nimport '@openzeppelin/contracts/utils/cryptography/MerkleProof.sol';\n\ncontract WBC_NFT is ERC721, Ownable, PaymentSplitter, ReentrancyGuard {\n    // Counter for tokenIds\n    using Counters for Counters.Counter;\n    Counters.Counter private _tokenIds;\n    // Rest of the supply\n    uint256 public REST_OF_SUPPLY = 170;\n    // Max Supply\n    uint256 public constant MAX_SUPPLY = 170;\n    // Max Nfts per address\n    uint256 public constant MAX_NFTS_PER_ADDRESS = 2;\n    // Price\n    uint256 public constant PRICE = 1 ether;\n    // Extension of the base URI\n    string private extension = '.json';\n    // boolean to know if it's revealed\n    bool private _isRevealed = false;\n    // Members of the team to receive the payments\n    address[] private _teamMembers = [\n        0xA65342E5a81Cab20595A8e4F73758350056Ac5C1,\n        0x6D80Ab5FBbb46421B8CA1ee35A4b1150BeB22E96\n    ];\n    // Shares of the team members\n    uint256[] private _teamShares = [50, 50];\n    // mapping address bool to check if address has minted\n    mapping(address => bool) private _hasMinted;\n    // mapping of all the NFTs by address\n    mapping(address => uint256[]) private _nftsByAddress;\n\n    // EVENTS\n    /**\n     * @dev Event to emit when the NFT is minted\n     */\n    event NFTMinted(address indexed to, uint256 indexed tokenId);\n\n    // Merkle Root\n    bytes32 public merkleRoot;\n\n    /**\n     * @dev Enum of workflow steps for the sale\n     */\n    enum SaleState {\n        NotStarted,\n        Started,\n        Ended\n    }\n    /**\n     * @dev SaleState of the sale\n     */\n    SaleState public saleState;\n\n    /**\n     * @dev Contrusctor of the contract with the name, symbol and the team members and shares with Merkle Root\n     */\n    constructor(bytes32 _MerkleRoot)\n        ERC721('WBC NFT', 'WBC')\n        PaymentSplitter(_teamMembers, _teamShares)\n    {\n        merkleRoot = _MerkleRoot;\n        saleState = SaleState.NotStarted;\n    }\n\n    /**\n     * @dev Modifier to check if the msg.sender has not a contract\n     */\n    modifier notContract() {\n        require(\n            msg.sender == tx.origin,\n            'Sorry, contracts are not allowed to interact with this contract'\n        );\n        _;\n    }\n\n    /**\n     * @dev verify the proof of the merkle tree\n     */\n    function _verify(bytes32 leaf, bytes32[] memory proof)\n        internal\n        view\n        returns (bool)\n    {\n        return MerkleProof.verify(proof, merkleRoot, leaf);\n    }\n\n    /**\n     * @dev create the leaf of the merkle tree\n     */\n    function _leaf(address account) internal pure returns (bytes32) {\n        return keccak256(abi.encodePacked(account));\n    }\n\n    /**\n     * @dev\n     */\n    function isWhiteListed(address account, bytes32[] calldata proof)\n        internal\n        view\n        returns (bool)\n    {\n        return _verify(_leaf(account), proof);\n    }\n\n    /**\n     * @dev Mint NFTs for the msg.sender if the conditions are met and the msg.value is correct\n     * @param _proof The proof of the merkle tree\n     */\n    function mint_nft(bytes32[] calldata _proof)\n        public\n        payable\n        nonReentrant\n        notContract\n    {\n        // Check if the max supply has been reached\n        require(_tokenIds.current() < MAX_SUPPLY, 'Max supply reached');\n        // check if balance of msg.sender is less than 2\n        require(\n            balanceOf(msg.sender) <= MAX_NFTS_PER_ADDRESS,\n            'You have already minted 2 NFTs'\n        );\n        // Check if the msg.sender send enough ETH to buy the NFT\n        require(msg.value >= PRICE, 'Not enough ETH sent');\n        // Check if the sale has started\n        require(saleState == SaleState.Started, 'Sale has not started yet');\n        // Require the msg.sender to be whitelisted\n        require(\n            isWhiteListed(msg.sender, _proof),\n            'You are not whitelisted to buy this NFT'\n        );\n        // Mint the NFT\n        _safeMint(msg.sender, _tokenIds.current());\n        // Increment the tokenIds\n        _tokenIds.increment();\n        // Set the address to true\n        _hasMinted[msg.sender] = true;\n        // Event to emit when the NFT is minted\n        emit NFTMinted(msg.sender, _tokenIds.current());\n    }\n\n    /**\n        @dev This tokenURI function is used to change the base URI when it's revealed\n        */\n    function tokenURI(uint256 tokenId)\n        public\n        view\n        override\n        returns (string memory)\n    {\n        if (_isRevealed == false) {\n            return\n                string(\n                    abi.encodePacked(\n                        'ipfs://QmdgFwpHA8SQK4mH6cwW4TvBhiZqQ2RNbmFrYDUg9pqrMj/hidden'\n                    )\n                );\n        } else {\n            return\n                string(\n                    abi.encodePacked(\n                        'bafybeidtu2h3g6ynef6nkjieo6rtybdzga4sz2c6uh64en6m45vxzpgeyq',\n                        Strings.toString(tokenId),\n                        extension\n                    )\n                );\n        }\n    }\n\n    /**\n     * @dev get the NFTs by address\n     */\n    function getNFTsByAddress(address _address)\n        public\n        view\n        returns (uint256[] memory)\n    {\n        return _nftsByAddress[_address];\n    }\n\n    // SESSION GESTION\n    /**\n     * @dev Start the sale\n     */\n    function startSale() public onlyOwner {\n        saleState = SaleState.Started;\n    }\n\n    /**\n     * @dev End the sale\n     */\n    function endSale() public onlyOwner {\n        saleState = SaleState.Ended;\n        // reveal the NFTs\n        _isRevealed = true;\n    }\n}\n",
  "sourcePath": "/Users/gregorycorin/Desktop/Alyra/wbtc-launchpad/truffle/contracts/WBC_NFT.sol",
  "compiler": {
    "name": "solc",
    "version": "0.8.17+commit.8df45f5f.Emscripten.clang"
  },
  "schemaVersion": "3.4.10",
  "updatedAt": "2022-12-11T22:47:48.306Z",
  "networkType": "ethereum",
  "devdoc": {
    "events": {
      "NFTMinted(address,uint256)": {
        "details": "Event to emit when the NFT is minted"
      }
    },
    "kind": "dev",
    "methods": {
      "approve(address,uint256)": {
        "details": "See {IERC721-approve}."
      },
      "balanceOf(address)": {
        "details": "See {IERC721-balanceOf}."
      },
      "constructor": {
        "details": "Contrusctor of the contract with the name, symbol and the team members and shares with Merkle Root"
      },
      "endSale()": {
        "details": "End the sale"
      },
      "getApproved(uint256)": {
        "details": "See {IERC721-getApproved}."
      },
      "getNFTsByAddress(address)": {
        "details": "get the NFTs by address"
      },
      "isApprovedForAll(address,address)": {
        "details": "See {IERC721-isApprovedForAll}."
      },
      "mint_nft(bytes32[])": {
        "details": "Mint NFTs for the msg.sender if the conditions are met and the msg.value is correct",
        "params": {
          "_proof": "The proof of the merkle tree"
        }
      },
      "name()": {
        "details": "See {IERC721Metadata-name}."
      },
      "owner()": {
        "details": "Returns the address of the current owner."
      },
      "ownerOf(uint256)": {
        "details": "See {IERC721-ownerOf}."
      },
      "payee(uint256)": {
        "details": "Getter for the address of the payee number `index`."
      },
      "releasable(address)": {
        "details": "Getter for the amount of payee's releasable Ether."
      },
      "releasable(address,address)": {
        "details": "Getter for the amount of payee's releasable `token` tokens. `token` should be the address of an IERC20 contract."
      },
      "release(address)": {
        "details": "Triggers a transfer to `account` of the amount of Ether they are owed, according to their percentage of the total shares and their previous withdrawals."
      },
      "release(address,address)": {
        "details": "Triggers a transfer to `account` of the amount of `token` tokens they are owed, according to their percentage of the total shares and their previous withdrawals. `token` must be the address of an IERC20 contract."
      },
      "released(address)": {
        "details": "Getter for the amount of Ether already released to a payee."
      },
      "released(address,address)": {
        "details": "Getter for the amount of `token` tokens already released to a payee. `token` should be the address of an IERC20 contract."
      },
      "renounceOwnership()": {
        "details": "Leaves the contract without owner. It will not be possible to call `onlyOwner` functions anymore. Can only be called by the current owner. NOTE: Renouncing ownership will leave the contract without an owner, thereby removing any functionality that is only available to the owner."
      },
      "safeTransferFrom(address,address,uint256)": {
        "details": "See {IERC721-safeTransferFrom}."
      },
      "safeTransferFrom(address,address,uint256,bytes)": {
        "details": "See {IERC721-safeTransferFrom}."
      },
      "setApprovalForAll(address,bool)": {
        "details": "See {IERC721-setApprovalForAll}."
      },
      "shares(address)": {
        "details": "Getter for the amount of shares held by an account."
      },
      "startSale()": {
        "details": "Start the sale"
      },
      "supportsInterface(bytes4)": {
        "details": "See {IERC165-supportsInterface}."
      },
      "symbol()": {
        "details": "See {IERC721Metadata-symbol}."
      },
      "tokenURI(uint256)": {
        "details": "This tokenURI function is used to change the base URI when it's revealed"
      },
      "totalReleased()": {
        "details": "Getter for the total amount of Ether already released."
      },
      "totalReleased(address)": {
        "details": "Getter for the total amount of `token` already released. `token` should be the address of an IERC20 contract."
      },
      "totalShares()": {
        "details": "Getter for the total shares held by payees."
      },
      "transferFrom(address,address,uint256)": {
        "details": "See {IERC721-transferFrom}."
      },
      "transferOwnership(address)": {
        "details": "Transfers ownership of the contract to a new account (`newOwner`). Can only be called by the current owner."
      }
    },
    "stateVariables": {
      "saleState": {
        "details": "SaleState of the sale"
      }
    },
    "version": 1
  },
  "userdoc": {
    "kind": "user",
    "methods": {},
    "version": 1
  }
}